{
  "_format": "hh-sol-artifact-1",
  "contractName": "InvisibleL2",
  "sourceName": "src/InvisibleL2.sol",
  "abi": [
    {
      "inputs": [
        {
          "internalType": "address",
          "name": "target",
          "type": "address"
        }
      ],
      "name": "AddressEmptyCode",
      "type": "error"
    },
    {
      "inputs": [
        {
          "internalType": "address",
          "name": "implementation",
          "type": "address"
        }
      ],
      "name": "ERC1967InvalidImplementation",
      "type": "error"
    },
    {
      "inputs": [],
      "name": "ERC1967NonPayable",
      "type": "error"
    },
    {
      "inputs": [],
      "name": "FailedInnerCall",
      "type": "error"
    },
    {
      "inputs": [],
      "name": "InvalidInitialization",
      "type": "error"
    },
    {
      "inputs": [],
      "name": "NotInitializing",
      "type": "error"
    },
    {
      "inputs": [
        {
          "internalType": "address",
          "name": "owner",
          "type": "address"
        }
      ],
      "name": "OwnableInvalidOwner",
      "type": "error"
    },
    {
      "inputs": [
        {
          "internalType": "address",
          "name": "account",
          "type": "address"
        }
      ],
      "name": "OwnableUnauthorizedAccount",
      "type": "error"
    },
    {
      "inputs": [],
      "name": "ReentrancyGuardReentrantCall",
      "type": "error"
    },
    {
      "inputs": [],
      "name": "UUPSUnauthorizedCallContext",
      "type": "error"
    },
    {
      "inputs": [
        {
          "internalType": "bytes32",
          "name": "slot",
          "type": "bytes32"
        }
      ],
      "name": "UUPSUnsupportedProxiableUUID",
      "type": "error"
    },
    {
      "anonymous": false,
      "inputs": [
        {
          "indexed": false,
          "internalType": "uint256",
          "name": "pubKey",
          "type": "uint256"
        },
        {
          "indexed": false,
          "internalType": "address",
          "name": "tokenAddress",
          "type": "address"
        },
        {
          "indexed": false,
          "internalType": "uint256",
          "name": "timestamp",
          "type": "uint256"
        }
      ],
      "name": "DepositCancelEvent",
      "type": "event"
    },
    {
      "anonymous": false,
      "inputs": [
        {
          "indexed": false,
          "internalType": "uint64",
          "name": "depositId",
          "type": "uint64"
        },
        {
          "indexed": false,
          "internalType": "uint256",
          "name": "pubKey",
          "type": "uint256"
        },
        {
          "indexed": false,
          "internalType": "uint32",
          "name": "tokenId",
          "type": "uint32"
        },
        {
          "indexed": false,
          "internalType": "uint64",
          "name": "depositAmountScaled",
          "type": "uint64"
        },
        {
          "indexed": false,
          "internalType": "uint256",
          "name": "timestamp",
          "type": "uint256"
        }
      ],
      "name": "DepositEvent",
      "type": "event"
    },
    {
      "anonymous": false,
      "inputs": [
        {
          "indexed": false,
          "internalType": "uint64",
          "name": "version",
          "type": "uint64"
        }
      ],
      "name": "Initialized",
      "type": "event"
    },
    {
      "anonymous": false,
      "inputs": [
        {
          "indexed": false,
          "internalType": "address",
          "name": "tokenAddress",
          "type": "address"
        },
        {
          "indexed": false,
          "internalType": "uint32",
          "name": "tokenId",
          "type": "uint32"
        },
        {
          "indexed": false,
          "internalType": "uint8",
          "name": "scaleFactor",
          "type": "uint8"
        }
      ],
      "name": "NewTokenRegisteredEvent",
      "type": "event"
    },
    {
      "anonymous": false,
      "inputs": [
        {
          "indexed": true,
          "internalType": "address",
          "name": "previousOwner",
          "type": "address"
        },
        {
          "indexed": true,
          "internalType": "address",
          "name": "newOwner",
          "type": "address"
        }
      ],
      "name": "OwnershipTransferred",
      "type": "event"
    },
    {
      "anonymous": false,
      "inputs": [
        {
          "indexed": false,
          "internalType": "uint256",
          "name": "timestamp",
          "type": "uint256"
        },
        {
          "indexed": false,
          "internalType": "uint64",
          "name": "txBatchId",
          "type": "uint64"
        }
      ],
      "name": "ProcessedWithdrawals",
      "type": "event"
    },
    {
      "anonymous": false,
      "inputs": [
        {
          "indexed": false,
          "internalType": "uint256",
          "name": "timestamp",
          "type": "uint256"
        },
        {
          "indexed": false,
          "internalType": "uint64",
          "name": "txBatchId",
          "type": "uint64"
        }
      ],
      "name": "UpdatedPendingDepositsEvent",
      "type": "event"
    },
    {
      "anonymous": false,
      "inputs": [
        {
          "indexed": true,
          "internalType": "address",
          "name": "implementation",
          "type": "address"
        }
      ],
      "name": "Upgraded",
      "type": "event"
    },
    {
      "anonymous": false,
      "inputs": [
        {
          "indexed": false,
          "internalType": "address",
          "name": "tokenAddress",
          "type": "address"
        }
      ],
      "name": "VaultRegisteredEvent",
      "type": "event"
    },
    {
      "anonymous": false,
      "inputs": [
        {
          "indexed": false,
          "internalType": "address",
          "name": "withdrawer",
          "type": "address"
        },
        {
          "indexed": false,
          "internalType": "address",
          "name": "tokenAddress",
          "type": "address"
        },
        {
          "indexed": false,
          "internalType": "uint256",
          "name": "withdrawalAmount",
          "type": "uint256"
        },
        {
          "indexed": false,
          "internalType": "uint256",
          "name": "timestamp",
          "type": "uint256"
        }
      ],
      "name": "WithdrawalEvent",
      "type": "event"
    },
    {
      "inputs": [],
      "name": "UPGRADE_INTERFACE_VERSION",
      "outputs": [
        {
          "internalType": "string",
          "name": "",
          "type": "string"
        }
      ],
      "stateMutability": "view",
      "type": "function"
    },
    {
      "inputs": [
        {
          "internalType": "address",
          "name": "recipient",
          "type": "address"
        },
        {
          "internalType": "address",
          "name": "token",
          "type": "address"
        }
      ],
      "name": "claimPendingWithdrawal",
      "outputs": [],
      "stateMutability": "nonpayable",
      "type": "function"
    },
    {
      "inputs": [
        {
          "internalType": "address[]",
          "name": "tokens",
          "type": "address[]"
        }
      ],
      "name": "collectGasFees",
      "outputs": [],
      "stateMutability": "nonpayable",
      "type": "function"
    },
    {
      "inputs": [
        {
          "internalType": "address",
          "name": "tokenAddress",
          "type": "address"
        },
        {
          "internalType": "address payable",
          "name": "recipient",
          "type": "address"
        },
        {
          "internalType": "uint256",
          "name": "escapeAmount",
          "type": "uint256"
        }
      ],
      "name": "executeEscape",
      "outputs": [],
      "stateMutability": "nonpayable",
      "type": "function"
    },
    {
      "inputs": [
        {
          "internalType": "address",
          "name": "recipient",
          "type": "address"
        }
      ],
      "name": "getETHWithdrawableAmount",
      "outputs": [
        {
          "internalType": "uint256",
          "name": "",
          "type": "uint256"
        }
      ],
      "stateMutability": "view",
      "type": "function"
    },
    {
      "inputs": [
        {
          "internalType": "uint256",
          "name": "starkKey",
          "type": "uint256"
        },
        {
          "internalType": "address",
          "name": "tokenAddress",
          "type": "address"
        }
      ],
      "name": "getPendingDepositAmount",
      "outputs": [
        {
          "internalType": "uint256",
          "name": "",
          "type": "uint256"
        }
      ],
      "stateMutability": "view",
      "type": "function"
    },
    {
      "inputs": [
        {
          "internalType": "uint256",
          "name": "starkKey",
          "type": "uint256"
        }
      ],
      "name": "getPendingETHDepositAmount",
      "outputs": [
        {
          "internalType": "uint256",
          "name": "",
          "type": "uint256"
        }
      ],
      "stateMutability": "view",
      "type": "function"
    },
    {
      "inputs": [
        {
          "internalType": "uint32",
          "name": "tokenId",
          "type": "uint32"
        }
      ],
      "name": "getScaleFactor",
      "outputs": [
        {
          "internalType": "uint8",
          "name": "",
          "type": "uint8"
        }
      ],
      "stateMutability": "view",
      "type": "function"
    },
    {
      "inputs": [
        {
          "internalType": "uint32",
          "name": "tokenId",
          "type": "uint32"
        }
      ],
      "name": "getTokenAddress",
      "outputs": [
        {
          "internalType": "address",
          "name": "",
          "type": "address"
        }
      ],
      "stateMutability": "view",
      "type": "function"
    },
    {
      "inputs": [
        {
          "internalType": "address",
          "name": "tokenAddress",
          "type": "address"
        }
      ],
      "name": "getTokenId",
      "outputs": [
        {
          "internalType": "uint32",
          "name": "",
          "type": "uint32"
        }
      ],
      "stateMutability": "view",
      "type": "function"
    },
    {
      "inputs": [
        {
          "internalType": "address",
          "name": "tokenAddress",
          "type": "address"
        }
      ],
      "name": "getTokenPrice",
      "outputs": [
        {
          "internalType": "uint8",
          "name": "",
          "type": "uint8"
        },
        {
          "internalType": "uint256",
          "name": "",
          "type": "uint256"
        }
      ],
      "stateMutability": "view",
      "type": "function"
    },
    {
      "inputs": [
        {
          "internalType": "address",
          "name": "recipient",
          "type": "address"
        },
        {
          "internalType": "address",
          "name": "tokenAddress",
          "type": "address"
        }
      ],
      "name": "getWithdrawableAmount",
      "outputs": [
        {
          "internalType": "uint256",
          "name": "",
          "type": "uint256"
        }
      ],
      "stateMutability": "view",
      "type": "function"
    },
    {
      "inputs": [
        {
          "internalType": "address",
          "name": "initialOwner",
          "type": "address"
        },
        {
          "internalType": "uint32",
          "name": "_chainId",
          "type": "uint32"
        }
      ],
      "name": "initialize",
      "outputs": [],
      "stateMutability": "nonpayable",
      "type": "function"
    },
    {
      "inputs": [
        {
          "internalType": "uint32",
          "name": "tokenId",
          "type": "uint32"
        }
      ],
      "name": "isTokenRegistered",
      "outputs": [
        {
          "internalType": "bool",
          "name": "",
          "type": "bool"
        }
      ],
      "stateMutability": "view",
      "type": "function"
    },
    {
      "inputs": [
        {
          "internalType": "address",
          "name": "tokenAddress",
          "type": "address"
        }
      ],
      "name": "isVaultRegistered",
      "outputs": [
        {
          "internalType": "bool",
          "name": "",
          "type": "bool"
        }
      ],
      "stateMutability": "view",
      "type": "function"
    },
    {
      "inputs": [
        {
          "internalType": "address",
          "name": "tokenAddress",
          "type": "address"
        },
        {
          "internalType": "uint256",
          "name": "amount",
          "type": "uint256"
        },
        {
          "internalType": "uint256",
          "name": "starkKey",
          "type": "uint256"
        }
      ],
      "name": "makeDeposit",
      "outputs": [
        {
          "internalType": "uint64",
          "name": "newAmountDeposited",
          "type": "uint64"
        },
        {
          "internalType": "uint64",
          "name": "depositId",
          "type": "uint64"
        },
        {
          "internalType": "bytes32",
          "name": "depositHash",
          "type": "bytes32"
        }
      ],
      "stateMutability": "payable",
      "type": "function"
    },
    {
      "inputs": [],
      "name": "owner",
      "outputs": [
        {
          "internalType": "address",
          "name": "",
          "type": "address"
        }
      ],
      "stateMutability": "view",
      "type": "function"
    },
    {
      "inputs": [
        {
          "internalType": "uint32",
          "name": "txBatchId",
          "type": "uint32"
        },
        {
          "components": [
            {
              "internalType": "uint64",
              "name": "depositId",
              "type": "uint64"
            },
            {
              "internalType": "uint32",
              "name": "tokenId",
              "type": "uint32"
            },
            {
              "internalType": "uint64",
              "name": "amount",
              "type": "uint64"
            },
            {
              "internalType": "uint256",
              "name": "starkKey",
              "type": "uint256"
            }
          ],
          "internalType": "struct L2InteractionsStorage.DepositRequest[]",
          "name": "deposits",
          "type": "tuple[]"
        }
      ],
      "name": "processDepositHashes",
      "outputs": [],
      "stateMutability": "nonpayable",
      "type": "function"
    },
    {
      "inputs": [
        {
          "internalType": "uint32",
          "name": "txBatchId",
          "type": "uint32"
        },
        {
          "components": [
            {
              "internalType": "uint32",
              "name": "chainId",
              "type": "uint32"
            },
            {
              "internalType": "uint32",
              "name": "tokenId",
              "type": "uint32"
            },
            {
              "internalType": "uint64",
              "name": "amount",
              "type": "uint64"
            },
            {
              "internalType": "address",
              "name": "recipient",
              "type": "address"
            },
            {
              "internalType": "bool",
              "name": "isAutomatic",
              "type": "bool"
            }
          ],
          "internalType": "struct L2InteractionsStorage.WithdrawalRequest[]",
          "name": "withdrawals",
          "type": "tuple[]"
        }
      ],
      "name": "processWithdrawals",
      "outputs": [],
      "stateMutability": "nonpayable",
      "type": "function"
    },
    {
      "inputs": [],
      "name": "proxiableUUID",
      "outputs": [
        {
          "internalType": "bytes32",
          "name": "",
          "type": "bytes32"
        }
      ],
      "stateMutability": "view",
      "type": "function"
    },
    {
      "inputs": [
        {
          "internalType": "address",
          "name": "depositor",
          "type": "address"
        },
        {
          "internalType": "uint32",
          "name": "depositId",
          "type": "uint32"
        }
      ],
      "name": "reclaimDeposit",
      "outputs": [],
      "stateMutability": "nonpayable",
      "type": "function"
    },
    {
      "inputs": [
        {
          "internalType": "address",
          "name": "tokenAddress",
          "type": "address"
        },
        {
          "internalType": "uint32",
          "name": "tokenId",
          "type": "uint32"
        },
        {
          "internalType": "uint8",
          "name": "offchainDecimals",
          "type": "uint8"
        }
      ],
      "name": "registerToken",
      "outputs": [],
      "stateMutability": "nonpayable",
      "type": "function"
    },
    {
      "inputs": [],
      "name": "renounceOwnership",
      "outputs": [],
      "stateMutability": "nonpayable",
      "type": "function"
    },
    {
      "inputs": [
        {
          "internalType": "uint64",
          "name": "depositId",
          "type": "uint64"
        }
      ],
      "name": "s_depositHashes",
      "outputs": [
        {
          "internalType": "bytes32",
          "name": "",
          "type": "bytes32"
        }
      ],
      "stateMutability": "view",
      "type": "function"
    },
    {
      "inputs": [],
      "name": "s_messageRelay",
      "outputs": [
        {
          "internalType": "address",
          "name": "",
          "type": "address"
        }
      ],
      "stateMutability": "view",
      "type": "function"
    },
    {
      "inputs": [
        {
          "internalType": "uint256",
          "name": "",
          "type": "uint256"
        },
        {
          "internalType": "uint32",
          "name": "",
          "type": "uint32"
        }
      ],
      "name": "s_pendingDeposits",
      "outputs": [
        {
          "internalType": "uint64",
          "name": "",
          "type": "uint64"
        }
      ],
      "stateMutability": "view",
      "type": "function"
    },
    {
      "inputs": [
        {
          "internalType": "uint256",
          "name": "amount",
          "type": "uint256"
        },
        {
          "internalType": "uint32",
          "name": "tokenId",
          "type": "uint32"
        }
      ],
      "name": "scaleDown",
      "outputs": [
        {
          "internalType": "uint64",
          "name": "amountScaled",
          "type": "uint64"
        }
      ],
      "stateMutability": "view",
      "type": "function"
    },
    {
      "inputs": [
        {
          "internalType": "uint64",
          "name": "amount",
          "type": "uint64"
        },
        {
          "internalType": "uint32",
          "name": "tokenId",
          "type": "uint32"
        }
      ],
      "name": "scaleUp",
      "outputs": [
        {
          "internalType": "uint256",
          "name": "amountScaled",
          "type": "uint256"
        }
      ],
      "stateMutability": "view",
      "type": "function"
    },
    {
      "inputs": [
        {
          "internalType": "address[]",
          "name": "tokenAddress",
          "type": "address[]"
        },
        {
          "internalType": "address[]",
          "name": "aggregatorAddresses",
          "type": "address[]"
        }
      ],
      "name": "setClAggregators",
      "outputs": [],
      "stateMutability": "nonpayable",
      "type": "function"
    },
    {
      "inputs": [
        {
          "internalType": "address",
          "name": "_relay",
          "type": "address"
        }
      ],
      "name": "setMessageRelay",
      "outputs": [],
      "stateMutability": "nonpayable",
      "type": "function"
    },
    {
      "inputs": [
        {
          "internalType": "address",
          "name": "tokenAddress",
          "type": "address"
        },
        {
          "internalType": "uint64",
          "name": "depositId",
          "type": "uint64"
        },
        {
          "internalType": "uint256",
          "name": "starkKey",
          "type": "uint256"
        }
      ],
      "name": "startCancelDeposit",
      "outputs": [],
      "stateMutability": "nonpayable",
      "type": "function"
    },
    {
      "inputs": [
        {
          "internalType": "uint64",
          "name": "depositId",
          "type": "uint64"
        },
        {
          "internalType": "uint256",
          "name": "starkKey",
          "type": "uint256"
        }
      ],
      "name": "startCancelETHDeposit",
      "outputs": [],
      "stateMutability": "nonpayable",
      "type": "function"
    },
    {
      "inputs": [
        {
          "internalType": "address",
          "name": "newOwner",
          "type": "address"
        }
      ],
      "name": "transferOwnership",
      "outputs": [],
      "stateMutability": "nonpayable",
      "type": "function"
    },
    {
      "inputs": [
        {
          "internalType": "address",
          "name": "newImplementation",
          "type": "address"
        },
        {
          "internalType": "bytes",
          "name": "data",
          "type": "bytes"
        }
      ],
      "name": "upgradeToAndCall",
      "outputs": [],
      "stateMutability": "payable",
      "type": "function"
    }
  ],
  "bytecode": "0x60a0806040523461002a573060805261309e90816100308239608051818181610aba0152610d350152f35b600080fdfe6040608081526004908136101561001557600080fd5b600091823560e01c908163053d2ce71461180b57816305560c791461150a578163105a88e3146114ce5781631dffcf6f1461148f5781632440fdc2146113b85781632a2eb26a1461138b5781633b0a18f914611106578163423ec4be1461101f57816346357c1e14610fe757816346c5822714610f9e57816349b3d04d14610f3d5781634f1ef28614610cb85781635250e16814610b1657816352d1902d14610a9d578163543d7a1914610a5457816357be454414610a0c5781636d3ed747146109de578163715018a614610963578163781f358a1461093b57816388526682146109025781638da5cb5b146108bb57816399bf59641461085f578163ad3cb1cc146107a8578163c0beaaee1461063d578163c5e4c9f914610469578163d02641a014610436578163d28ff48f146103ff578163deb6cecd146103ab578163e8da278a1461036c578163f08a136414610301578163f1537686146102c4578163f2fde38b14610294578163f340470b146101d4575063f6f01b871461019957600080fd5b346101d05760203660031901126101d05760ff8160209363ffffffff6101bd61186c565b1681526005855220541690519015158152f35b5080fd5b9190503461029057806003193601126102905767ffffffffffffffff90823582811161028c57610207903690850161197a565b929093602435918211610288576102209136910161197a565b909261022a6126a0565b855b818110610237578680f35b8061024d610248600193858a6124a2565b611de8565b61025b61024883878a6124a2565b906001600160a01b038091168a526009602052868a2091166001600160a01b03198254161790550161022c565b8580fd5b8480fd5b8280fd5b83346102c15760203660031901126102c1576102be6102b1611897565b6102b96126a0565b6125f2565b80f35b80fd5b5050346101d05760203660031901126101d05763ffffffff816020936001600160a01b036102f0611897565b168152600685522054169051908152f35b83346102c15760603660031901126102c15761031b611897565b6024359067ffffffffffffffff82168203610290576103459161033c61274e565b60443591612c52565b60017f9b779b17422d0df92223018b32b4d1fa46e071723d6817e2486d003becc55f005580f35b83346102c15760203660031901126102c1576001600160a01b0361038e611897565b6103966126a0565b166001600160a01b0319600a541617600a5580f35b905034610290576020366003190112610290576103f89067ffffffffffffffff838580602097526006875263ffffffff828220541693358152600b87528181208482528752205416612393565b9051908152f35b5050346101d05760203660031901126101d05760ff8160209363ffffffff61042561186c565b168152600885522054169051908152f35b8284346102c15760203660031901126102c1575061045a610455611897565b6124cb565b60ff8351921682526020820152f35b91905034610290578060031936011261029057610484611897565b9061048d611884565b917ff0c57e16840df040f15088dc2f81fe391c3923bec73e23a9662efc9c229c6a009384549160ff83851c16159267ffffffffffffffff811680159081610635575b600114908161062b575b159081610622575b506105fa5767ffffffffffffffff19811660011787556105139190846105db575b5061050b612f51565b6102b9612f51565b61051b612f51565b8580526020936006855263ffffffff84882091631b0bc2a882199381858254161790558952600787528589206001600160a01b031981541690556008875285892060ff1990600a8282541617905560058852868a20600182825416179055898052600288526001878b2091825416179055169082541617905561059c578380f35b7fc7f505b2f371ae2175ee4913f4499e1f2633a7b5936321eed1cdaeb6115181d29268ff00000000000000001981541690555160018152a13880808380f35b68ffffffffffffffffff19166801000000000000000117875538610502565b8285517ff92ee8a9000000000000000000000000000000000000000000000000000000008152fd5b905015386104e1565b303b1591506104d9565b8591506104cf565b9050346102905760209160206003193601126107a457813567ffffffffffffffff811161028c57610671903690840161197a565b61067c94919461274e565b6106846126a0565b855b8181106106b5578660017f9b779b17422d0df92223018b32b4d1fa46e071723d6817e2486d003becc55f005580f35b866001600160a01b036106cc61024884868b6124a2565b16808252600185528486832091825492836106ef575b5050505050600101610686565b849055806107215750508180806001959461071594335af161070f611d6c565b506122a1565b905086388481806106e2565b875163a9059cbb60e01b8152338a8201908152602081019490945293919284928391829060400103925af190811561079a5760019291610768918a9161076d575b50611d21565b610715565b61078d9150863d8811610793575b610785818361193c565b810190612289565b38610762565b503d61077b565b85513d8a823e3d90fd5b8380fd5b9050346102905782600319360112610290578151908282019082821067ffffffffffffffff83111761084c57508252600581526020907f352e302e300000000000000000000000000000000000000000000000000000006020820152825193849260208452825192836020860152825b84811061083657505050828201840152601f01601f19168101030190f35b8181018301518882018801528795508201610818565b846041602492634e487b7160e01b835252fd5b9050346102905781600319360112610290576103f89067ffffffffffffffff836020956001600160a01b036108926118ad565b1681526006875263ffffffff828220541693358152600b87528181208482528752205416612393565b5050346101d057816003193601126101d0576020906001600160a01b037f9016d09d72d40fdae2fd8ceac6b6234c7706214fd39c1cd1e609a0528c19930054169051908152f35b8284346102c157816003193601126102c1575067ffffffffffffffff61093360209361092c611884565b903561247e565b915191168152f35b5050346101d057816003193601126101d0576020906001600160a01b03600a54169051908152f35b83346102c157806003193601126102c15761097c6126a0565b806001600160a01b037f9016d09d72d40fdae2fd8ceac6b6234c7706214fd39c1cd1e609a0528c1993008054906001600160a01b031982169055167f8be0079c531659141344cd1fd0a4f28419497f9722a3daafe3b4186f6b6457e08280a380f35b5050346101d057806003193601126101d0576020906103f86109fe6118c3565b610a06611884565b90612393565b9050346102905781600319360112610290578160209367ffffffffffffffff92610a34611884565b90358252600b865263ffffffff8383209116825285522054169051908152f35b5050346101d05760203660031901126101d0576020906001600160a01b03610933610a7d61186c565b63ffffffff1660005260076020526001600160a01b036040600020541690565b8284346102c157806003193601126102c157506001600160a01b037f0000000000000000000000000000000000000000000000000000000000000000163003610b0957602090517f360894a13ba1a3210667c828492db98dca3e2076cc3735a920a3ca505d382bbc8152f35b5163703e46dd60e11b8152fd5b8383346101d05760603660031901126101d057610b31611897565b6024356001600160a01b039283821680920361028c578360443593610b5461274e565b169384865260209060028252610b6f60ff848920541661223e565b8654163303610c50578315610c0e57859685969515600014610ba257505050610345935082809281925af161070f611d6c565b81958397604493959451968795869463a9059cbb60e01b865285015260248401525af1918215610c0157610bdf93508492610be4575b5050611d21565b610345565b610bfa9250803d1061079357610785818361193c565b8380610bd8565b50505051903d90823e3d90fd5b8690606492519162461bcd60e51b8352820152601660248201527f4e6f2070656e64696e67207769746864726177616c73000000000000000000006044820152fd5b8690608492519162461bcd60e51b8352820152602a60248201527f4f6e6c792065736361706556657269666965722063616e2063616c6c2074686960448201527f732066756e6374696f6e000000000000000000000000000000000000000000006064820152fd5b9180915060031936011261029057610cce611897565b90602493843567ffffffffffffffff81116101d057366023820112156101d0578085013593610cfc8561195e565b610d088551918261193c565b85815260209586820193368a8383010111610288578186928b8a93018737830101526001600160a01b03807f000000000000000000000000000000000000000000000000000000000000000016803014908115610f0f575b50610f0057610d6d6126a0565b8216958551907f52d1902d00000000000000000000000000000000000000000000000000000000825280828a818b5afa9182918793610ed0575b5050610dc35750505050505191634c9c8ce360e01b8352820152fd5b86899689927f360894a13ba1a3210667c828492db98dca3e2076cc3735a920a3ca505d382bbc90818103610ea25750853b15610e8d5780546001600160a01b0319168317905551869392917fbc7cd75a20ee27fd9adebab32041f755214dbc6bffa90cc0225b39da2e5c2d3b8580a2825115610e58575050610e549382915190845af4610e4e611d6c565b91612fd5565b5080f35b93509350505034610e6857505080f35b7fb398979f000000000000000000000000000000000000000000000000000000008152fd5b508793505191634c9c8ce360e01b8352820152fd5b848a918451917faa1d49a4000000000000000000000000000000000000000000000000000000008352820152fd5b9080929350813d8311610ef9575b610ee8818361193c565b810103126102885751903880610da7565b503d610ede565b87865163703e46dd60e11b8152fd5b9050817f360894a13ba1a3210667c828492db98dca3e2076cc3735a920a3ca505d382bbc5416141538610d60565b91905034610290573660031901126101d057610f5761186c565b906024359167ffffffffffffffff9182841161028c573660238501121561028c578301359182116107a45736602460a08402850101116107a45760246102be930190611dfc565b5050346101d057806003193601126101d05780602092610fbc611897565b610fc46118ad565b6001600160a01b039182168352600e865283832091168252845220549051908152f35b5050346101d05760203660031901126101d0578060209267ffffffffffffffff61100f6118c3565b168152600f845220549051908152f35b839150346101d057826003193601126101d05761103a611897565b906110436118ad565b9161104c61274e565b6001600160a01b039283821693848652600e60205286862090821690818752602052868620549384156110c357508580978682979852600e602052808220838352602052812055156000146110af57505081808092610345955af1610762611d6c565b610bdf94506110be9350612dad565b611d21565b606490602089519162461bcd60e51b8352820152601e60248201527f4e6f2070656e64696e67207769746864726177616c20746f20636c61696d00006044820152fd5b91905034610290578060031936011261029057611121611897565b9063ffffffff80611130611884565b16855260209160108352808620906001600160a01b03918280825416961686146113495760019560018201548952600b86528289209260029560028401541693848b52875267ffffffffffffffff9687828c20541691821561130757600398600386015442034281116112f45762069780911611156112b2575050906111b9848b959493612393565b92631b0bc2a881036112785750508280926111dc95829354165af1610762611d6c565b600d549285600d55836111ed578580f35b7f3fffffffffffffffffffffffffffffffffffffffffffffffffffffffffffffff84168403611265577fd7b6990105719101dabeb77144f2a3385c8033acd3af97e9423a695e81ad1eb59360021b8401935b84811061124b57508580f35b80878792558783820155878482015587858201550161123f565b602486601187634e487b7160e01b835252fd5b6112ad95506110be94506112a891925063ffffffff1660005260076020526001600160a01b036040600020541690565b612dad565b6111dc565b6064918b91519162461bcd60e51b8352820152601e60248201527f4465706f736974206973206e6f7420796574207265636c61696d61626c6500006044820152fd5b60248e60118f634e487b7160e01b835252fd5b6064918b91519162461bcd60e51b8352820152601160248201527f4e6f2070656e64696e6720616d6f756e740000000000000000000000000000006044820152fd5b6064878684519162461bcd60e51b8352820152601160248201527f496e76616c6964206465706f7369746f720000000000000000000000000000006044820152fd5b5050346101d0573660031901126102c1576103456113a76118c3565b6113af61274e565b60243590612a77565b9190506060366003190112610290576001600160a01b03906060936114306113de611897565b94604435906024356113ee61274e565b61140263ffffffff8093541684838b6127f3565b9790981691828652600660205286862054168092151560001461147e576114289161247e565b905b86612e56565b92838367ffffffffffffffff80931693848152600f602052205560017f9b779b17422d0df92223018b32b4d1fa46e071723d6817e2486d003becc55f00558251941684526020840152820152f35b50506114893461240e565b9061142a565b5050346101d05760203660031901126101d057806020926001600160a01b036114b6611897565b168152600e8452818120818052845220549051908152f35b5050346101d05760203660031901126101d05760ff816020936001600160a01b036114f7611897565b1681526002855220541690519015158152f35b839150346101d05760603660031901126101d057611526611897565b9061152f611884565b916044359160ff831680930361028c576115476126a0565b6001600160a01b038092169283156117c85763ffffffff8095169283156117855761159690858852611584602097600689528a8a20541615612703565b84885260078752888820541615612703565b620186a083111561028857865163313ce56760e01b815285818481885afa90811561177b579060ff91889161174e575b50160360ff811161173b5760ff1691601283116116f95760607fa0fa9e6f8b5151671d99d8a21fbee478f03ed8c5078386b9716ed66db871ccec91858852600687528888208163ffffffff1982541617905580885260078752888820866001600160a01b0319825416179055600887528888209460ff19958187825416179055600588528989206001878254161790558951918783528883015289820152a18285526002845260ff86862054166116b75750938394827f2db5c923577787b86e45d0fc2e5d9e9a655c9b0d7802164b4e967544fe40786495526002845260018287209182541617905551908152a180f35b6064908487519162461bcd60e51b8352820152601860248201527f5661756c7420616c7265616479207265676973746572656400000000000000006044820152fd5b6064828689519162461bcd60e51b8352820152601660248201527f5363616c6520666163746f7220746f6f206c61726765000000000000000000006044820152fd5b602486601184634e487b7160e01b835252fd5b61176e9150873d8911611774575b611766818361193c565b8101906124b2565b896115c6565b503d61175c565b88513d89823e3d90fd5b60648360208a519162461bcd60e51b8352820152601860248201527f546f6b656e2049442053686f756c64206e6f74206265203000000000000000006044820152fd5b606482602089519162461bcd60e51b8352820152601d60248201527f546f6b656e20616464726573732053686f756c64206e6f7420626520300000006044820152fd5b91905034610290573660031901126101d05761182561186c565b906024359167ffffffffffffffff9182841161028c573660238501121561028c578301359182116107a4573660248360071b850101116107a45760246102be9301906119ab565b6004359063ffffffff8216820361187f57565b600080fd5b6024359063ffffffff8216820361187f57565b600435906001600160a01b038216820361187f57565b602435906001600160a01b038216820361187f57565b6004359067ffffffffffffffff8216820361187f57565b67ffffffffffffffff81116118ee57604052565b634e487b7160e01b600052604160045260246000fd5b6080810190811067ffffffffffffffff8211176118ee57604052565b6060810190811067ffffffffffffffff8211176118ee57604052565b90601f8019910116810190811067ffffffffffffffff8211176118ee57604052565b67ffffffffffffffff81116118ee57601f01601f191660200190565b9181601f8401121561187f5782359167ffffffffffffffff831161187f576020808501948460051b01011161187f57565b8215611d1c576000805b848110611c9c57506001600160a01b039081600a5416906040948551967fb0937b5d00000000000000000000000000000000000000000000000000000000885260049163ffffffff9081881660048b0152602094858b602481819a5afa9a8b15611c915760009b611c62575b508a03611c205760005b838110611ab25750505050505050600a541692833b1561187f5782517fe2db465700000000000000000000000000000000000000000000000000000000815263ffffffff90921660048301526024820152916000908390818381604481015b03925af1908115611aa85750611a9d5750565b611aa6906118da565b565b513d6000823e3d90fd5b67ffffffffffffffff80611acf611aca848887612690565b611dd3565b16600052600f875260008b812055606080611aeb848887612690565b0135600052600b8089528c60002086611b0f8b611b09888c8b612690565b01611dc2565b1660005289528c83611b338183600020541692611b2d888c8b612690565b01611dd3565b1611611bb857611b488d611b2d868a89612690565b91611b54858988612690565b013560005288528b60002085611b6f8a611b09878b8a612690565b1660005288528b60002091808354921681831603818111611ba45767ffffffffffffffff199092169116179055600101611a2b565b8a60118a634e487b7160e01b600052526000fd5b60848860288f8c8e91519362461bcd60e51b85528401528201527f416e20696e76616c6964206465706f736974207761732065786563757465642060448201527f6f6666636861696e0000000000000000000000000000000000000000000000006064820152fd5b6064858a519062461bcd60e51b825280600483015260248201527f496e76616c696420616363756d756c61746564206465706f73697420686173686044820152fd5b909a508581813d8311611c8a575b611c7a818361193c565b8101031261187f57519938611a21565b503d611c70565b8a513d6000823e3d90fd5b90600167080000000000001160c01b01600191611cbd611aca858989612690565b87611cfa60209289611cd485611b098b8785612690565b6060611cf28b604097611cec89611b2d84848a612690565b95612690565b013592612e56565b8151928301938452818301528152611d1181611920565b5190200691016119b5565b505050565b15611d2857565b606460405162461bcd60e51b815260206004820152600f60248201527f5472616e73666572206661696c656400000000000000000000000000000000006044820152fd5b3d15611d97573d90611d7d8261195e565b91611d8b604051938461193c565b82523d6000602084013e565b606090565b9190811015611dac5760a0020190565b634e487b7160e01b600052603260045260246000fd5b3563ffffffff8116810361187f5790565b3567ffffffffffffffff8116810361187f5790565b356001600160a01b038116810361187f5790565b8215611d1c5760009260005b81811061211e57506001600160a01b039081600a54166040948551927f06b755f60000000000000000000000000000000000000000000000000000000084528363ffffffff87169384600483015281602460209788935afa908115612113576000916120e6575b50880361207d5792909186926000945b808610611f0a5750507fb6b024ed190b1c1f8da1d5ad2646a7311d56e5bc0fe8cc956a9e7b453f45d2039350825191428352820152a1600a541692833b1561187f5782517f94e6902a00000000000000000000000000000000000000000000000000000000815263ffffffff9092166004830152602482015291600090839081838160448101611a8a565b9193509193611f21610a7d86611b09848688611d9c565b9067ffffffffffffffff611f3a8a611b2d848789611d9c565b161561207457611f61611f528a611b2d848789611d9c565b610a0688611b0985888a611d9c565b6080611f6e838688611d9c565b013592831515840361187f57600193156120395788611f996060611f9386898b611d9c565b01611de8565b83828416938415600014611ff3575050169050611fb68282612faa565b15611fca575b50505b019391879391611e7f565b600052600e875289600020600080528752611fea8a600020918254612e49565b90553880611fbc565b9082611ffe92612dad565b1561200d575b50505050611fbf565b16600052600e88528a60002090600052875261202e8a600020918254612e49565b905538808881612004565b8861204a6060611f9386898b611d9c565b16600052600e8852888b6000209116600052875261206d8a600020918254612e49565b9055611fbf565b60019150611fbf565b60848488519062461bcd60e51b82526004820152602360248201527f496e76616c696420616363756d756c61746564207769746864726177616c206860448201527f61736800000000000000000000000000000000000000000000000000000000006064820152fd5b90508481813d831161210c575b6120fd818361193c565b8101031261187f575138611e6f565b503d6120f3565b88513d6000823e3d90fd5b9361213261212d868487611d9c565b611dc2565b60209161214483611b0989878a611d9c565b92604061215681611b2d8b898c611d9c565b946121676060611f938c8a8d611d9c565b9463ffffffff67ffffffff0000000081831692861b169180830464010000000014901517156122285761219b921690612e49565b9485821b958087046801000000000000000014901517156122285760019567ffffffffffffffff6121cd921690612e49565b936001600160a01b0382519184830196875216828201528181526121f081611920565b600167080000000000001160c01b0194859151902006815192830193845281830152815261221d81611920565b519020069401611e08565b634e487b7160e01b600052601160045260246000fd5b1561224557565b606460405162461bcd60e51b815260206004820152601760248201527f5661756c74206973206e6f7420726567697374657265640000000000000000006044820152fd5b9081602091031261187f5751801515810361187f5790565b156122a857565b606460405162461bcd60e51b815260206004820152601460248201527f4661696c656420746f2073656e642045746865720000000000000000000000006044820152fd5b156122f357565b606460405162461bcd60e51b815260206004820152601460248201527f546f6b656e206e6f7420726567697374657265640000000000000000000000006044820152fd5b1561233e57565b606460405162461bcd60e51b815260206004820152601460248201527f496e76616c6964207363616c6520666163746f720000000000000000000000006044820152fd5b60ff16604d811161222857600a0a90565b9063ffffffff1660009080825260056020526123b560ff6040842054166122ec565b815260086020526123e567ffffffffffffffff60ff604084205416936123de6012861115612337565b1692612382565b918281029281840414901517156123fa575090565b80634e487b7160e01b602492526011600452fd5b90631b0bc2a891600092808452600560205261243060ff6040862054166122ec565b8352600860205261245460ff60408520541661244f6012821115612337565b612382565b90811561246a570467ffffffffffffffff169150565b602484634e487b7160e01b81526012600452fd5b919063ffffffff1691600092808452600560205261243060ff6040862054166122ec565b9190811015611dac5760051b0190565b9081602091031261187f575160ff8116810361187f5790565b906001600160a01b0380921691600090838252602090600682526040946124fc63ffffffff878620541615156122ec565b83526009825284832054169182156125e25784519163313ce56760e01b83528083600481875afa9283156125d85782936125b6575b5080600493948751948580927f50d25bcd0000000000000000000000000000000000000000000000000000000082525afa9586156125ab57508195612578575b5050509190565b909180939550813d83116125a4575b612591818361193c565b810103126102c157505191388080612571565b503d612587565b51913d9150823e3d90fd5b600493506125d18291823d841161177457611766818361193c565b9350612531565b86513d84823e3d90fd5b50505090506008906305f5e10090565b6001600160a01b0380911690811561265f577f9016d09d72d40fdae2fd8ceac6b6234c7706214fd39c1cd1e609a0528c199300805490836001600160a01b03198316179055167f8be0079c531659141344cd1fd0a4f28419497f9722a3daafe3b4186f6b6457e0600080a3565b60246040517f1e4fbdf700000000000000000000000000000000000000000000000000000000815260006004820152fd5b9190811015611dac5760071b0190565b6001600160a01b037f9016d09d72d40fdae2fd8ceac6b6234c7706214fd39c1cd1e609a0528c199300541633036126d357565b60246040517f118cdaa7000000000000000000000000000000000000000000000000000000008152336004820152fd5b1561270a57565b606460405162461bcd60e51b815260206004820152601860248201527f546f6b656e20616c7265616479207265676973746572656400000000000000006044820152fd5b7f9b779b17422d0df92223018b32b4d1fa46e071723d6817e2486d003becc55f00600281541461277e5760029055565b60046040517f3ee5aeb5000000000000000000000000000000000000000000000000000000008152fd5b156127af57565b606460405162461bcd60e51b815260206004820152601160248201527f496e76616c696420737461726b204b65790000000000000000000000000000006044820152fd5b93929193612810600167080000000000001160c01b0186106127a8565b61281b8515156127a8565b34156129095750503461282d9061240e565b600093808552600b6020526040808620631b0bc2a89081885260205267ffffffffffffffff9182818920541695816128658789612f0f565b99868152600b602052818120858252602052208467ffffffffffffffff199a168a82541617905561289590612f2b565b97600c5490848083169a8b6128a991612f0f565b9a6128b390612ef6565b16911617600c55805193838916855260208501528301528216606082015242608082015260a07f429602b012976e07ac9b27b6c1bac9791626550f52721f02a2523c88808ec7a091a161290591612f0f565b9190565b6001600160a01b0316906000948286526020916002835260409361293260ff868a20541661223e565b84517f23b872dd00000000000000000000000000000000000000000000000000000000815233600482015230602482015282604482015284816064818c865af1908115612a6d579061298a918a9161076d5750611d21565b8752600683528387205463ffffffff1690816129a59161247e565b93828852600b8452808820828952845267ffffffffffffffff9283828a20541696826129d1888a612f0f565b9a838152600b88528181208682528852208567ffffffffffffffff199b168b8254161790556129ff90612f2b565b98600c5490858083169b8c612a1391612f0f565b9b612a1d90612ef6565b16911617600c55815194848a1686528501528301528216606082015242608082015260a07f429602b012976e07ac9b27b6c1bac9791626550f52721f02a2523c88808ec7a091a161290591612f0f565b86513d8b823e3d90fd5b90600167080000000000001160c01b01811015612c0e573315612bca5767ffffffffffffffff809216906000828152602090600f82526040918282205415612b87578180526006815263ffffffff80848420541696858452600b83528484208885528352848420541615612b7e5760036060967ffe5eeb45c725aa6c7460c0a9b5891c86aab2691e00ef4e9e24376ec43264561b98865193612b1885611904565b3385528585018981528886019283528a8601934285528852601087526001600160a01b038989209651166001600160a01b03198754161786555160018601556002850191511663ffffffff198254161790555191015582519384528301524290820152a1565b50505050505050565b60649083519062461bcd60e51b82526004820152601260248201527f496e76616c6964206465706f73697420696400000000000000000000000000006044820152fd5b606460405162461bcd60e51b815260206004820152601560248201527f6d73672e73656e6465722063616e2774206265203000000000000000000000006044820152fd5b606460405162461bcd60e51b815260206004820152601160248201527f496e76616c696420737461726b206b65790000000000000000000000000000006044820152fd5b9091600167080000000000001160c01b01811015612c0e573315612bca5767ffffffffffffffff8093169160008381526020600f81526040928383205415612d6a576001600160a01b03809116928381526006835263ffffffff9687868320541698878352600b85528683208a84528552868320541615612d5f577ffe5eeb45c725aa6c7460c0a9b5891c86aab2691e00ef4e9e24376ec43264561b98606098600393885195612d0187611904565b33875289888801928c84528189019586528d890196428852815260108a52209651166001600160a01b03198754161786555160018601556002850191511663ffffffff198254161790555191015582519384528301524290820152a1565b505050505050505050565b60648285519062461bcd60e51b82526004820152601260248201527f496e76616c6964206465706f73697420696400000000000000000000000000006044820152fd5b6001600160a01b03169182600052600260205260ff6040600020541615612e41578015612e415760405163a9059cbb60e01b81526001600160a01b03929092166004830152602482015290602090829060449082906000905af1908115612e3557600091612e19575090565b612e32915060203d60201161079357610785818361193c565b90565b6040513d6000823e3d90fd5b505050600190565b9190820180921161222857565b92919067ffffffffffffffff936bffffffffffffffff000000008582169160201b169080820464010000000014901517156122285763ffffffff612e9b921690612e49565b8060401b9080820468010000000000000000149015171561222857600167080000000000001160c01b0193612ed1921690612e49565b906040519060208201928352604082015260408152612eef81611920565b5190200690565b90600167ffffffffffffffff8093160191821161222857565b91909167ffffffffffffffff8080941691160191821161222857565b60201b906bffffffffffffffff0000000067ffffffff0000000083169216820361222857565b60ff7ff0c57e16840df040f15088dc2f81fe391c3923bec73e23a9662efc9c229c6a005460401c1615612f8057565b60046040517fd7e6bcf8000000000000000000000000000000000000000000000000000000008152fd5b8115612fce5760008080936001600160a01b038294165af1612fca611d6c565b5090565b5050600190565b906130145750805115612fea57805190602001fd5b60046040517f1425ea42000000000000000000000000000000000000000000000000000000008152fd5b8151158061305f575b613025575090565b6024906001600160a01b03604051917f9996b315000000000000000000000000000000000000000000000000000000008352166004820152fd5b50803b1561301d56fea264697066735822122068ae59248ec0c4e1073c94b77fe9c7f030ede6d00a2c9485d6afb55c29f3037964736f6c63430008160033",
  "linkReferences": {},
  "deployedLinkReferences": {}
}