{
  "_format": "hh-sol-artifact-1",
  "contractName": "InvisibleL2",
  "sourceName": "src/Invisible.sol",
  "abi": [
    {
      "inputs": [
        {
          "internalType": "address",
          "name": "target",
          "type": "address"
        }
      ],
      "name": "AddressEmptyCode",
      "type": "error"
    },
    {
      "inputs": [
        {
          "internalType": "address",
          "name": "implementation",
          "type": "address"
        }
      ],
      "name": "ERC1967InvalidImplementation",
      "type": "error"
    },
    {
      "inputs": [],
      "name": "ERC1967NonPayable",
      "type": "error"
    },
    {
      "inputs": [],
      "name": "FailedInnerCall",
      "type": "error"
    },
    {
      "inputs": [],
      "name": "InvalidInitialization",
      "type": "error"
    },
    {
      "inputs": [],
      "name": "NotInitializing",
      "type": "error"
    },
    {
      "inputs": [
        {
          "internalType": "address",
          "name": "owner",
          "type": "address"
        }
      ],
      "name": "OwnableInvalidOwner",
      "type": "error"
    },
    {
      "inputs": [
        {
          "internalType": "address",
          "name": "account",
          "type": "address"
        }
      ],
      "name": "OwnableUnauthorizedAccount",
      "type": "error"
    },
    {
      "inputs": [],
      "name": "ReentrancyGuardReentrantCall",
      "type": "error"
    },
    {
      "inputs": [],
      "name": "UUPSUnauthorizedCallContext",
      "type": "error"
    },
    {
      "inputs": [
        {
          "internalType": "bytes32",
          "name": "slot",
          "type": "bytes32"
        }
      ],
      "name": "UUPSUnsupportedProxiableUUID",
      "type": "error"
    },
    {
      "anonymous": false,
      "inputs": [
        {
          "indexed": false,
          "internalType": "uint256",
          "name": "pubKey",
          "type": "uint256"
        },
        {
          "indexed": false,
          "internalType": "address",
          "name": "tokenAddress",
          "type": "address"
        },
        {
          "indexed": false,
          "internalType": "uint256",
          "name": "timestamp",
          "type": "uint256"
        }
      ],
      "name": "DepositCancelEvent",
      "type": "event"
    },
    {
      "anonymous": false,
      "inputs": [
        {
          "indexed": false,
          "internalType": "uint64",
          "name": "depositId",
          "type": "uint64"
        },
        {
          "indexed": false,
          "internalType": "uint256",
          "name": "pubKey",
          "type": "uint256"
        },
        {
          "indexed": false,
          "internalType": "uint32",
          "name": "tokenId",
          "type": "uint32"
        },
        {
          "indexed": false,
          "internalType": "uint64",
          "name": "depositAmountScaled",
          "type": "uint64"
        },
        {
          "indexed": false,
          "internalType": "uint256",
          "name": "timestamp",
          "type": "uint256"
        }
      ],
      "name": "DepositEvent",
      "type": "event"
    },
    {
      "anonymous": false,
      "inputs": [
        {
          "indexed": false,
          "internalType": "uint64",
          "name": "version",
          "type": "uint64"
        }
      ],
      "name": "Initialized",
      "type": "event"
    },
    {
      "anonymous": false,
      "inputs": [
        {
          "indexed": false,
          "internalType": "address",
          "name": "tokenAddress",
          "type": "address"
        },
        {
          "indexed": false,
          "internalType": "uint32",
          "name": "tokenId",
          "type": "uint32"
        },
        {
          "indexed": false,
          "internalType": "uint8",
          "name": "scaleFactor",
          "type": "uint8"
        }
      ],
      "name": "NewTokenRegisteredEvent",
      "type": "event"
    },
    {
      "anonymous": false,
      "inputs": [
        {
          "indexed": true,
          "internalType": "address",
          "name": "previousOwner",
          "type": "address"
        },
        {
          "indexed": true,
          "internalType": "address",
          "name": "newOwner",
          "type": "address"
        }
      ],
      "name": "OwnershipTransferred",
      "type": "event"
    },
    {
      "anonymous": false,
      "inputs": [
        {
          "indexed": false,
          "internalType": "uint256",
          "name": "timestamp",
          "type": "uint256"
        },
        {
          "indexed": false,
          "internalType": "uint64",
          "name": "txBatchId",
          "type": "uint64"
        }
      ],
      "name": "ProcessedWithdrawals",
      "type": "event"
    },
    {
      "anonymous": false,
      "inputs": [
        {
          "indexed": false,
          "internalType": "uint256",
          "name": "timestamp",
          "type": "uint256"
        },
        {
          "indexed": false,
          "internalType": "uint64",
          "name": "txBatchId",
          "type": "uint64"
        }
      ],
      "name": "UpdatedPendingDepositsEvent",
      "type": "event"
    },
    {
      "anonymous": false,
      "inputs": [
        {
          "indexed": true,
          "internalType": "address",
          "name": "implementation",
          "type": "address"
        }
      ],
      "name": "Upgraded",
      "type": "event"
    },
    {
      "anonymous": false,
      "inputs": [
        {
          "indexed": false,
          "internalType": "address",
          "name": "tokenAddress",
          "type": "address"
        }
      ],
      "name": "VaultRegisteredEvent",
      "type": "event"
    },
    {
      "anonymous": false,
      "inputs": [
        {
          "indexed": false,
          "internalType": "address",
          "name": "withdrawer",
          "type": "address"
        },
        {
          "indexed": false,
          "internalType": "address",
          "name": "tokenAddress",
          "type": "address"
        },
        {
          "indexed": false,
          "internalType": "uint256",
          "name": "withdrawalAmount",
          "type": "uint256"
        },
        {
          "indexed": false,
          "internalType": "uint256",
          "name": "timestamp",
          "type": "uint256"
        }
      ],
      "name": "WithdrawalEvent",
      "type": "event"
    },
    {
      "inputs": [],
      "name": "CALLBACK_SUCCESS",
      "outputs": [
        {
          "internalType": "bytes32",
          "name": "",
          "type": "bytes32"
        }
      ],
      "stateMutability": "view",
      "type": "function"
    },
    {
      "inputs": [],
      "name": "UPGRADE_INTERFACE_VERSION",
      "outputs": [
        {
          "internalType": "string",
          "name": "",
          "type": "string"
        }
      ],
      "stateMutability": "view",
      "type": "function"
    },
    {
      "inputs": [
        {
          "internalType": "address",
          "name": "recipient",
          "type": "address"
        },
        {
          "internalType": "address",
          "name": "token",
          "type": "address"
        }
      ],
      "name": "claimPendingWithdrawal",
      "outputs": [],
      "stateMutability": "nonpayable",
      "type": "function"
    },
    {
      "inputs": [
        {
          "internalType": "address",
          "name": "tokenAddress",
          "type": "address"
        },
        {
          "internalType": "address payable",
          "name": "recipient",
          "type": "address"
        },
        {
          "internalType": "uint256",
          "name": "escapeAmount",
          "type": "uint256"
        }
      ],
      "name": "executeEscape",
      "outputs": [],
      "stateMutability": "nonpayable",
      "type": "function"
    },
    {
      "inputs": [],
      "name": "feePercent",
      "outputs": [
        {
          "internalType": "uint256",
          "name": "",
          "type": "uint256"
        }
      ],
      "stateMutability": "view",
      "type": "function"
    },
    {
      "inputs": [
        {
          "internalType": "address",
          "name": "token",
          "type": "address"
        },
        {
          "internalType": "uint256",
          "name": "amount",
          "type": "uint256"
        }
      ],
      "name": "flashFee",
      "outputs": [
        {
          "internalType": "uint256",
          "name": "",
          "type": "uint256"
        }
      ],
      "stateMutability": "pure",
      "type": "function"
    },
    {
      "inputs": [
        {
          "internalType": "contract IERC3156FlashBorrower",
          "name": "receiver",
          "type": "address"
        },
        {
          "internalType": "address",
          "name": "token",
          "type": "address"
        },
        {
          "internalType": "uint256",
          "name": "amount",
          "type": "uint256"
        },
        {
          "internalType": "bytes",
          "name": "data",
          "type": "bytes"
        }
      ],
      "name": "flashLoan",
      "outputs": [
        {
          "internalType": "bool",
          "name": "",
          "type": "bool"
        }
      ],
      "stateMutability": "nonpayable",
      "type": "function"
    },
    {
      "inputs": [
        {
          "internalType": "uint256",
          "name": "starkKey",
          "type": "uint256"
        },
        {
          "internalType": "address",
          "name": "tokenAddress",
          "type": "address"
        }
      ],
      "name": "getPendingDepositAmount",
      "outputs": [
        {
          "internalType": "uint256",
          "name": "",
          "type": "uint256"
        }
      ],
      "stateMutability": "view",
      "type": "function"
    },
    {
      "inputs": [
        {
          "internalType": "uint256",
          "name": "starkKey",
          "type": "uint256"
        }
      ],
      "name": "getPendingETHDepositAmount",
      "outputs": [
        {
          "internalType": "uint256",
          "name": "",
          "type": "uint256"
        }
      ],
      "stateMutability": "view",
      "type": "function"
    },
    {
      "inputs": [
        {
          "internalType": "uint32",
          "name": "tokenId",
          "type": "uint32"
        }
      ],
      "name": "getScaleFactor",
      "outputs": [
        {
          "internalType": "uint8",
          "name": "",
          "type": "uint8"
        }
      ],
      "stateMutability": "view",
      "type": "function"
    },
    {
      "inputs": [
        {
          "internalType": "uint32",
          "name": "tokenId",
          "type": "uint32"
        }
      ],
      "name": "getTokenAddress",
      "outputs": [
        {
          "internalType": "address",
          "name": "",
          "type": "address"
        }
      ],
      "stateMutability": "view",
      "type": "function"
    },
    {
      "inputs": [
        {
          "internalType": "address",
          "name": "tokenAddress",
          "type": "address"
        }
      ],
      "name": "getTokenId",
      "outputs": [
        {
          "internalType": "uint32",
          "name": "",
          "type": "uint32"
        }
      ],
      "stateMutability": "view",
      "type": "function"
    },
    {
      "inputs": [
        {
          "internalType": "address",
          "name": "tokenAddress",
          "type": "address"
        }
      ],
      "name": "getTokenPrice",
      "outputs": [
        {
          "internalType": "uint8",
          "name": "",
          "type": "uint8"
        },
        {
          "internalType": "uint256",
          "name": "",
          "type": "uint256"
        }
      ],
      "stateMutability": "view",
      "type": "function"
    },
    {
      "inputs": [
        {
          "internalType": "address",
          "name": "initialOwner",
          "type": "address"
        }
      ],
      "name": "initialize",
      "outputs": [],
      "stateMutability": "nonpayable",
      "type": "function"
    },
    {
      "inputs": [
        {
          "internalType": "uint32",
          "name": "tokenId",
          "type": "uint32"
        }
      ],
      "name": "isTokenRegistered",
      "outputs": [
        {
          "internalType": "bool",
          "name": "",
          "type": "bool"
        }
      ],
      "stateMutability": "view",
      "type": "function"
    },
    {
      "inputs": [
        {
          "internalType": "address",
          "name": "tokenAddress",
          "type": "address"
        }
      ],
      "name": "isVaultRegistered",
      "outputs": [
        {
          "internalType": "bool",
          "name": "",
          "type": "bool"
        }
      ],
      "stateMutability": "view",
      "type": "function"
    },
    {
      "inputs": [
        {
          "internalType": "address",
          "name": "tokenAddress",
          "type": "address"
        },
        {
          "internalType": "uint256",
          "name": "amount",
          "type": "uint256"
        },
        {
          "internalType": "uint256",
          "name": "starkKey",
          "type": "uint256"
        }
      ],
      "name": "makeDeposit",
      "outputs": [
        {
          "internalType": "uint64",
          "name": "newAmountDeposited",
          "type": "uint64"
        },
        {
          "internalType": "uint64",
          "name": "depositId",
          "type": "uint64"
        },
        {
          "internalType": "bytes32",
          "name": "depositHash",
          "type": "bytes32"
        }
      ],
      "stateMutability": "payable",
      "type": "function"
    },
    {
      "inputs": [
        {
          "internalType": "address",
          "name": "token",
          "type": "address"
        }
      ],
      "name": "maxFlashLoan",
      "outputs": [
        {
          "internalType": "uint256",
          "name": "",
          "type": "uint256"
        }
      ],
      "stateMutability": "view",
      "type": "function"
    },
    {
      "inputs": [],
      "name": "owner",
      "outputs": [
        {
          "internalType": "address",
          "name": "",
          "type": "address"
        }
      ],
      "stateMutability": "view",
      "type": "function"
    },
    {
      "inputs": [
        {
          "internalType": "uint32",
          "name": "txBatchId",
          "type": "uint32"
        },
        {
          "components": [
            {
              "internalType": "uint64",
              "name": "depositId",
              "type": "uint64"
            },
            {
              "internalType": "uint32",
              "name": "tokenId",
              "type": "uint32"
            },
            {
              "internalType": "uint64",
              "name": "amount",
              "type": "uint64"
            },
            {
              "internalType": "uint256",
              "name": "starkKey",
              "type": "uint256"
            }
          ],
          "internalType": "struct L2InteractionsStorage.DepositRequest[]",
          "name": "deposits",
          "type": "tuple[]"
        }
      ],
      "name": "processDepositHashes",
      "outputs": [],
      "stateMutability": "nonpayable",
      "type": "function"
    },
    {
      "inputs": [
        {
          "internalType": "uint32",
          "name": "txBatchId",
          "type": "uint32"
        },
        {
          "components": [
            {
              "internalType": "uint32",
              "name": "chainId",
              "type": "uint32"
            },
            {
              "internalType": "uint32",
              "name": "tokenId",
              "type": "uint32"
            },
            {
              "internalType": "uint64",
              "name": "amount",
              "type": "uint64"
            },
            {
              "internalType": "address",
              "name": "recipient",
              "type": "address"
            }
          ],
          "internalType": "struct L2InteractionsStorage.WithdrawalRequest[]",
          "name": "withdrawals",
          "type": "tuple[]"
        }
      ],
      "name": "processWithdrawals",
      "outputs": [],
      "stateMutability": "nonpayable",
      "type": "function"
    },
    {
      "inputs": [],
      "name": "proxiableUUID",
      "outputs": [
        {
          "internalType": "bytes32",
          "name": "",
          "type": "bytes32"
        }
      ],
      "stateMutability": "view",
      "type": "function"
    },
    {
      "inputs": [
        {
          "internalType": "address",
          "name": "depositor",
          "type": "address"
        },
        {
          "internalType": "uint32",
          "name": "depositId",
          "type": "uint32"
        }
      ],
      "name": "reclaimDeposit",
      "outputs": [],
      "stateMutability": "nonpayable",
      "type": "function"
    },
    {
      "inputs": [
        {
          "internalType": "address",
          "name": "tokenAddress",
          "type": "address"
        },
        {
          "internalType": "uint32",
          "name": "tokenId",
          "type": "uint32"
        },
        {
          "internalType": "uint8",
          "name": "offchainDecimals",
          "type": "uint8"
        }
      ],
      "name": "registerToken",
      "outputs": [],
      "stateMutability": "nonpayable",
      "type": "function"
    },
    {
      "inputs": [],
      "name": "renounceOwnership",
      "outputs": [],
      "stateMutability": "nonpayable",
      "type": "function"
    },
    {
      "inputs": [
        {
          "internalType": "uint64",
          "name": "depositId",
          "type": "uint64"
        }
      ],
      "name": "s_depositHashes",
      "outputs": [
        {
          "internalType": "bytes32",
          "name": "",
          "type": "bytes32"
        }
      ],
      "stateMutability": "view",
      "type": "function"
    },
    {
      "inputs": [],
      "name": "s_messageRelay",
      "outputs": [
        {
          "internalType": "address",
          "name": "",
          "type": "address"
        }
      ],
      "stateMutability": "view",
      "type": "function"
    },
    {
      "inputs": [
        {
          "internalType": "uint256",
          "name": "",
          "type": "uint256"
        },
        {
          "internalType": "uint32",
          "name": "",
          "type": "uint32"
        }
      ],
      "name": "s_pendingDeposits",
      "outputs": [
        {
          "internalType": "uint64",
          "name": "",
          "type": "uint64"
        }
      ],
      "stateMutability": "view",
      "type": "function"
    },
    {
      "inputs": [
        {
          "internalType": "uint256",
          "name": "amount",
          "type": "uint256"
        },
        {
          "internalType": "uint32",
          "name": "tokenId",
          "type": "uint32"
        }
      ],
      "name": "scaleDown",
      "outputs": [
        {
          "internalType": "uint64",
          "name": "amountScaled",
          "type": "uint64"
        }
      ],
      "stateMutability": "view",
      "type": "function"
    },
    {
      "inputs": [
        {
          "internalType": "uint64",
          "name": "amount",
          "type": "uint64"
        },
        {
          "internalType": "uint32",
          "name": "tokenId",
          "type": "uint32"
        }
      ],
      "name": "scaleUp",
      "outputs": [
        {
          "internalType": "uint256",
          "name": "amountScaled",
          "type": "uint256"
        }
      ],
      "stateMutability": "view",
      "type": "function"
    },
    {
      "inputs": [
        {
          "internalType": "address[]",
          "name": "tokenAddress",
          "type": "address[]"
        },
        {
          "internalType": "address[]",
          "name": "aggregatorAddresses",
          "type": "address[]"
        }
      ],
      "name": "setClAggregators",
      "outputs": [],
      "stateMutability": "nonpayable",
      "type": "function"
    },
    {
      "inputs": [
        {
          "internalType": "address",
          "name": "_relay",
          "type": "address"
        }
      ],
      "name": "setMessageRelay",
      "outputs": [],
      "stateMutability": "nonpayable",
      "type": "function"
    },
    {
      "inputs": [
        {
          "internalType": "address",
          "name": "tokenAddress",
          "type": "address"
        },
        {
          "internalType": "uint64",
          "name": "depositId",
          "type": "uint64"
        },
        {
          "internalType": "uint256",
          "name": "starkKey",
          "type": "uint256"
        }
      ],
      "name": "startCancelDeposit",
      "outputs": [],
      "stateMutability": "nonpayable",
      "type": "function"
    },
    {
      "inputs": [
        {
          "internalType": "uint64",
          "name": "depositId",
          "type": "uint64"
        },
        {
          "internalType": "uint256",
          "name": "starkKey",
          "type": "uint256"
        }
      ],
      "name": "startCancelETHDeposit",
      "outputs": [],
      "stateMutability": "nonpayable",
      "type": "function"
    },
    {
      "inputs": [
        {
          "internalType": "address",
          "name": "newOwner",
          "type": "address"
        }
      ],
      "name": "transferOwnership",
      "outputs": [],
      "stateMutability": "nonpayable",
      "type": "function"
    },
    {
      "inputs": [
        {
          "internalType": "address",
          "name": "newImplementation",
          "type": "address"
        },
        {
          "internalType": "bytes",
          "name": "data",
          "type": "bytes"
        }
      ],
      "name": "upgradeToAndCall",
      "outputs": [],
      "stateMutability": "payable",
      "type": "function"
    }
  ],
  "bytecode": "0x60a0806040523461002a57306080526132ec90816100308239608051818181610dd901526110de0152f35b600080fdfe6040608081526004908136101561001557600080fd5b600091823560e01c908163053d2ce714611efe57816305560c7914611bfd578163105a88e314611bc157816312760a7b146117965781632440fdc2146116c55781632a2eb26a146116985781633b0a18f91461140f578163423ec4be1461131e57816346357c1e146112e65781634f1ef286146110615781635250e16814610e3557816352d1902d14610dbc578163543d7a1914610d7357816357be454414610d2a5781635cffe9de1461095d578163613255ab146109375781636d3ed74714610909578163715018a61461088d578163781f358a146108655781637fd6f15c1461084a5781638237e5381461080f57816388526682146107d65781638da5cb5b1461078f57816399bf59641461072c578163ad3cb1cc1461069a578163c4d66de8146104b4578163d02641a014610481578163d28ff48f1461044a578163d9d98ce414610421578163deb6cecd146103c6578163e8da278a14610387578163f08a136414610317578163f1537686146102da578163f2fde38b146102aa578163f340470b146101ea575063f6f01b87146101af57600080fd5b346101e65760203660031901126101e65760ff8160209363ffffffff6101d3612158565b1681526005855220541690519015158152f35b5080fd5b919050346102a657806003193601126102a65767ffffffffffffffff9082358281116102a25761021d90369085016122ab565b92909360243591821161029e57610236913691016122ab565b90926102406129ab565b855b81811061024d578680f35b8061026361025e600193858a6128a2565b612356565b61027161025e83878a6128a2565b906001600160a01b038091168a526009602052868a2091166001600160a01b031982541617905501610242565b8580fd5b8480fd5b8280fd5b83346102d75760203660031901126102d7576102d46102c76121c8565b6102cf6129ab565b612804565b80f35b80fd5b5050346101e65760203660031901126101e65763ffffffff816020936001600160a01b036103066121c8565b168152600685522054169051908152f35b83346102d75760603660031901126102d7576103316121c8565b6024359067ffffffffffffffff821682036103825761035b91610352612aae565b60443591612fc1565b60017f9b779b17422d0df92223018b32b4d1fa46e071723d6817e2486d003becc55f005580f35b600080fd5b83346102d75760203660031901126102d7576001600160a01b036103a96121c8565b6103b16129ab565b166001600160a01b0319600a541617600a5580f35b8284346102d75760203660031901126102d7575061041a602092600080526006845263ffffffff8360002054169035600052600b84528260002081600052845267ffffffffffffffff83600020541661259f565b9051908152f35b5050346101e657806003193601126101e65760209061043e6121c8565b5061041a60243561316b565b5050346101e65760203660031901126101e65760ff8160209363ffffffff610470612158565b168152600885522054169051908152f35b8284346102d75760203660031901126102d757506104a56104a06121c8565b6126dd565b60ff8351921682526020820152f35b919050346102a65760209081600319360112610696576104d26121c8565b907ff0c57e16840df040f15088dc2f81fe391c3923bec73e23a9662efc9c229c6a009384549060ff82841c16159167ffffffffffffffff81169485158061068f575b60018097149081610685575b15908161067c575b506106545790628ab75d9167ffffffffffffffff19918588848316178b55610635575b5061055461319f565b61055c61319f565b61056581612804565b61056d61319f565b6001600160a01b036001600160a01b031991168188541617875589805260068852858a20631b0bc2a8908163ffffffff198254161790558a5260078852858a209081541690556008875284892060ff1990600a8282541617905560058852858a2087828254161790558980526002885286868b20918254161790558254161790556105f6578480f35b7fc7f505b2f371ae2175ee4913f4499e1f2633a7b5936321eed1cdaeb6115181d29368ff000000000000000019815416905551908152a1388080808480f35b68ffffffffffffffffff1916680100000000000000011789553861054b565b8285517ff92ee8a9000000000000000000000000000000000000000000000000000000008152fd5b90501538610528565b303b159150610520565b5083610514565b8380fd5b5050346101e657816003193601126101e65780516106b78161220b565b600581526020907f352e302e300000000000000000000000000000000000000000000000000000006020820152825193849260208452825192836020860152825b84811061071657505050828201840152601f01601f19168101030190f35b81810183015188820188015287955082016106f8565b8284346102d757816003193601126102d7575061041a6020926001600160a01b036107556121de565b166000526006845263ffffffff8360002054169035600052600b84528260002081600052845267ffffffffffffffff83600020541661259f565b5050346101e657816003193601126101e6576020906001600160a01b037f9016d09d72d40fdae2fd8ceac6b6234c7706214fd39c1cd1e609a0528c19930054169051908152f35b8284346102d757816003193601126102d7575067ffffffffffffffff610807602093610800612145565b9035612696565b915191168152f35b5050346101e657816003193601126101e657602090517f439148f0bbc682ca079e46d6e2c2f0c1e3b820f1a291b069d8882abf8cf18dd98152f35b5050346101e657816003193601126101e65751908152602090f35b5050346101e657816003193601126101e6576020906001600160a01b03600a54169051908152f35b83346102d757806003193601126102d7576108a66129ab565b60006001600160a01b037f9016d09d72d40fdae2fd8ceac6b6234c7706214fd39c1cd1e609a0528c1993008054906001600160a01b031982169055167f8be0079c531659141344cd1fd0a4f28419497f9722a3daafe3b4186f6b6457e08280a380f35b5050346101e657806003193601126101e65760209061041a6109296121f4565b610931612145565b9061259f565b5050346101e65760203660031901126101e65760209061041a6109586121c8565b61246b565b9050346102a65760803660031901126102a6578035926001600160a01b03938481168091036101e65761098e6121de565b604435906064359667ffffffffffffffff9182891161029e573660238a01121561029e578887013592831161029e57366024848b01011161029e57836109d38261246b565b10610cc157169186519763a9059cbb60e01b8952602098898180610a10868a8d8401602090939291936001600160a01b0360408201951681520152565b03818a895af1908115610cb7578791610c9a575b5015610c58578860249160c489610a3a8661316b565b96808d5196879586947f23e30c8b00000000000000000000000000000000000000000000000000000000865233908601528b828601528960448601528a606486015260a060848601528260a4860152018484013781810183018b9052601f01601f1916810103018189895af18015610c4e578690610c01575b7f439148f0bbc682ca079e46d6e2c2f0c1e3b820f1a291b069d8882abf8cf18dd9915003610bbf5791610aeb610b2794928994612448565b918588518096819582946323b872dd60e01b845230908c85016040919493929460608201956001600160a01b0380921683521660208201520152565b03925af1918215610bb45791610b87575b5015610b4657505160018152f35b82606492519162461bcd60e51b8352820152601960248201527f466c6173684c656e6465723a205265706179206661696c6564000000000000006044820152fd5b610ba79150843d8611610bad575b610b9f818361226d565b810190612430565b38610b38565b503d610b95565b8451903d90823e3d90fd5b6064868989519162461bcd60e51b8352820152601c60248201527f466c6173684c656e6465723a2043616c6c6261636b206661696c6564000000006044820152fd5b508881813d8311610c47575b610c17818361226d565b81010312610382577f439148f0bbc682ca079e46d6e2c2f0c1e3b820f1a291b069d8882abf8cf18dd99051610ab3565b503d610c0d565b88513d88823e3d90fd5b6064878a8a519162461bcd60e51b8352820152601c60248201527f466c6173684c656e6465723a205472616e73666572206661696c6564000000006044820152fd5b610cb191508a3d8c11610bad57610b9f818361226d565b38610a24565b89513d89823e3d90fd5b60848760208a519162461bcd60e51b8352820152602e60248201527f466c6173684c656e6465723a20496e73756666696369656e742066756e64732060448201527f666f7220666c617368206c6f616e0000000000000000000000000000000000006064820152fd5b9050346102a657816003193601126102a65763ffffffff82602094610d4d612145565b93358152600b8652209116600052825267ffffffffffffffff8160002054169051908152f35b5050346101e65760203660031901126101e6576020906001600160a01b03610807610d9c612158565b63ffffffff1660005260076020526001600160a01b036040600020541690565b8284346102d757806003193601126102d757506001600160a01b037f0000000000000000000000000000000000000000000000000000000000000000163003610e2857602090517f360894a13ba1a3210667c828492db98dca3e2076cc3735a920a3ca505d382bbc8152f35b5163703e46dd60e11b8152fd5b919050346102a65760603660031901126102a657610e516121c8565b6001600160a01b0391906024358381169081810361105d578460443593610e76612aae565b169081885260209560028752610e9160ff878b2054166123e5565b8854163303610ff5578315610fb357879392919081610f2c57505082809281925af1610ebb6123b5565b5015610eeb5750505060017f9b779b17422d0df92223018b32b4d1fa46e071723d6817e2486d003becc55f005580f35b60649350519162461bcd60e51b8352820152601460248201527f4661696c656420746f2073656e642045746865720000000000000000000000006044820152fd5b90915085938597610f6696519687958694859363a9059cbb60e01b85528401602090939291936001600160a01b0360408201951681520152565b03925af1918215610fa657610f8493508492610f89575b505061236a565b61035b565b610f9f9250803d10610bad57610b9f818361226d565b3880610f7d565b50505051903d90823e3d90fd5b6064878787519162461bcd60e51b8352820152601660248201527f4e6f2070656e64696e67207769746864726177616c73000000000000000000006044820152fd5b6084878787519162461bcd60e51b8352820152602a60248201527f4f6e6c792065736361706556657269666965722063616e2063616c6c2074686960448201527f732066756e6374696f6e000000000000000000000000000000000000000000006064820152fd5b8680fd5b918091506003193601126102a6576110776121c8565b90602493843567ffffffffffffffff81116101e657366023820112156101e65780850135936110a58561228f565b6110b18551918261226d565b85815260209586820193368a838301011161029e578186928b8a93018737830101526001600160a01b03807f0000000000000000000000000000000000000000000000000000000000000000168030149081156112b8575b506112a9576111166129ab565b8216958551907f52d1902d00000000000000000000000000000000000000000000000000000000825280828a818b5afa9182918793611279575b505061116c5750505050505191634c9c8ce360e01b8352820152fd5b86899689927f360894a13ba1a3210667c828492db98dca3e2076cc3735a920a3ca505d382bbc9081810361124b5750853b156112365780546001600160a01b0319168317905551869392917fbc7cd75a20ee27fd9adebab32041f755214dbc6bffa90cc0225b39da2e5c2d3b8580a28251156112015750506111fd9382915190845af46111f76123b5565b91613223565b5080f35b9350935050503461121157505080f35b7fb398979f000000000000000000000000000000000000000000000000000000008152fd5b508793505191634c9c8ce360e01b8352820152fd5b848a918451917faa1d49a4000000000000000000000000000000000000000000000000000000008352820152fd5b9080929350813d83116112a2575b611291818361226d565b810103126103825751903880611150565b503d611287565b87865163703e46dd60e11b8152fd5b9050817f360894a13ba1a3210667c828492db98dca3e2076cc3735a920a3ca505d382bbc5416141538611109565b5050346101e65760203660031901126101e6578060209267ffffffffffffffff61130e6121f4565b168152600f845220549051908152f35b839150346101e657826003193601126101e6576113396121c8565b906113426121de565b9161134b612aae565b6001600160a01b039283821693848652600e602052868620908216908160005260205286600020549384156113cc57508580978682979852600e6020528082208360005260205260002055156000146113b85750508180809261035b955af16113b26123b5565b5061236a565b610f8494506113c793506130db565b61236a565b606490602089519162461bcd60e51b8352820152601e60248201527f4e6f2070656e64696e67207769746864726177616c20746f20636c61696d00006044820152fd5b919050346102a657806003193601126102a65761142a6121c8565b9063ffffffff80611439612145565b16855260209160108352808620906001600160a01b03918280825416961686146116565760019560018201548952600b8652828920926002956002840154169384600052875267ffffffffffffffff968782600020541691821561161457600398600386015442034281116115ff5762069780911611156115bd575050906114c4848b95949361259f565b92631b0bc2a881036115835750508280926114e795829354165af16113b26123b5565b600d549285600d55836114f8578580f35b7f3fffffffffffffffffffffffffffffffffffffffffffffffffffffffffffffff84168403611570577fd7b6990105719101dabeb77144f2a3385c8033acd3af97e9423a695e81ad1eb59360021b8401935b84811061155657508580f35b80878792558783820155878482015587858201550161154a565b602486601187634e487b7160e01b835252fd5b6115b895506113c794506115b391925063ffffffff1660005260076020526001600160a01b036040600020541690565b6130db565b6114e7565b6064918b91519162461bcd60e51b8352820152601e60248201527f4465706f736974206973206e6f7420796574207265636c61696d61626c6500006044820152fd5b60118d634e487b7160e01b6000525260246000fd5b6064918b91519162461bcd60e51b8352820152601160248201527f4e6f2070656e64696e6720616d6f756e740000000000000000000000000000006044820152fd5b6064878684519162461bcd60e51b8352820152601160248201527f496e76616c6964206465706f7369746f720000000000000000000000000000006044820152fd5b5050346101e6573660031901126102d75761035b6116b46121f4565b6116bc612aae565b60243590612e07565b505060603660031901126101e657906001600160a01b036060926116e76121c8565b926117376044356024356116f9612aae565b611704828289612b53565b9690971690818552600660205263ffffffff8686205416809215156000146117855761172f91612696565b905b866128fd565b92838367ffffffffffffffff80931693848152600f602052205560017f9b779b17422d0df92223018b32b4d1fa46e071723d6817e2486d003becc55f00558251941684526020840152820152f35b50506117903461263a565b90611731565b839150346101e6576117a73661216b565b84959293919590855b818110611a9f57506001600160a01b039081600a5416908551987f06b755f6000000000000000000000000000000000000000000000000000000008a528963ffffffff891693848883015281602460209d8e935afa908115611a95578a91611a68575b508503611a0057885b8281106118d9575050508487987fb6b024ed190b1c1f8da1d5ad2646a7311d56e5bc0fe8cc956a9e7b453f45d20392825191428352820152a1600a5416803b1561029e576118ad948680948651978895869485937f94e6902a00000000000000000000000000000000000000000000000000000000855284016020909392919363ffffffff60408201951681520152565b03925af19081156118d057506118c05750f35b6118c99061223d565b6102d75780f35b513d84823e3d90fd5b808b868c6118f7610d9c846118f16001988b8b6122dc565b01612317565b8c67ffffffffffffffff61191682611910898d8d6122dc565b01612302565b16156119f65761192e61193d91611910888c8c6122dc565b610931866118f1898d8d6122dc565b93611954606061194e888c8c6122dc565b01612356565b92858584169384156000146119a95750505050501661197382826131f8565b15611982575b50505b0161181c565b8c52600e8d52898c20600080528d526119a08a600020918254612448565b90558c80611979565b90856119b99297939495976130db565b156119ca575b50505050505061197c565b600e93169052528a8d20906000528d526119e98a600020918254612448565b90558c80808e8e8a6119bf565b505050505061197c565b6084868b89519162461bcd60e51b8352820152602360248201527f496e76616c696420616363756d756c61746564207769746864726177616c206860448201527f61736800000000000000000000000000000000000000000000000000000000006064820152fd5b90508a81813d8311611a8e575b611a7f818361226d565b8101031261038257518b611813565b503d611a75565b88513d8c823e3d90fd5b9184611ab4611aaf85858c6122dc565b612317565b89602091611ae6606061194e8989611ae0611ad4896118f185858c6122dc565b9961191084848b6122dc565b966122dc565b93611af763ffffffff809316612a59565b64ffffffffff92908316911601818111611bae57926001600160a01b0367ffffffffffffffff611b3b611ba4956001999895611b35611b9899612a59565b16612a92565b16928b5193611b498561220b565b8452168183015289519182611b6183820192836128cf565b0392611b75601f199485810183528261226d565b5190208a5195611b848761220b565b865281860152895193849182019586612328565b0390810183528261226d565b51902092016117b0565b60248c60118b634e487b7160e01b835252fd5b5050346101e65760203660031901126101e65760ff816020936001600160a01b03611bea6121c8565b1681526002855220541690519015158152f35b839150346101e65760603660031901126101e657611c196121c8565b90611c22612145565b916044359160ff83168093036102a257611c3a6129ab565b6001600160a01b03809216928315611ebb5763ffffffff809516928315611e7857611c8990858852611c77602097600689528a8a20541615612a0e565b84885260078752888820541615612a0e565b620186a083111561029e57865163313ce56760e01b815285818481885afa908115611e6e579060ff918891611e41575b50160360ff8111611e2e5760ff169160128311611dec5760607fa0fa9e6f8b5151671d99d8a21fbee478f03ed8c5078386b9716ed66db871ccec91858852600687528888208163ffffffff1982541617905580885260078752888820866001600160a01b0319825416179055600887528888209460ff19958187825416179055600588528989206001878254161790558951918783528883015289820152a18285526002845260ff8686205416611daa5750938394827f2db5c923577787b86e45d0fc2e5d9e9a655c9b0d7802164b4e967544fe40786495526002845260018287209182541617905551908152a180f35b6064908487519162461bcd60e51b8352820152601860248201527f5661756c7420616c7265616479207265676973746572656400000000000000006044820152fd5b6064828689519162461bcd60e51b8352820152601660248201527f5363616c6520666163746f7220746f6f206c61726765000000000000000000006044820152fd5b602486601184634e487b7160e01b835252fd5b611e619150873d8911611e67575b611e59818361226d565b8101906126c4565b89611cb9565b503d611e4f565b88513d89823e3d90fd5b60648360208a519162461bcd60e51b8352820152601860248201527f546f6b656e2049442053686f756c64206e6f74206265203000000000000000006044820152fd5b606482602089519162461bcd60e51b8352820152601d60248201527f546f6b656e20616464726573732053686f756c64206e6f7420626520300000006044820152fd5b919050346102a657611f0f3661216b565b859291865b8281106120b957506001600160a01b039182600a54169086519586927fb0937b5d00000000000000000000000000000000000000000000000000000000845263ffffffff87168a85015283602460209586935afa968715611a95578a97612086575b5086036120455790889594939291865b8181106120055750505050600a541690813b156106965783611fe8968651978895869485937fe2db465700000000000000000000000000000000000000000000000000000000855284016020909392919363ffffffff60408201951681520152565b03925af19081156118d05750611ffc575080f35b6102d49061223d565b83949596975067ffffffffffffffff61202b612026838560019697986122dc565b612302565b168b52600f84528a89812055019089969594939291611f86565b60648883808a519262461bcd60e51b845283015260248201527f496e76616c696420616363756d756c61746564206465706f73697420686173686044820152fd5b9096508281813d83116120b2575b61209e818361226d565b810103126120ae57519538611f76565b8980fd5b503d612094565b9360019061212d61213b8561210d8a8a8860606121056120fd6120e0612026868a876122dc565b956119108660209a6120f78c6118f184848c6122dc565b976122dc565b938d8d6122dc565b0135926128fd565b8a51946121198661220b565b855281850152895192839182019485612328565b03601f19810183528261226d565b5190209401611f14565b6024359063ffffffff8216820361038257565b6004359063ffffffff8216820361038257565b60406003198201126103825760043563ffffffff81168103610382579160243567ffffffffffffffff9283821161038257806023830112156103825781600401359384116103825760248460071b83010111610382576024019190565b600435906001600160a01b038216820361038257565b602435906001600160a01b038216820361038257565b6004359067ffffffffffffffff8216820361038257565b6040810190811067ffffffffffffffff82111761222757604052565b634e487b7160e01b600052604160045260246000fd5b67ffffffffffffffff811161222757604052565b6080810190811067ffffffffffffffff82111761222757604052565b90601f8019910116810190811067ffffffffffffffff82111761222757604052565b67ffffffffffffffff811161222757601f01601f191660200190565b9181601f840112156103825782359167ffffffffffffffff8311610382576020808501948460051b01011161038257565b91908110156122ec5760071b0190565b634e487b7160e01b600052603260045260246000fd5b3567ffffffffffffffff811681036103825790565b3563ffffffff811681036103825790565b90600090825b6002831061233f5750505060400190565b60019082518152602080910192019201919061232e565b356001600160a01b03811681036103825790565b1561237157565b606460405162461bcd60e51b815260206004820152600f60248201527f5472616e73666572206661696c656400000000000000000000000000000000006044820152fd5b3d156123e0573d906123c68261228f565b916123d4604051938461226d565b82523d6000602084013e565b606090565b156123ec57565b606460405162461bcd60e51b815260206004820152601760248201527f5661756c74206973206e6f7420726567697374657265640000000000000000006044820152fd5b90816020910312610382575180151581036103825790565b9190820180921161245557565b634e487b7160e01b600052601160045260246000fd5b60206001600160a01b03916024604051809481937f70a08231000000000000000000000000000000000000000000000000000000008352306004840152165afa9081156124ec576000916124bd575090565b90506020813d6020116124e4575b816124d86020938361226d565b81010312610382575190565b3d91506124cb565b6040513d6000823e3d90fd5b156124ff57565b606460405162461bcd60e51b815260206004820152601460248201527f546f6b656e206e6f7420726567697374657265640000000000000000000000006044820152fd5b1561254a57565b606460405162461bcd60e51b815260206004820152601460248201527f496e76616c6964207363616c6520666163746f720000000000000000000000006044820152fd5b60ff16604d811161245557600a0a90565b9063ffffffff1660009080825260056020526125c160ff6040842054166124f8565b815260086020526125f167ffffffffffffffff60ff604084205416936125ea6012861115612543565b169261258e565b91828102928184041490151715612606575090565b80634e487b7160e01b602492526011600452fd5b8115612624570490565b634e487b7160e01b600052601260045260246000fd5b61269267ffffffffffffffff91631b0bc2a880600052600560205261266660ff604060002054166124f8565b600052600860205261268c60ff604060002054166126876012821115612543565b61258e565b9061261a565b1690565b6126929063ffffffff67ffffffffffffffff931680600052600560205261266660ff604060002054166124f8565b90816020910312610382575160ff811681036103825790565b906001600160a01b03809216916000908382526020906006825260409461270e63ffffffff878620541615156124f8565b83526009825284832054169182156127f45784519163313ce56760e01b83528083600481875afa9283156127ea5782936127c8575b5080600493948751948580927f50d25bcd0000000000000000000000000000000000000000000000000000000082525afa9586156127bd5750819561278a575b5050509190565b909180939550813d83116127b6575b6127a3818361226d565b810103126102d757505191388080612783565b503d612799565b51913d9150823e3d90fd5b600493506127e38291823d8411611e6757611e59818361226d565b9350612743565b86513d84823e3d90fd5b50505090506008906305f5e10090565b6001600160a01b03809116908115612871577f9016d09d72d40fdae2fd8ceac6b6234c7706214fd39c1cd1e609a0528c199300805490836001600160a01b03198316179055167f8be0079c531659141344cd1fd0a4f28419497f9722a3daafe3b4186f6b6457e0600080a3565b60246040517f1e4fbdf700000000000000000000000000000000000000000000000000000000815260006004820152fd5b91908110156122ec5760051b0190565b91909168ffffffffffffffffff8080941691160191821161245557565b90600090825b600283106128e65750505060400190565b6001908251815260208091019201920191906128d5565b60401b6fffffffffffffffff000000000000000068ff00000000000000008216911681036124555763ffffffff6129359216906128b2565b60201b906cffffffffffffffffff0000000068ffffffffff000000008316921682036124555768ffffffffffffffffff9167ffffffffffffffff61297a9216906128b2565b1690604051916129898361220b565b825260208201526040516129a58161212d6020820194856128cf565b51902090565b6001600160a01b037f9016d09d72d40fdae2fd8ceac6b6234c7706214fd39c1cd1e609a0528c199300541633036129de57565b60246040517f118cdaa7000000000000000000000000000000000000000000000000000000008152336004820152fd5b15612a1557565b606460405162461bcd60e51b815260206004820152601860248201527f546f6b656e20616c7265616479207265676973746572656400000000000000006044820152fd5b60201b9068ffffffffff0000000064ff0000000083169216820361245557565b90600167ffffffffffffffff8093160191821161245557565b91909167ffffffffffffffff8080941691160191821161245557565b7f9b779b17422d0df92223018b32b4d1fa46e071723d6817e2486d003becc55f006002815414612ade5760029055565b60046040517f3ee5aeb5000000000000000000000000000000000000000000000000000000008152fd5b15612b0f57565b606460405162461bcd60e51b815260206004820152601160248201527f496e76616c696420737461726b204b65790000000000000000000000000000006044820152fd5b929192612b817f08000000000000110000000000000000000000000000000000000000000000018510612b08565b612b8c841515612b08565b3415612c8157505034612b9e9061263a565b91600092818452600b602052604091828520631b0bc2a89081875260205267ffffffffffffffff908185882054169480612bd88688612a92565b98858152600b602052818120848252602052208367ffffffffffffffff199916898254161790558260045416612c0d90613179565b97600c5490848083169a8b612c2191612a92565b9a612c2b90612a79565b16911617600c55805193838916855260208501528301528216606082015242608082015260a07f429602b012976e07ac9b27b6c1bac9791626550f52721f02a2523c88808ec7a091a1612c7d91612a92565b9190565b6001600160a01b0390939193169260009380855260209060028252604090612cae60ff83892054166123e5565b81516323b872dd60e01b81523360048201523060248201526044810185905283816064818b865af1908115612dfd5790612cee918991612de0575061236a565b8652600682528086205463ffffffff169283612d0991612696565b92848752600b8352818720818852835267ffffffffffffffff918281892054169581612d358789612a92565b99828152600b87528181208582528752208467ffffffffffffffff199a168a825416179055886004548581169182911617600455612d7290613179565b98600c5490858083169b8c612d8691612a92565b9b612d9090612a79565b16911617600c55815194848a1686528501528301528216606082015242608082015260a07f429602b012976e07ac9b27b6c1bac9791626550f52721f02a2523c88808ec7a091a1612c7d91612a92565b612df79150853d8711610bad57610b9f818361226d565b386113b2565b83513d8a823e3d90fd5b907f0800000000000011000000000000000000000000000000000000000000000001811015612f7d573315612f39577f54cdd369e4e8a8515e52ca72ec816c2101831ad1f18bf44102ed171459c9b4f8546000828152600b6020908152604080832063ffffffff948516808552908352818420549095949193929167ffffffffffffffff91821615612f2f577ffe5eeb45c725aa6c7460c0a9b5891c86aab2691e00ef4e9e24376ec43264561b97606097600392875194612ec786612251565b338652868601908a82528987019384528b870194428652168852601087526001600160a01b038989209651166001600160a01b03198754161786555160018601556002850191511663ffffffff198254161790555191015582519384528301524290820152a1565b5050505050505050565b606460405162461bcd60e51b815260206004820152601560248201527f6d73672e73656e6465722063616e2774206265203000000000000000000000006044820152fd5b606460405162461bcd60e51b815260206004820152601160248201527f496e76616c696420737461726b206b65790000000000000000000000000000006044820152fd5b917f0800000000000011000000000000000000000000000000000000000000000001811015612f7d573315612f39576001600160a01b038093169260009380855260206006815263ffffffff9560409387858320541696868352600b8452858320888452845267ffffffffffffffff97888785205416156130cf577ffe5eeb45c725aa6c7460c0a9b5891c86aab2691e00ef4e9e24376ec43264561b996060996003948980519761307189612251565b338952898901938d8552828a019687528e8a019742895216815260108a52209651166001600160a01b03198754161786555160018601556002850191511663ffffffff198254161790555191015582519384528301524290820152a1565b50505050505050505050565b6001600160a01b03169182600052600260205260ff60406000205416156131635780156131635760405163a9059cbb60e01b81526001600160a01b03929092166004830152602482015290602090829060449082906000905af19081156124ec57600091613147575090565b613160915060203d602011610bad57610b9f818361226d565b90565b505050600190565b156001171561245557600090565b60201b906bffffffffffffffff0000000067ffffffff0000000083169216820361245557565b60ff7ff0c57e16840df040f15088dc2f81fe391c3923bec73e23a9662efc9c229c6a005460401c16156131ce57565b60046040517fd7e6bcf8000000000000000000000000000000000000000000000000000000008152fd5b811561321c5760008080936001600160a01b038294165af16132186123b5565b5090565b5050600190565b90613262575080511561323857805190602001fd5b60046040517f1425ea42000000000000000000000000000000000000000000000000000000008152fd5b815115806132ad575b613273575090565b6024906001600160a01b03604051917f9996b315000000000000000000000000000000000000000000000000000000008352166004820152fd5b50803b1561326b56fea2646970667358221220a63e8b8c0f0c4a00ddd2b5a7ad617a35b241565ac4541e387c85f195005dcb0164736f6c63430008160033",
  "linkReferences": {},
  "deployedLinkReferences": {}
}