{
  "abi": [
    {
      "inputs": [
        {
          "internalType": "address",
          "name": "_admin",
          "type": "address"
        },
        {
          "internalType": "address",
          "name": "_L1MessageRelay",
          "type": "address"
        }
      ],
      "stateMutability": "nonpayable",
      "type": "constructor"
    },
    {
      "anonymous": false,
      "inputs": [
        {
          "indexed": false,
          "internalType": "uint256",
          "name": "pubKey",
          "type": "uint256"
        },
        {
          "indexed": false,
          "internalType": "address",
          "name": "tokenAddress",
          "type": "address"
        },
        {
          "indexed": false,
          "internalType": "uint256",
          "name": "timestamp",
          "type": "uint256"
        }
      ],
      "name": "DepositCancelEvent",
      "type": "event"
    },
    {
      "anonymous": false,
      "inputs": [
        {
          "indexed": false,
          "internalType": "uint64",
          "name": "depositId",
          "type": "uint64"
        },
        {
          "indexed": false,
          "internalType": "uint256",
          "name": "pubKey",
          "type": "uint256"
        },
        {
          "indexed": false,
          "internalType": "uint32",
          "name": "tokenId",
          "type": "uint32"
        },
        {
          "indexed": false,
          "internalType": "uint64",
          "name": "depositAmountScaled",
          "type": "uint64"
        },
        {
          "indexed": false,
          "internalType": "uint256",
          "name": "timestamp",
          "type": "uint256"
        }
      ],
      "name": "DepositEvent",
      "type": "event"
    },
    {
      "anonymous": false,
      "inputs": [
        {
          "indexed": false,
          "internalType": "address",
          "name": "tokenAddress",
          "type": "address"
        },
        {
          "indexed": false,
          "internalType": "uint32",
          "name": "tokenId",
          "type": "uint32"
        },
        {
          "indexed": false,
          "internalType": "uint8",
          "name": "scaleFactor",
          "type": "uint8"
        }
      ],
      "name": "NewTokenRegisteredEvent",
      "type": "event"
    },
    {
      "anonymous": false,
      "inputs": [
        {
          "indexed": false,
          "internalType": "uint256",
          "name": "timestamp",
          "type": "uint256"
        },
        {
          "indexed": false,
          "internalType": "uint64",
          "name": "txBatchId",
          "type": "uint64"
        }
      ],
      "name": "StoredNewWithdrawalsEvent",
      "type": "event"
    },
    {
      "anonymous": false,
      "inputs": [
        {
          "indexed": false,
          "internalType": "uint256",
          "name": "timestamp",
          "type": "uint256"
        },
        {
          "indexed": false,
          "internalType": "uint64",
          "name": "txBatchId",
          "type": "uint64"
        }
      ],
      "name": "UpdatedPendingDepositsEvent",
      "type": "event"
    },
    {
      "anonymous": false,
      "inputs": [
        {
          "indexed": false,
          "internalType": "address",
          "name": "vaultAddress",
          "type": "address"
        },
        {
          "indexed": false,
          "internalType": "address",
          "name": "tokenAddress",
          "type": "address"
        }
      ],
      "name": "VaultRegisteredEvent",
      "type": "event"
    },
    {
      "anonymous": false,
      "inputs": [
        {
          "indexed": false,
          "internalType": "address",
          "name": "withdrawer",
          "type": "address"
        },
        {
          "indexed": false,
          "internalType": "address",
          "name": "tokenAddress",
          "type": "address"
        },
        {
          "indexed": false,
          "internalType": "uint256",
          "name": "withdrawalAmount",
          "type": "uint256"
        },
        {
          "indexed": false,
          "internalType": "uint256",
          "name": "timestamp",
          "type": "uint256"
        }
      ],
      "name": "WithdrawalEvent",
      "type": "event"
    },
    {
      "anonymous": false,
      "inputs": [
        {
          "indexed": false,
          "internalType": "address",
          "name": "mmOwner",
          "type": "address"
        },
        {
          "indexed": false,
          "internalType": "uint32",
          "name": "syntheticAsset",
          "type": "uint32"
        },
        {
          "indexed": false,
          "internalType": "uint256",
          "name": "positionAddress",
          "type": "uint256"
        },
        {
          "indexed": false,
          "internalType": "uint64",
          "name": "maxVlpSupply",
          "type": "uint64"
        },
        {
          "indexed": false,
          "internalType": "uint32",
          "name": "vlpTokenId",
          "type": "uint32"
        }
      ],
      "name": "newPerpMMRegistration",
      "type": "event"
    },
    {
      "anonymous": false,
      "inputs": [
        {
          "indexed": false,
          "internalType": "address",
          "name": "mmOwner",
          "type": "address"
        },
        {
          "indexed": false,
          "internalType": "uint32",
          "name": "baseAsset",
          "type": "uint32"
        },
        {
          "indexed": false,
          "internalType": "uint32",
          "name": "quoteAsset",
          "type": "uint32"
        },
        {
          "indexed": false,
          "internalType": "uint256",
          "name": "tabAddress",
          "type": "uint256"
        },
        {
          "indexed": false,
          "internalType": "uint64",
          "name": "maxVlpSupply",
          "type": "uint64"
        },
        {
          "indexed": false,
          "internalType": "uint32",
          "name": "vlpTokenId",
          "type": "uint32"
        }
      ],
      "name": "newSpotMMRegistration",
      "type": "event"
    },
    {
      "inputs": [],
      "name": "CALLBACK_SUCCESS",
      "outputs": [
        {
          "internalType": "bytes32",
          "name": "",
          "type": "bytes32"
        }
      ],
      "stateMutability": "view",
      "type": "function"
    },
    {
      "inputs": [],
      "name": "ETH_ID",
      "outputs": [
        {
          "internalType": "uint32",
          "name": "",
          "type": "uint32"
        }
      ],
      "stateMutability": "view",
      "type": "function"
    },
    {
      "inputs": [
        {
          "internalType": "address",
          "name": "tokenAddress",
          "type": "address"
        }
      ],
      "name": "addNewAssetVault",
      "outputs": [],
      "stateMutability": "nonpayable",
      "type": "function"
    },
    {
      "inputs": [
        {
          "internalType": "bool",
          "name": "isPerp",
          "type": "bool"
        },
        {
          "internalType": "address",
          "name": "mmOwner",
          "type": "address"
        },
        {
          "internalType": "uint256",
          "name": "tabPosAddress",
          "type": "uint256"
        }
      ],
      "name": "approveMMRegistration",
      "outputs": [],
      "stateMutability": "nonpayable",
      "type": "function"
    },
    {
      "inputs": [],
      "name": "feePercent",
      "outputs": [
        {
          "internalType": "uint256",
          "name": "",
          "type": "uint256"
        }
      ],
      "stateMutability": "view",
      "type": "function"
    },
    {
      "inputs": [
        {
          "internalType": "address",
          "name": "token",
          "type": "address"
        },
        {
          "internalType": "uint256",
          "name": "amount",
          "type": "uint256"
        }
      ],
      "name": "flashFee",
      "outputs": [
        {
          "internalType": "uint256",
          "name": "",
          "type": "uint256"
        }
      ],
      "stateMutability": "pure",
      "type": "function"
    },
    {
      "inputs": [
        {
          "internalType": "contract IERC3156FlashBorrower",
          "name": "receiver",
          "type": "address"
        },
        {
          "internalType": "address",
          "name": "token",
          "type": "address"
        },
        {
          "internalType": "uint256",
          "name": "amount",
          "type": "uint256"
        },
        {
          "internalType": "bytes",
          "name": "data",
          "type": "bytes"
        }
      ],
      "name": "flashLoan",
      "outputs": [
        {
          "internalType": "bool",
          "name": "",
          "type": "bool"
        }
      ],
      "stateMutability": "nonpayable",
      "type": "function"
    },
    {
      "inputs": [
        {
          "internalType": "address",
          "name": "tokenAddress",
          "type": "address"
        }
      ],
      "name": "getAssetVaultAddress",
      "outputs": [
        {
          "internalType": "address",
          "name": "",
          "type": "address"
        }
      ],
      "stateMutability": "view",
      "type": "function"
    },
    {
      "inputs": [],
      "name": "getETHVaultAddress",
      "outputs": [
        {
          "internalType": "address",
          "name": "",
          "type": "address"
        }
      ],
      "stateMutability": "view",
      "type": "function"
    },
    {
      "inputs": [
        {
          "internalType": "address",
          "name": "depositor",
          "type": "address"
        }
      ],
      "name": "getETHWithdrawableAmount",
      "outputs": [
        {
          "internalType": "uint256",
          "name": "",
          "type": "uint256"
        }
      ],
      "stateMutability": "view",
      "type": "function"
    },
    {
      "inputs": [
        {
          "internalType": "uint256",
          "name": "starkKey",
          "type": "uint256"
        },
        {
          "internalType": "address",
          "name": "tokenAddress",
          "type": "address"
        }
      ],
      "name": "getPendingDepositAmount",
      "outputs": [
        {
          "internalType": "uint256",
          "name": "",
          "type": "uint256"
        }
      ],
      "stateMutability": "view",
      "type": "function"
    },
    {
      "inputs": [
        {
          "internalType": "uint256",
          "name": "starkKey",
          "type": "uint256"
        }
      ],
      "name": "getPendingETHDepositAmount",
      "outputs": [
        {
          "internalType": "uint256",
          "name": "",
          "type": "uint256"
        }
      ],
      "stateMutability": "view",
      "type": "function"
    },
    {
      "inputs": [
        {
          "internalType": "uint32",
          "name": "tokenId",
          "type": "uint32"
        }
      ],
      "name": "getScaleFactor",
      "outputs": [
        {
          "internalType": "uint8",
          "name": "",
          "type": "uint8"
        }
      ],
      "stateMutability": "view",
      "type": "function"
    },
    {
      "inputs": [
        {
          "internalType": "uint32",
          "name": "tokenId",
          "type": "uint32"
        }
      ],
      "name": "getTokenAddress",
      "outputs": [
        {
          "internalType": "address",
          "name": "",
          "type": "address"
        }
      ],
      "stateMutability": "view",
      "type": "function"
    },
    {
      "inputs": [
        {
          "internalType": "address",
          "name": "tokenAddress",
          "type": "address"
        }
      ],
      "name": "getTokenId",
      "outputs": [
        {
          "internalType": "uint32",
          "name": "",
          "type": "uint32"
        }
      ],
      "stateMutability": "view",
      "type": "function"
    },
    {
      "inputs": [
        {
          "internalType": "address",
          "name": "depositor",
          "type": "address"
        },
        {
          "internalType": "address",
          "name": "tokenAddress",
          "type": "address"
        }
      ],
      "name": "getWithdrawableAmount",
      "outputs": [
        {
          "internalType": "uint256",
          "name": "",
          "type": "uint256"
        }
      ],
      "stateMutability": "view",
      "type": "function"
    },
    {
      "inputs": [
        {
          "internalType": "uint256",
          "name": "mmAddress",
          "type": "uint256"
        }
      ],
      "name": "isAddressRegistered",
      "outputs": [
        {
          "internalType": "bool",
          "name": "",
          "type": "bool"
        }
      ],
      "stateMutability": "view",
      "type": "function"
    },
    {
      "inputs": [
        {
          "internalType": "address",
          "name": "tokenAddress",
          "type": "address"
        },
        {
          "internalType": "uint256",
          "name": "amount",
          "type": "uint256"
        },
        {
          "internalType": "uint256",
          "name": "starkKey",
          "type": "uint256"
        }
      ],
      "name": "makeDeposit",
      "outputs": [
        {
          "internalType": "uint64",
          "name": "newAmountDeposited",
          "type": "uint64"
        }
      ],
      "stateMutability": "payable",
      "type": "function"
    },
    {
      "inputs": [
        {
          "internalType": "address",
          "name": "_recipient",
          "type": "address"
        },
        {
          "internalType": "address",
          "name": "_approvedProxy",
          "type": "address"
        },
        {
          "internalType": "uint256",
          "name": "_proxyFee",
          "type": "uint256"
        },
        {
          "internalType": "uint8",
          "name": "v",
          "type": "uint8"
        },
        {
          "internalType": "bytes32",
          "name": "r",
          "type": "bytes32"
        },
        {
          "internalType": "bytes32",
          "name": "s",
          "type": "bytes32"
        }
      ],
      "name": "makeETHWithdrawal",
      "outputs": [],
      "stateMutability": "nonpayable",
      "type": "function"
    },
    {
      "inputs": [
        {
          "internalType": "address",
          "name": "tokenAddress",
          "type": "address"
        },
        {
          "internalType": "address",
          "name": "_recipient",
          "type": "address"
        },
        {
          "internalType": "address",
          "name": "_approvedProxy",
          "type": "address"
        },
        {
          "internalType": "uint256",
          "name": "_proxyFee",
          "type": "uint256"
        },
        {
          "internalType": "uint8",
          "name": "v",
          "type": "uint8"
        },
        {
          "internalType": "bytes32",
          "name": "r",
          "type": "bytes32"
        },
        {
          "internalType": "bytes32",
          "name": "s",
          "type": "bytes32"
        }
      ],
      "name": "makeWithdrawal",
      "outputs": [],
      "stateMutability": "nonpayable",
      "type": "function"
    },
    {
      "inputs": [
        {
          "internalType": "address",
          "name": "token",
          "type": "address"
        }
      ],
      "name": "maxFlashLoan",
      "outputs": [
        {
          "internalType": "uint256",
          "name": "",
          "type": "uint256"
        }
      ],
      "stateMutability": "view",
      "type": "function"
    },
    {
      "inputs": [
        {
          "internalType": "uint32[]",
          "name": "baseAssets",
          "type": "uint32[]"
        },
        {
          "internalType": "uint32[]",
          "name": "quoteAssets",
          "type": "uint32[]"
        },
        {
          "internalType": "uint32[]",
          "name": "syntheticAssets",
          "type": "uint32[]"
        }
      ],
      "name": "registerNewMarkets",
      "outputs": [],
      "stateMutability": "nonpayable",
      "type": "function"
    },
    {
      "inputs": [
        {
          "internalType": "uint32",
          "name": "syntheticAsset",
          "type": "uint32"
        },
        {
          "internalType": "uint256",
          "name": "positionAddress",
          "type": "uint256"
        },
        {
          "internalType": "uint64",
          "name": "maxVlpSupply",
          "type": "uint64"
        }
      ],
      "name": "registerPerpMarketMaker",
      "outputs": [],
      "stateMutability": "nonpayable",
      "type": "function"
    },
    {
      "inputs": [
        {
          "internalType": "uint32",
          "name": "baseAsset",
          "type": "uint32"
        },
        {
          "internalType": "uint32",
          "name": "quoteAsset",
          "type": "uint32"
        },
        {
          "internalType": "uint256",
          "name": "tabAddress",
          "type": "uint256"
        },
        {
          "internalType": "uint64",
          "name": "maxVlpSupply",
          "type": "uint64"
        }
      ],
      "name": "registerSpotMarketMaker",
      "outputs": [],
      "stateMutability": "nonpayable",
      "type": "function"
    },
    {
      "inputs": [
        {
          "internalType": "address",
          "name": "tokenAddress",
          "type": "address"
        },
        {
          "internalType": "uint32",
          "name": "tokenId",
          "type": "uint32"
        },
        {
          "internalType": "uint8",
          "name": "offchainDecimals",
          "type": "uint8"
        }
      ],
      "name": "registerToken",
      "outputs": [],
      "stateMutability": "nonpayable",
      "type": "function"
    },
    {
      "inputs": [
        {
          "internalType": "uint64",
          "name": "txBatchId",
          "type": "uint64"
        },
        {
          "components": [
            {
              "internalType": "uint32",
              "name": "chainId",
              "type": "uint32"
            },
            {
              "internalType": "uint256",
              "name": "depositHash",
              "type": "uint256"
            },
            {
              "internalType": "uint256",
              "name": "withdrawalHash",
              "type": "uint256"
            }
          ],
          "internalType": "struct AccumulatedHashesOutput[]",
          "name": "accumulatedHashOutputs",
          "type": "tuple[]"
        }
      ],
      "name": "relayAccumulatedHashes",
      "outputs": [],
      "stateMutability": "nonpayable",
      "type": "function"
    },
    {
      "inputs": [
        {
          "internalType": "uint64",
          "name": "",
          "type": "uint64"
        }
      ],
      "name": "s_accumulatedHashesRelayed",
      "outputs": [
        {
          "internalType": "bool",
          "name": "",
          "type": "bool"
        }
      ],
      "stateMutability": "view",
      "type": "function"
    },
    {
      "inputs": [
        {
          "internalType": "address",
          "name": "",
          "type": "address"
        }
      ],
      "name": "s_address2PubKey",
      "outputs": [
        {
          "internalType": "uint256",
          "name": "",
          "type": "uint256"
        }
      ],
      "stateMutability": "view",
      "type": "function"
    },
    {
      "inputs": [
        {
          "internalType": "address",
          "name": "",
          "type": "address"
        },
        {
          "internalType": "uint256",
          "name": "",
          "type": "uint256"
        }
      ],
      "name": "s_approvedPerpMMs",
      "outputs": [
        {
          "internalType": "bool",
          "name": "",
          "type": "bool"
        }
      ],
      "stateMutability": "view",
      "type": "function"
    },
    {
      "inputs": [
        {
          "internalType": "address",
          "name": "",
          "type": "address"
        },
        {
          "internalType": "uint256",
          "name": "",
          "type": "uint256"
        }
      ],
      "name": "s_approvedSpotMMs",
      "outputs": [
        {
          "internalType": "bool",
          "name": "",
          "type": "bool"
        }
      ],
      "stateMutability": "view",
      "type": "function"
    },
    {
      "inputs": [
        {
          "internalType": "uint256",
          "name": "",
          "type": "uint256"
        }
      ],
      "name": "s_depositCencelations",
      "outputs": [
        {
          "internalType": "address",
          "name": "depositor",
          "type": "address"
        },
        {
          "internalType": "uint256",
          "name": "pubKey",
          "type": "uint256"
        },
        {
          "internalType": "uint32",
          "name": "tokenId",
          "type": "uint32"
        }
      ],
      "stateMutability": "view",
      "type": "function"
    },
    {
      "inputs": [
        {
          "internalType": "uint256",
          "name": "",
          "type": "uint256"
        },
        {
          "internalType": "uint32",
          "name": "",
          "type": "uint32"
        }
      ],
      "name": "s_pendingDeposits",
      "outputs": [
        {
          "internalType": "uint64",
          "name": "",
          "type": "uint64"
        }
      ],
      "stateMutability": "view",
      "type": "function"
    },
    {
      "inputs": [],
      "name": "s_pendingPerpMMCount",
      "outputs": [
        {
          "internalType": "uint32",
          "name": "",
          "type": "uint32"
        }
      ],
      "stateMutability": "view",
      "type": "function"
    },
    {
      "inputs": [
        {
          "internalType": "address",
          "name": "",
          "type": "address"
        },
        {
          "internalType": "address",
          "name": "",
          "type": "address"
        }
      ],
      "name": "s_pendingRefunds",
      "outputs": [
        {
          "internalType": "uint256",
          "name": "",
          "type": "uint256"
        }
      ],
      "stateMutability": "view",
      "type": "function"
    },
    {
      "inputs": [],
      "name": "s_pendingSpotMMCount",
      "outputs": [
        {
          "internalType": "uint32",
          "name": "",
          "type": "uint32"
        }
      ],
      "stateMutability": "view",
      "type": "function"
    },
    {
      "inputs": [
        {
          "internalType": "uint256",
          "name": "",
          "type": "uint256"
        }
      ],
      "name": "s_perpRegistrations",
      "outputs": [
        {
          "internalType": "address",
          "name": "mmOwner",
          "type": "address"
        },
        {
          "internalType": "uint32",
          "name": "syntheticAsset",
          "type": "uint32"
        },
        {
          "internalType": "uint256",
          "name": "positionAddress",
          "type": "uint256"
        },
        {
          "internalType": "uint64",
          "name": "maxVlpSupply",
          "type": "uint64"
        },
        {
          "internalType": "uint32",
          "name": "vlpTokenId",
          "type": "uint32"
        },
        {
          "internalType": "bool",
          "name": "isRegistered",
          "type": "bool"
        }
      ],
      "stateMutability": "view",
      "type": "function"
    },
    {
      "inputs": [
        {
          "internalType": "uint32",
          "name": "",
          "type": "uint32"
        },
        {
          "internalType": "uint32",
          "name": "",
          "type": "uint32"
        }
      ],
      "name": "s_spotMarkets",
      "outputs": [
        {
          "internalType": "bool",
          "name": "",
          "type": "bool"
        }
      ],
      "stateMutability": "view",
      "type": "function"
    },
    {
      "inputs": [
        {
          "internalType": "uint256",
          "name": "",
          "type": "uint256"
        }
      ],
      "name": "s_spotRegistrations",
      "outputs": [
        {
          "internalType": "address",
          "name": "mmOwner",
          "type": "address"
        },
        {
          "internalType": "uint32",
          "name": "baseAsset",
          "type": "uint32"
        },
        {
          "internalType": "uint32",
          "name": "quoteAsset",
          "type": "uint32"
        },
        {
          "internalType": "uint256",
          "name": "tabAddress",
          "type": "uint256"
        },
        {
          "internalType": "uint64",
          "name": "maxVlpSupply",
          "type": "uint64"
        },
        {
          "internalType": "uint32",
          "name": "vlpTokenId",
          "type": "uint32"
        },
        {
          "internalType": "bool",
          "name": "isRegistered",
          "type": "bool"
        }
      ],
      "stateMutability": "view",
      "type": "function"
    },
    {
      "inputs": [
        {
          "internalType": "address",
          "name": "",
          "type": "address"
        }
      ],
      "name": "s_tokenAddress2Id",
      "outputs": [
        {
          "internalType": "uint32",
          "name": "",
          "type": "uint32"
        }
      ],
      "stateMutability": "view",
      "type": "function"
    },
    {
      "inputs": [
        {
          "internalType": "uint32",
          "name": "",
          "type": "uint32"
        }
      ],
      "name": "s_tokenId2Address",
      "outputs": [
        {
          "internalType": "address",
          "name": "",
          "type": "address"
        }
      ],
      "stateMutability": "view",
      "type": "function"
    },
    {
      "inputs": [
        {
          "internalType": "uint32",
          "name": "",
          "type": "uint32"
        }
      ],
      "name": "s_tokenId2ScaleFactor",
      "outputs": [
        {
          "internalType": "uint8",
          "name": "",
          "type": "uint8"
        }
      ],
      "stateMutability": "view",
      "type": "function"
    },
    {
      "inputs": [
        {
          "internalType": "uint64",
          "name": "",
          "type": "uint64"
        }
      ],
      "name": "s_txBatchId2StateRoot",
      "outputs": [
        {
          "internalType": "uint256",
          "name": "",
          "type": "uint256"
        }
      ],
      "stateMutability": "view",
      "type": "function"
    },
    {
      "inputs": [
        {
          "internalType": "uint64",
          "name": "",
          "type": "uint64"
        }
      ],
      "name": "s_txBatchId2Timestamp",
      "outputs": [
        {
          "internalType": "uint256",
          "name": "",
          "type": "uint256"
        }
      ],
      "stateMutability": "view",
      "type": "function"
    },
    {
      "inputs": [
        {
          "internalType": "address",
          "name": "tokenAddress",
          "type": "address"
        },
        {
          "internalType": "uint256",
          "name": "starkKey",
          "type": "uint256"
        }
      ],
      "name": "startCancelDeposit",
      "outputs": [],
      "stateMutability": "nonpayable",
      "type": "function"
    },
    {
      "inputs": [
        {
          "internalType": "uint256",
          "name": "starkKey",
          "type": "uint256"
        }
      ],
      "name": "startCancelETHDeposit",
      "outputs": [],
      "stateMutability": "nonpayable",
      "type": "function"
    },
    {
      "inputs": [
        {
          "components": [
            {
              "internalType": "uint256",
              "name": "batchedRegistrationInfo",
              "type": "uint256"
            },
            {
              "internalType": "uint256",
              "name": "mmAddress",
              "type": "uint256"
            }
          ],
          "internalType": "struct MMRegistrationOutput[]",
          "name": "registrations",
          "type": "tuple[]"
        },
        {
          "internalType": "uint64",
          "name": "txBatchId",
          "type": "uint64"
        }
      ],
      "name": "updatePendingRegistrations",
      "outputs": [],
      "stateMutability": "nonpayable",
      "type": "function"
    },
    {
      "inputs": [
        {
          "internalType": "uint256[]",
          "name": "programOutput",
          "type": "uint256[]"
        }
      ],
      "name": "updateStateAfterTxBatch",
      "outputs": [],
      "stateMutability": "nonpayable",
      "type": "function"
    },
    {
      "stateMutability": "payable",
      "type": "receive"
    }
  ],
  "bytecode": {
    "object": "0x608034620001915762005700906001600160401b0390601f38849003908101601f19168201908382118383101762000196578083916040968794855283398101031262000191576200005181620001ac565b90620000616020809201620001ac565b906000928380528382528584209361d43163ffffffff199581878254161790558152600183528681209560018060a01b03199687815416905560028452878220600960ff1982541617905587519061044d80830191838310908311176200017d5785918391620052b3833930815203019082f092831562000171577f056b03fb25a6b461493d8d902f42874dde8b8422fd27f7869e70e61132bdcd2f916013899260018060a01b0398898098168b6003541617600355628ab75d60018060801b0319600854161760085580600e5416600e556010541660105560018060401b0319601254166012558280525220551683601654161760165516906017541617601755516150f19081620001c28239f35b508651903d90823e3d90fd5b634e487b7160e01b84526041600452602484fd5b600080fd5b634e487b7160e01b600052604160045260246000fd5b51906001600160a01b0382168203620001915756fe608080604052600436101562000029575b5036156200001d57600080fd5b6200002762003689565b005b60003560e01c90816305560c791462002d0257508063091d46a91462002cc45780630ca555861462002c995780630e05cba6146200298f578063128bd6bf14620005db5780631367fa84146200294c5780631dffcf6f14620028b457806320fd1f1b14620028765780632440fdc2146200283a57806324e7cfa514620027e95780632f681722146200276b57806342dcde74146200271157806343d105a714620026b457806346c58227146200260d578063543d7a1914620025c957806357be454414620025765780635cffe9de14620021ce5780635f74a2da1462000b89578063613255ab14620021a5578063624c5e57146200214e57806365a6fada14620020f15780637078fd5814620020615780637c504b35146200203b5780637e3c638a1462001fea5780637fd6f15c1462001fcc57806381fa1c051462001f915780638237e5381462001f5457806390b785311462001da457806399bf59641462001d3a578063af694ca71462001cf7578063af959edd1462001a34578063b1a75c7214620018b0578063b227d7571462001872578063cd4ca7fe146200184c578063d236c2471462000bc7578063d28ff48f1462000b89578063d9d98ce41462000b5c578063deb6cecd1462000afc578063e253cc871462000ad5578063e625a8ea1462000ab6578063e7273eeb1462000912578063eba3af2914620008b1578063edc27769146200061f578063f153768614620005db578063f3912a7b1462000552578063fa6503b614620003f55763ff5a1f32146200026b573862000010565b34620003f0576040366003190112620003f0576200028862002fd1565b6024356001600160401b03808211620003f05736602383011215620003f057816004013592620002b884620030e7565b93620002c86040519586620030c5565b8085526020938486016024606080940283010191368311620003f057602401905b828210620003aa57505050501690816000526015815260ff604060002054166200036d5760005b83518110156200035257806200032b6200034c9286620031ca565b50620003388186620031ca565b50620003458186620031ca565b50620031ba565b62000310565b5060009182526015905260409020805460ff19166001179055005b6064906040519062461bcd60e51b82526004820152601660248201527512185cda195cc8105b1c9958591e4814995b185e595960521b6044820152fd5b8382360312620003f057868491604051620003c58162003079565b620003d08562002fbf565b8152828501358382015260408501356040820152815201910190620002e9565b600080fd5b34620003f0576060366003190112620003f0576001600160401b03600435818111620003f0576200042b903690600401620030ff565b90602435818111620003f05762000447903690600401620030ff565b90604435908111620003f05762000463903690600401620030ff565b9082518151036200051d5760005b8351811015620004d357620004cd9063ffffffff80620004928388620031ca565b511690620004a18386620031ca565b5116906000526020600c8152604060002091600052526040600020600160ff19825416179055620031ba565b62000471565b8260005b815181101562000027578063ffffffff620004f7620005179385620031ca565b5116600052600d6020526040600020600160ff19825416179055620031ba565b620004d7565b60405162461bcd60e51b815260206004820152600d60248201526c125b9d985b1a59081a5b9c1d5d609a1b6044820152606490fd5b34620003f0576020366003190112620003f057600435600052600f60205260e0604060002060ff81549163ffffffff6002600183015492015491816040519560018060a01b0381168752818160a01c16602088015260c01c16604086015260608501526001600160401b03821660808501528160401c1660a084015260601c16151560c0820152f35b34620003f0576020366003190112620003f0576001600160a01b036200060062002f69565b166000526000602052602063ffffffff60406000205416604051908152f35b34620003f0576060366003190112620003f0576200063c62002fab565b6044356001600160401b0381168103620003f05733600052600b602052604060002060243560005260205260ff6040600020541615620008565763ffffffff8216600052600d60205260ff60406000205416156200081157816001600160401b0360a09263ffffffff7f15a96e51431306379f6403f3aff2799b99f92e3e6e2a474c21bb6cbc97d9da7995166000526011602052620006e5600160406000200154151562003e98565b620007e4604051620006f7816200305d565b33815263ffffffff85166020820152602435604082015283831660608201526342e576f76080820152858101600081526024356000526011602052620007c963ffffffff6080600260406000206001808d1b038751166001600160601b038d1b8254161781556200078a84602089015116829081549063ffffffff60a01b9060a01b169063ffffffff60a01b1916179055565b604087015160018201550194886060820151168919875416178655015116839063ffffffff60401b82549160401b169063ffffffff60401b1916179055565b51815460ff60601b191690151560601b60ff60601b16179055565b63ffffffff6040519333855216602084015260243560408401521660608201526342e576f76080820152a1005b60405162461bcd60e51b815260206004820152601a60248201527f50657270206d61726b657420646f6573206e6f742065786973740000000000006044820152606490fd5b60405162461bcd60e51b815260206004820152602d60248201527f4f6e6c7920617070726f7665642070657270206d61726b6574206d616b65727360448201526c1031b0b7103932b3b4b9ba32b960991b6064820152608490fd5b34620003f05760e0366003190112620003f057620008ce62002f69565b620008d862002f80565b604435906001600160a01b0382168203620003f05760843560ff81168103620003f057620000279360c4359360a435936064359262003eda565b34620003f057602080600319360112620003f057600435600167080000000000001160c01b0181101562000a7d57331562000a4057600080526000825263ffffffff908160406000205416604051936200096c8562003079565b3385528085019183835260408601908152600954600160401b81101562000a2a578060016200099f920160095562002fe8565b95909562000a145760026060966000957ffe5eeb45c725aa6c7460c0a9b5891c86aab2691e00ef4e9e24376ec43264561b9960018060a01b039051166001600160601b0360a01b8354161782555160018201550191511663ffffffff19825416179055604051928352820152426040820152a1005b634e487b7160e01b600052600060045260246000fd5b634e487b7160e01b600052604160045260246000fd5b60405162461bcd60e51b815260048101839052601560248201527406d73672e73656e6465722063616e2774206265203605c1b6044820152606490fd5b60405162461bcd60e51b8152600481018390526011602482015270496e76616c696420737461726b206b657960781b6044820152606490fd5b34620003f0576000366003190112620003f057602060405161d4318152f35b34620003f0576020366003190112620003f0576200002762000af662002f69565b62004376565b34620003f0576020366003190112620003f057600080526000602052602062000b5463ffffffff604060002054166004356000526005835260406000208160005283526001600160401b0360406000205416620035d0565b604051908152f35b34620003f0576040366003190112620003f05762000b7962002f69565b50602062000b546024356200328d565b34620003f0576020366003190112620003f05763ffffffff62000bab62002fab565b166000526002602052602060ff60406000205416604051908152f35b34620003f0576020366003190112620003f0576001600160401b0360043511620003f057366023600435011215620003f0576001600160401b036004356004013511620003f0573660246004356004013560051b600435010111620003f05762000c306200329c565b5060043560040135600411620003f05762000c4a6200329c565b5060405162000c598162003040565b63ffffffff6064600435013516815260246004350135602082015260446004350135604082015260ff6064600435013560401c16606082015263ffffffff6064600435013560201c16608082015263ffffffff6084600435013560c01c1660a082015263ffffffff6084600435013560a01c1660c082015263ffffffff6084600435013560801c1660e0820152600060a060405162000cf8816200305d565b828152826020820152826040820152826060820152826080820152015260031960043560040135011562001836576040519062000d35826200305d565b60043560a40135608881901c63ffffffff9081168452608082811c60ff16602080870191909152606084811c8416604080890182905286901c8516918801919091529084901c83169186019190915291811660a0850152600390910290811603620011875763ffffffff808060a4600435013560601c166003021660010111620011875763ffffffff6060830151166005028063ffffffff811603620011875762000e1862000e0663ffffffff62000e53931663ffffffff8060a4600435013560601c16600302166001016200332e565b63ffffffff608086015116906200332e565b63ffffffff62000e3b6003196004356004013501928260a088015116906200332e565b16600319600435600401350160a460043501620032dc565b9063ffffffff62000e6a8160a087015116620032f9565b16828111620003f057600381049062000e8382620030e7565b9162000e936040519384620030c5565b80835262000ea4601f1991620030e7565b0160005b8181106200180757505060005b8181106200175e575050508163ffffffff62000edc8160a062000ee49798015116620032f9565b1691620032dc565b62000ef963ffffffff60a08501511662003312565b918163ffffffff841611620003f05762000f1c637fffffff8460011c16620030e7565b9262000f2c6040519485620030c5565b600181901c637fffffff16808552601f199062000f4990620030e7565b0160005b8181106200173657505060005b63ffffffff82168110620016a85750509062000f87918163ffffffff62000edc8160a08901511662003312565b62000f9e63ffffffff60c086949601511662003312565b938163ffffffff861611620003f05762000fc1637fffffff8660011c16620030e7565b9462000fd16040519687620030c5565b600181901c637fffffff16808752601f199062000fee90620030e7565b0160005b8181106200168057505060005b63ffffffff8216811062001609575050906200102c918163ffffffff62000edc8160c08801511662003312565b93906200104363ffffffff60e08501511662003312565b9463ffffffff861611620003f05762001065637fffffff8660011c16620030e7565b94620010756040519687620030c5565b600181901c637fffffff16808752601f19906200109290620030e7565b0160005b818110620015e157505060005b63ffffffff8216811062001553575050506001600160401b03601254169360005b8451811015620011f357620010da8186620031ca565b519060208251920151806000526005602052604060002063ffffffff8460401c166000526020526001600160401b0383166001600160401b0360406000205416106200119d576000526005602052604060002063ffffffff8360401c16600052602052604060002080546001600160401b03808516818316031162001187576001600160401b03806200118195168183160316906001600160401b031916179055620031ba565b620010c4565b634e487b7160e01b600052601160045260246000fd5b60405162461bcd60e51b815260206004820152602860248201527f416e20696e76616c6964206465706f736974207761732065786563757465642060448201526737b33331b430b4b760c11b6064820152608490fd5b50604080514281526001600160401b03871660208201527fe73055b4c53403597e4db3f0eb4dd4ca358a3d2cdf10ce573b8ec0d7a057ea0b9190a16200123862003358565b6001600160401b03601254169260005b8351811015620013ae576200125e8185620031ca565b518051602090910151604082901c63ffffffff1692916001600160a01b0391821691906001600160401b031680156200139f57846200129d91620035d0565b9361d43181036200132557506003541692833b15620003f05760405163eda5db9560e01b81526001600160a01b039290921660048301526024820152916000908390604490829084905af191821562001319576200130192620013075750620031ba565b62001248565b620013129062003095565b8662000345565b6040513d6000823e3d90fd5b60009491945260016020528360406000205416936200134485620044b0565b16803b15620003f057604051636c2e9df560e01b81526001600160a01b03938416600482015294909216602485015260448401526000908390606490829084905af191821562001319576200130192620013075750620031ba565b505050620013019150620031ba565b50604080514281526001600160401b03861660208201527f32bf24d8be330e07624f644b504559770580e270aaa9f5228fb5aea491b689849190a160005b8251811015620014f5578062001407620014769285620031ca565b5180519063ffffffff8260401c1690600160206001600160401b0385169201519360601c14600014620014b657826000526011602052604060002092600284019384549363ffffffff8560401c16149283620014a2575b508262001493575b50506200147c575b5050620031ba565b620013ec565b60ff60601b1916600160601b17905584806200146e565b60010154149050878062001466565b6001600160401b038516149250896200145e565b82600052600f602052604060002092600284019384549363ffffffff8560401c16149283620014a2575082620014935750506200147c575050620031ba565b506040601254916001600160401b03620015118185166200316f565b1680936001600160401b0319161760125501519060005260136020526040600020556001600160401b0360125416600052601460205242604060002055600080f35b620015668163ffffffff84168562003347565b356001820182116200118757620015bd906200158d6001840163ffffffff86168762003347565b35604051916200159d8362003024565b825260208201528260011c90620015b5828b620031ca565b5288620031ca565b506002810180911115620010a357634e487b7160e01b600052601160045260246000fd5b602090604051620015f28162003024565b6000815260008382015282828b0101520162001096565b6200161c8163ffffffff84168562003347565b3560018201821162001187576200165c906001600160a01b036200164b6001850163ffffffff87168862003347565b3516604051916200159d8362003024565b50600281018091111562000fff57634e487b7160e01b600052601160045260246000fd5b602090604051620016918162003024565b6000815260008382015282828b0101520162000ff2565b620016bb8163ffffffff84168562003347565b3560018201821162001187576200171290620016e26001840163ffffffff86168762003347565b3560405191620016f28362003024565b825260208201528260011c906200170a8289620031ca565b5286620031ca565b50600281018091111562000f5a57634e487b7160e01b600052601160045260246000fd5b602090604051620017478162003024565b600081526000838201528282890101520162000f4d565b63ffffffff6200177082848762003347565b35166001820180831162001187576200178b90848762003347565b35906002830183116200118757620017e391620017ad60028501868962003347565b359060405192620017be8462003079565b8352602083015260408201526003830490620017db8287620031ca565b5284620031ca565b50600381018091111562000eb557634e487b7160e01b600052601160045260246000fd5b602090604051620018188162003079565b60008152600083820152600060408201528282870101520162000ea8565b634e487b7160e01b600052603260045260246000fd5b34620003f0576000366003190112620003f057602063ffffffff600e5416604051908152f35b34620003f0576020366003190112620003f0576001600160a01b036200189762002f69565b1660005260076020526020604060002054604051908152f35b34620003f0576040366003190112620003f057620018cd62002f69565b60243590600167080000000000001160c01b01821015620019fb573315620019be5760018060a01b038091169182600052600060205263ffffffff92836040600020541660405194620019208662003079565b338652602086019584875260408101928352600954600160401b81101562000a2a5780600162001954920160095562002fe8565b62000a14577ffe5eeb45c725aa6c7460c0a9b5891c86aab2691e00ef4e9e24376ec43264561b9760609760029351166001600160601b0360a01b8354161782555160018201550191511663ffffffff198254161790556040519182526020820152426040820152a1005b60405162461bcd60e51b815260206004820152601560248201527406d73672e73656e6465722063616e2774206265203605c1b6044820152606490fd5b60405162461bcd60e51b8152602060048201526011602482015270496e76616c696420737461726b206b657960781b6044820152606490fd5b34620003f0576080366003190112620003f05762001a5162002fab565b62001a5b62002f97565b606435916001600160401b0383168303620003f05733600052600a602052604060002060443560005260205260ff604060002054161562001c9c5763ffffffff8116600052600c602052604060002063ffffffff831660005260205260ff604060002054161562001c5757604435600052600f60205262001ae56001604060002001541562003e98565b6040519260e08401908482106001600160401b0383111762000a2a5763ffffffff60c09462001c287fe9a15e6ab818915de269196659886272b1d9cd7f046a44afa8fe19a10a621a11976001600160401b039560405233815283871660208201528383166040820152604435606082015285851660808201526342e576f760a082015287810160008152604435600052600f602052620007c98560a060026040600020600180841b038751166001600160601b03841b82541617815562001bce84602089015116829081549063ffffffff60a01b9060a01b169063ffffffff60a01b1916179055565b60408701518154908f86901b9060c01b16908f86901b19161781556060870151600182015501948a6080820151168b19875416178655015116839063ffffffff60401b82549160401b169063ffffffff60401b1916179055565b816040519533875216602086015216604084015260443560608401521660808201526342e576f760a0820152a1005b60405162461bcd60e51b815260206004820152601a60248201527f53706f74206d61726b657420646f6573206e6f742065786973740000000000006044820152606490fd5b60405162461bcd60e51b815260206004820152602d60248201527f4f6e6c7920617070726f7665642073706f74206d61726b6574206d616b65727360448201526c1031b0b7103932b3b4b9ba32b960991b6064820152608490fd5b34620003f0576020366003190112620003f05763ffffffff62001d1962002fab565b166000526001602052602060018060a01b0360406000205416604051908152f35b34620003f0576040366003190112620003f0576001600160a01b0362001d5f62002f80565b166000526000602052602062000b5463ffffffff604060002054166004356000526005835260406000208160005283526001600160401b0360406000205416620035d0565b34620003f0576040366003190112620003f0576004356001600160401b03808211620003f05736602383011215620003f05781600401359162001de783620030e7565b9262001df76040519485620030c5565b80845260209160248386019260061b82010190368211620003f057602401915b81831062001f205750505060243582811603620003f05760005b835181101562000027578062001e4c62001eaf9286620031ca565b51805160019163ffffffff91828160401c169380888a84169401519260601c1460001462001ee7578160005260118852604060002060028101958654958660401c1614938462001eda575b508362001ecc575b50505062001eb5575050620031ba565b62001e31565b60ff60601b1916600160601b17905585806200146e565b015414905088808062001e9f565b858b161493508b62001e97565b81600052600f8852604060002060028101958654958660401c1614938462001eda57508362001ecc5750505062001eb5575050620031ba565b604083360312620003f05783604091825162001f3c8162003024565b85358152828601358382015281520192019162001e17565b34620003f0576000366003190112620003f05760206040517f439148f0bbc682ca079e46d6e2c2f0c1e3b820f1a291b069d8882abf8cf18dd98152f35b34620003f0576020366003190112620003f057602062001fba62001fb462002f69565b620044b0565b6040516001600160a01b039091168152f35b34620003f0576000366003190112620003f057602060405160008152f35b34620003f0576040366003190112620003f0576001600160a01b036200200f62002f69565b16600052600a6020526040600020602435600052602052602060ff604060002054166040519015158152f35b34620003f0576000366003190112620003f057602063ffffffff60105416604051908152f35b34620003f0576060366003190112620003f0576004358015158103620003f0576200208b62002f80565b6044359115620020c3576001600160a01b03166000908152600b6020908152604080832093835292905220805460ff19166001179055005b6001600160a01b03166000908152600a6020908152604080832093835292905220805460ff19166001179055005b34620003f0576020366003190112620003f057600435600954811015620003f0576200211f60609162002fe8565b5060018060a01b038154169063ffffffff60026001830154920154169060405192835260208301526040820152f35b34620003f0576040366003190112620003f0576200216b62002f69565b6200217562002f80565b9060018060a01b038091166000526006602052604060002091166000526020526020604060002054604051908152f35b34620003f0576020366003190112620003f057602062000b54620021c862002f69565b620031f9565b34620003f0576080366003190112620003f0576004356001600160a01b0381811691829003620003f0576200220262002f80565b91604435606435926001600160401b0394858511620003f05736602386011215620003f0578460040135958611620003f0573660248787010111620003f057826200224d82620031f9565b106200251a5760405163a9059cbb60e01b81526001600160a01b038516600482015260248101849052602096919092169491868160448160008a5af19081156200131957600091620024f8575b5015620024b35785602460c4620022b1866200328d565b948460405195869485936323e30c8b60e01b85523360048601528c828601528a604486015289606486015260a060848601528260a486015201848401376000838284010152601f801991011681010301816000885af18015620013195760009062002460575b7f439148f0bbc682ca079e46d6e2c2f0c1e3b820f1a291b069d8882abf8cf18dd99150036200241b57810180911162001187576040516323b872dd60e01b81526001600160a01b039290921660048301523060248301526044820152908290829060649082906000905af19081156200131957600091620023e7575b5015620023a35760405160018152f35b6064906040519062461bcd60e51b82526004820152601960248201527f466c6173684c656e6465723a205265706179206661696c6564000000000000006044820152fd5b6200240c9150823d841162002413575b620024038183620030c5565b810190620031df565b8262002393565b503d620023f7565b60405162461bcd60e51b815260048101869052601c60248201527f466c6173684c656e6465723a2043616c6c6261636b206661696c6564000000006044820152606490fd5b508581813d8311620024ab575b620024798183620030c5565b81010312620003f0577f439148f0bbc682ca079e46d6e2c2f0c1e3b820f1a291b069d8882abf8cf18dd9905162002317565b503d6200246d565b60405162461bcd60e51b815260048101879052601c60248201527f466c6173684c656e6465723a205472616e73666572206661696c6564000000006044820152606490fd5b620025139150873d89116200241357620024038183620030c5565b876200229a565b60405162461bcd60e51b815260206004820152602e60248201527f466c6173684c656e6465723a20496e73756666696369656e742066756e64732060448201526d3337b910333630b9b4103637b0b760911b6064820152608490fd5b34620003f0576040366003190112620003f0576200259362002f97565b600435600052600560205263ffffffff6040600020911660005260205260206001600160401b0360406000205416604051908152f35b34620003f0576020366003190112620003f057602062001fba620025ec62002fab565b63ffffffff166000908152600160205260409020546001600160a01b031690565b34620003f0576040366003190112620003f0576200262a62002f69565b60206001600160a01b036024816200264562001fb462002f80565b1693604051948593849263f677717560e01b84521660048301525afa801562001319576000906200267c575b602090604051908152f35b506020813d8211620026ab575b816200269860209383620030c5565b81010312620003f0576020905162002671565b3d915062002689565b34620003f0576020366003190112620003f057600435600052600f60205260ff60026040600020015460601c168015620026f6575b6020906040519015158152f35b50601160205260406000206002015460601c60ff16620026e9565b34620003f0576040366003190112620003f0576200272e62002fab565b6200273862002f97565b9063ffffffff809116600052600c60205260406000209116600052602052602060ff604060002054166040519015158152f35b34620003f0576020366003190112620003f057600435600052601160205260c0604060002060ff81549163ffffffff6002600183015492015491816040519560018060a01b038116875260a01c16602086015260408501526001600160401b03821660608501528160401c16608084015260601c16151560a0820152f35b34620003f0576040366003190112620003f0576001600160a01b036200280e62002f69565b16600052600b6020526040600020602435600052602052602060ff604060002054166040519015158152f35b6060366003190112620003f0576020620028656200285762002f69565b604435906024359062003b2f565b6001600160401b0360405191168152f35b34620003f0576020366003190112620003f0576001600160401b036200289b62002fd1565b1660005260136020526020604060002054604051908152f35b34620003f057602080600319360112620003f057620028d262002f69565b60035460405163f677717560e01b81526001600160a01b03928316600482015291839183916024918391165afa908115620013195760009162002919575b50604051908152f35b90508181813d831162002944575b620029338183620030c5565b81010312620003f057518262002910565b503d62002927565b34620003f0576020366003190112620003f0576001600160401b036200297162002fd1565b166000526015602052602060ff604060002054166040519015158152f35b34620003f05760c0366003190112620003f057620029ac62002f69565b620029b662002f80565b6064359060ff8216809203620003f0576001600160a01b0392831633811480159360443593929162002c8b57604051906020828180940190600082526001600160601b03198760601b1660348201528760488201526048815262002a1a81620030a9565b5190209160405162002a2c8162003024565b601c938482527f19457468657265756d205369676e6564204d6573736167653a0a333200000000848301526040519160005b86811062002c765750509181600093603c6080940152603c815262002a838162003079565b8481519101209060405191825284820152608435604082015260a435606082015282805260015afa1562001319578287600051160362002c3d57338785160362002bfa5750505b8460035416906040519463f677717560e01b8652816004870152602086602481865afa958615620013195760009662002bc1575b5062002b9a575b813b15620003f057600060649281956040519889968795631dbf52e160e31b8752600487015216602485015260448401525af190811562001319577f40baabe558cca1477e79adec701351a697bbdbf7f26537d954920d4d187f63689260809262002b88575b5060405190338252600060208301526040820152426060820152a1005b62002b939062003095565b8362002b6b565b600a8402848104600a1485151715620011875762002bbb9086101562004331565b62002b05565b9095506020813d821162002bf1575b8162002bdf60209383620030c5565b81010312620003f05751948762002afe565b3d915062002bd0565b606492506040519162461bcd60e51b8352600483015260248201527f696e76616c69642070726f78792063616c6c65722061646472657373000000006044820152fd5b60405162461bcd60e51b8152600481018390526011602482015270696e76616c6964207369676e617475726560781b6044820152606490fd5b81810186015184820187015287950162002a5e565b509150506000809162002aca565b34620003f0576000366003190112620003f0576003546040516001600160a01b039091168152602090f35b34620003f0576020366003190112620003f0576001600160401b0362002ce962002fd1565b1660005260146020526020604060002054604051908152f35b34620003f0576060366003190112620003f05762002d1f62002f69565b62002d2962002f97565b9160443560ff8116809103620003f0576001600160a01b0383811692909190831562002f27575063ffffffff80951691821562002ee25762002d98908460005262002d8260209760008952604060002054161562003e4b565b8360005260018752604060002054161562003e4b565b60405163313ce56760e01b81528581600481875afa8015620013195760009062002ea3575b60ff9150160360ff8111620011875760ff16906012821162002e6557916060917fa0fa9e6f8b5151671d99d8a21fbee478f03ed8c5078386b9716ed66db871ccec936200002796836000526000815260406000208263ffffffff1982541617905581600052600181526040600020846001600160601b0360a01b8254161790556002815260406000208360ff198254161790556040519384528301526040820152a162004376565b60405162461bcd60e51b81526004810186905260166024820152755363616c6520666163746f7220746f6f206c6172676560501b6044820152606490fd5b508581813d831162002eda575b62002ebc8183620030c5565b81010312620003f0575160ff81168103620003f05760ff9062002dbd565b503d62002eb0565b60405162461bcd60e51b815260206004820152601860248201527f546f6b656e2049442053686f756c64206e6f74206265203000000000000000006044820152606490fd5b62461bcd60e51b815260206004820152601d60248201527f546f6b656e20616464726573732053686f756c64206e6f7420626520300000006044820152606490fd5b600435906001600160a01b0382168203620003f057565b602435906001600160a01b0382168203620003f057565b6024359063ffffffff82168203620003f057565b6004359063ffffffff82168203620003f057565b359063ffffffff82168203620003f057565b600435906001600160401b0382168203620003f057565b60095481101562001836576003906009600052027f6e1540171b6c0c960b71a7020d9f60077f6af931a8bbf590da0223dacf75c7af0190600090565b604081019081106001600160401b0382111762000a2a57604052565b61010081019081106001600160401b0382111762000a2a57604052565b60c081019081106001600160401b0382111762000a2a57604052565b606081019081106001600160401b0382111762000a2a57604052565b6001600160401b03811162000a2a57604052565b608081019081106001600160401b0382111762000a2a57604052565b90601f801991011681019081106001600160401b0382111762000a2a57604052565b6001600160401b03811162000a2a5760051b60200190565b9080601f83011215620003f05760209082356200311c81620030e7565b936200312c6040519586620030c5565b818552838086019260051b820101928311620003f0578301905b82821062003155575050505090565b838091620031638462002fbf565b81520191019062003146565b9060016001600160401b03809316019182116200118757565b906001600160401b038092169182116200118757565b9190916001600160401b03808094169116019182116200118757565b6000198114620011875760010190565b8051821015620018365760209160051b010190565b90816020910312620003f057518015158103620003f05790565b6040516370a0823160e01b815230600482015290602090829060249082906001600160a01b03165afa908115620013195760009162003236575090565b906020823d821162003263575b816200325260209383620030c5565b810103126200326057505190565b80fd5b3d915062003243565b811562003277570490565b634e487b7160e01b600052601260045260246000fd5b15600117156200118757600090565b60405190620032ab8262003040565b8160e06000918281528260208201528260408201528260608201528260808201528260a08201528260c08201520152565b90939293848311620003f0578411620003f0578160051b01920390565b90600363ffffffff809316029182169182036200118757565b60011b906401fffffffe63fffffffe8316921682036200118757565b91909163ffffffff808094169116019182116200118757565b9190811015620018365760051b0190565b6009908154156200357657906000915b815483101562003503576200337d8362002fe8565b509260018401546000526020600581526040948560002063ffffffff6002830154169283600052526001600160401b038660002054168015620034f25782620033c691620035d0565b9161d43181036200345f575060035490546001600160a01b0391821692911690823b15620003f057865163eda5db9560e01b81526001600160a01b039290921660048301526024820152906000908290604490829084905af1801562003454576200343a93949550620034425750620031ba565b919062003368565b6200344d9062003095565b3862000345565b85513d6000823e3d90fd5b63ffffffff166000908152600160205260409020546001600160a01b0316916001600160a01b03806200349285620044b0565b1692541691803b15620003f0578751636c2e9df560e01b81526001600160a01b03938416600482015293909216602484015260448301526000908290606490829084905af1801562003454576200343a93949550620034425750620031ba565b5050506200343a91929350620031ba565b91508054600082558062003515575050565b600391818302918383040362001187576000527f6e1540171b6c0c960b71a7020d9f60077f6af931a8bbf590da0223dacf75c7af908101905b8181106200355b57505050565b8060008492556000600182015560006002820155016200354e565b9050565b156200358257565b60405162461bcd60e51b815260206004820152601460248201527324b73b30b634b21039b1b0b632903330b1ba37b960611b6044820152606490fd5b60ff16604d81116200118757600a0a90565b9063ffffffff1660005260026020526200360c6001600160401b0360ff60406000205416926200360460128511156200357a565b1691620035be565b90818102918183041490151715620011875790565b156200362957565b60405162461bcd60e51b8152602060048201526011602482015270496e76616c696420737461726b204b657960781b6044820152606490fd5b60201b906bffffffffffffffff0000000067ffffffff000000008316921682036200118757565b331562003aea573462003951576000808052600460209081527f17ef568e3e12ab5b9c7254a8d58478811de00f9e6eb34345acd53bf8fd09d3ec549192916040906001600160a01b03168015620038c5578151906323b872dd60e01b82523360048301526024820152846044820152828160648188805af1908115620038bb57859162003899575b5015620038645783805283825263ffffffff8185205416808552600283526200374f60ff83872054166200374960128211156200357a565b620035be565b1562003850576000805160206200509c833981519152916200384d949560a0927f01b71ff4b9c60c2a352a0eeeeda43974684e8c199f0d9a1346cd766d5370a849928383526005875280832082845287526001600160401b039384828520541697620037bb8962003188565b8286526005825283862085875282528684872091166001600160401b031982541617905560085495620037f081881662003662565b9667ffffffffffffffff60401b62003819620038128484891c16809b6200319e565b996200316f565b861b169067ffffffffffffffff60401b1916176008558351961686528501528301526060820152426080820152a162003188565b90565b634e487b7160e01b85526012600452602485fd5b60649250519062461bcd60e51b82526004820152600f60248201526e151c985b9cd9995c8819985a5b1959608a1b6044820152fd5b620038b49150833d85116200241357620024038183620030c5565b3862003711565b82513d87823e3d90fd5b815162461bcd60e51b815260048101849052605960248201527f5661756c74206e6f7420726567697374657265642028636865636b206966207960448201527f6f75206172652063616c6c696e672074686520636f72726563742066756e6374606482015278696f6e20666f722045544820696e746572616374696f6e732960381b608482015260a490fd5b6000808080803460018060a01b03600354165af13d1562003ae4573d620039788162003e2f565b90620039886040519283620030c5565b81528260203d92013e5b1562003aa8576200384d90620039a83462003df7565b906000805160206200509c83398151915260a07f01b71ff4b9c60c2a352a0eeeeda43974684e8c199f0d9a1346cd766d5370a8498084526005602052604080852061d431908187526020526001600160401b039182818820541696838262003a118b8b6200319e565b9287815260056020528181208682526020522091166001600160401b03198254161790556008549362003a4684861662003662565b9467ffffffffffffffff60401b62003a6f62003a688784871c1680996200319e565b976200316f565b841b169067ffffffffffffffff60401b19161760085583825195168552602085015283015285166060820152426080820152a16200319e565b60405162461bcd60e51b81526020600482015260146024820152732330b4b632b2103a379039b2b7321022ba3432b960611b6044820152606490fd5b62003992565b60405162461bcd60e51b815260206004820152601a60248201527f496e76616c6964206465706f736974696f7220616464726573730000000000006044820152606490fd5b9192919062003b4e600167080000000000001160c01b01851062003621565b62003b5b84151562003621565b331562003aea573462003d4e5762003b7382620044b0565b604080516323b872dd60e01b81523360048201526001600160a01b039283166024820152604481018490529095602094600094939192911690858160648188865af190811562003d4457859162003d22575b501562003cec576000805160206200509c833981519152926200384d969760a09362003c2e93875286885263ffffffff8288205416928388526002895262003c3560ff848a2054169162003c1d60128411156200357a565b6001600160401b03968793620035be565b906200326c565b169781885260058152828820848952815284838920541697858462003c5b8c8c6200319e565b928581526005855281812088825285522091166001600160401b03198254161790556008549462003c8e81871662003662565b9567ffffffffffffffff60401b62003cb762003cb08484891c16809a6200319e565b986200316f565b861b169067ffffffffffffffff60401b191617600855835195168552840152820152846060820152426080820152a16200319e565b865162461bcd60e51b815260048101869052600f60248201526e151c985b9cd9995c8819985a5b1959608a1b6044820152606490fd5b62003d3d9150863d88116200241357620024038183620030c5565b3862003bc5565b88513d87823e3d90fd5b505090600090818080803460018060a01b03600354165af13d1562003df1573d62003d798162003e2f565b9062003d896040519283620030c5565b81528360203d92013e5b1562003aa8576200384d916000805160206200509c83398151915260a062003dbb3462003df7565b938084526005602052604080852061d431908187526020526001600160401b039182818820541696838262003a118b8b6200319e565b62003d93565b62003e2b6001600160401b039161d431600052600260205262003c2e60ff604060002054166200374960128211156200357a565b1690565b6001600160401b03811162000a2a57601f01601f191660200190565b1562003e5357565b60405162461bcd60e51b815260206004820152601860248201527f546f6b656e20616c7265616479207265676973746572656400000000000000006044820152606490fd5b1562003ea057565b60405162461bcd60e51b8152602060048201526012602482015271185b1c9958591e481c9959da5cdd195c995960721b6044820152606490fd5b956001600160a01b039182163381148015979596939591939062004321576040908151906020948286809401908d6001600160601b0319809160601b1683528a60601b1660348201528b60488201526048815262003f3881620030a9565b51902094845162003f498162003024565b601c968782527f19457468657265756d205369676e6564204d6573736167653a0a3332000000008683015286519160005b8981106200430c5750509160ff8260009694603c608097950152603c815262003fa38162003079565b878151910120938851948552168684015286830152606082015282805260015afa15620043025783866000511603620042cb5733868616036200428a575050505b600095838116908162004154575050826003541660409485519663f677717560e01b8852836004890152602088602481865afa9788156200414a5789986200410d575b50620040d2575b813b15620040ce57918760649281959488519788968795631dbf52e160e31b8752600487015216602485015260448401525af18015620040c45791608093917f40baabe558cca1477e79adec701351a697bbdbf7f26537d954920d4d187f63689593620040ae575b508051923384526020840152820152426060820152a1565b620040bc9093919362003095565b913862004096565b82513d86823e3d90fd5b8780fd5b600a8102818104600a1482151715620040f957620040f39088101562004331565b6200402e565b634e487b7160e01b89526011600452602489fd5b9097506020813d821162004141575b816200412b60209383620030c5565b810103126200413d5751963862004027565b8880fd5b3d91506200411c565b87513d8b823e3d90fd5b936200416981929598979498969396620044b0565b60405163f677717560e01b815260048101889052911693602082602481885afa9182156200427f57889262004246575b5062004209575b50823b156200420557608492869594928692604051998a97889663adb051a360e01b88526004880152602487015216604485015260648401525af1908115620041f95750620041ec5750565b620041f79062003095565b565b604051903d90823e3d90fd5b8580fd5b600a830290838204600a14841517156200423257906200422b91101562004331565b38620041a0565b634e487b7160e01b88526011600452602488fd5b9091506020813d821162004276575b816200426460209383620030c5565b81010312620040ce5751903862004199565b3d915062004255565b6040513d8a823e3d90fd5b60649350519162461bcd60e51b8352600483015260248201527f696e76616c69642070726f78792063616c6c65722061646472657373000000006044820152fd5b5162461bcd60e51b8152600481018390526011602482015270696e76616c6964207369676e617475726560781b6044820152606490fd5b513d6000823e3d90fd5b8181018801518482018901528a970162003f7a565b5050509250506000809262003fe4565b156200433957565b60405162461bcd60e51b81526020600482015260156024820152740e0e4def0f240cccaca40d2e640e8dede40d0d2ced605b1b6044820152606490fd5b6001600160a01b038082166000818152600460205260408082205491959493909181166200446c578151610b39808201908282106001600160401b0383111762004458578291620043df916200456384396001600160a01b038816815230602082015260400190565b039087f080156200444e57928652600460209081529582902080546001600160a01b03191691909316908117909255516001600160a01b039182168152911692810192909252907f92b89de6a810ac045dfa55d21943b9319e638ca301e5bfc19a3865e4010622fd90604090a1565b82513d88823e3d90fd5b634e487b7160e01b89526041600452602489fd5b815162461bcd60e51b815260206004820152601860248201527f5661756c7420616c7265616479207265676973746572656400000000000000006044820152606490fd5b6001600160a01b03908116600090815260046020526040902054168015620044d55790565b60405162461bcd60e51b815260206004820152605960248201527f5661756c74206e6f7420726567697374657265642028636865636b206966207960448201527f6f75206172652063616c6c696e672074686520636f72726563742066756e6374606482015278696f6e20666f722045544820696e746572616374696f6e732960381b608482015260a490fdfe60c03461008857601f610b3938819003918201601f19168301916001600160401b0383118484101761008d57808492604094855283398101031261008857610052602061004b836100a3565b92016100a3565b9060805260a052604051610a8190816100b8823960805181818161015c01528181610420015261049d015260a051816103660152f35b600080fd5b634e487b7160e01b600052604160045260246000fd5b51906001600160a01b03821682036100885756fe608060408181526004918236101561001657600080fd5b600092833560e01c9182632b576f4e146108675750816336b33434146108465781635cffe9de146104cc5781635fbe4d1d14610488578163613255ab146104625781636c2e9df5146103eb5781637fd6f15c146103d05781638237e53814610395578163a5d379c314610351578163adb051a31461011157508063d9d98ce4146100e25763f6777175146100a957600080fd5b346100de5760203660031901126100de5760209181906001600160a01b036100cf61089a565b16815280845220549051908152f35b5080fd5b50346100de57806003193601126100de576020906100fe61089a565b5061010a6024356109b3565b9051908152f35b90503461034d57608036600319011261034d5761012c61089a565b906101356108b5565b6001600160a01b0392604435929091848416918285036103495785606435941695610183817f00000000000000000000000000000000000000000000000000000000000000001688146109c1565b821691828952602091898352888a205496871561030d57848b528a84528a8a81205583878c8161029a575b50915050870396871161028757885163a9059cbb60e01b81526001600160a01b039092169082019081526020810187905282908290819060400103818c8b5af190811561027d579161023160c09897969594927f6e71609f62a3bc5497d6f8c4ba9a2d47714d6475b07de321a0869f7b5d3f06c69a948c91610250575b50610a0d565b8251968752860152840152606083015260808201524260a0820152a180f35b6102709150833d8511610276575b61026881836108cb565b810190610903565b3861022b565b503d61025e565b88513d8b823e3d90fd5b634e487b7160e01b8a5260119052602489fd5b8c5163a9059cbb60e01b81526001600160a01b03909416858501908152602081019290925283918290819060400103918d5af18015610303576102e3918c916102ec5750610a0d565b3883878c6101ae565b6102709150853d87116102765761026881836108cb565b8a513d8d823e3d90fd5b895162461bcd60e51b815280830185905260166024820152754e6f2070656e64696e67207769746864726177616c7360501b6044820152606490fd5b8780fd5b8280fd5b5050346100de57816003193601126100de57517f00000000000000000000000000000000000000000000000000000000000000006001600160a01b03168152602090f35b5050346100de57816003193601126100de57602090517f439148f0bbc682ca079e46d6e2c2f0c1e3b820f1a291b069d8882abf8cf18dd98152f35b5050346100de57816003193601126100de5751908152602090f35b5050346100de5760603660031901126100de5761040661089a565b61040e6108b5565b6001600160a01b0391906104479083167f00000000000000000000000000000000000000000000000000000000000000008416146109c1565b16825281602052812061045d604435825461091b565b905580f35b5050346100de5760203660031901126100de5760209061010a61048361089a565b61093e565b5050346100de57816003193601126100de57517f00000000000000000000000000000000000000000000000000000000000000006001600160a01b03168152602090f35b90503461034d57608036600319011261034d576001600160a01b03928135848116908190036100de576104fd6108b5565b90604435916064359667ffffffffffffffff9182891161076d573660238a01121561076d578887013592831161076d57366024848b01011161076d57846105438261093e565b106107ec57875163a9059cbb60e01b81526001600160a01b03851688820190815260208082018890529a9290931695928a908290819060400103818a8a5af19081156107e25787916107c5575b5015610782578860249160c4896105a6866109b3565b96808d5196879586946323e30c8b60e01b865233908601528c828601528960448601528a606486015260a060848601528260a4860152018484013781810183018b9052601f01601f1916810103018189885af18015610778578690610727575b7f439148f0bbc682ca079e46d6e2c2f0c1e3b820f1a291b069d8882abf8cf18dd99150036106e45761063c88939260649261091b565b9185885195869485936323b872dd60e01b85528a85015230602485015260448401525af19182156106d957916106bc575b501561067b57505160018152f35b82606492519162461bcd60e51b8352820152601960248201527f466c6173684c656e6465723a205265706179206661696c6564000000000000006044820152fd5b6106d39150843d86116102765761026881836108cb565b3861066d565b8451903d90823e3d90fd5b865162461bcd60e51b8152808701899052601c60248201527f466c6173684c656e6465723a2043616c6c6261636b206661696c6564000000006044820152606490fd5b508881813d8311610771575b61073d81836108cb565b8101031261076d577f439148f0bbc682ca079e46d6e2c2f0c1e3b820f1a291b069d8882abf8cf18dd99051610606565b8580fd5b503d610733565b88513d88823e3d90fd5b875162461bcd60e51b81528088018a9052601c60248201527f466c6173684c656e6465723a205472616e73666572206661696c6564000000006044820152606490fd5b6107dc91508a3d8c116102765761026881836108cb565b38610590565b89513d89823e3d90fd5b875162461bcd60e51b8152602081890152602e60248201527f466c6173684c656e6465723a20496e73756666696369656e742066756e64732060448201526d3337b910333630b9b4103637b0b760911b6064820152608490fd5b83346108645760203660031901126108645761086061089a565b5080f35b80fd5b8490843461034d57602036600319011261034d576020926001600160a01b0361088e61089a565b16815280845220548152f35b600435906001600160a01b03821682036108b057565b600080fd5b602435906001600160a01b03821682036108b057565b90601f8019910116810190811067ffffffffffffffff8211176108ed57604052565b634e487b7160e01b600052604160045260246000fd5b908160209103126108b0575180151581036108b05790565b9190820180921161092857565b634e487b7160e01b600052601160045260246000fd5b6040516370a0823160e01b815230600482015290602090829060249082906001600160a01b03165afa9081156109a757600091610979575090565b906020823d821161099f575b81610992602093836108cb565b8101031261086457505190565b3d9150610985565b6040513d6000823e3d90fd5b156001171561092857600090565b156109c857565b60405162461bcd60e51b815260206004820152601e60248201527f746f6b656e206d6973736d6174636820696e206173736574207661756c7400006044820152606490fd5b15610a1457565b60405162461bcd60e51b815260206004820152600f60248201526e151c985b9cd9995c8819985a5b1959608a1b6044820152606490fdfea26469706673582212204e0325d38b712d208e1cd57d5022e0f570d27c074257c01d1c241cffc67158ef64736f6c63430008150033429602b012976e07ac9b27b6c1bac9791626550f52721f02a2523c88808ec7a0a264697066735822122091c8ae25981c3242a9a99062b89bb91e0bce8509fee44c2acd0c95d118e794b564736f6c6343000815003360803461007457601f61044d38819003918201601f19168301916001600160401b038311848410176100795780849260209460405283398101031261007457516001600160a01b0381169081900361007457600180546001600160a01b0319169190911790556040516103bd90816100908239f35b600080fd5b634e487b7160e01b600052604160045260246000fdfe60806040818152600436101561001f575b5050361561001d57600080fd5b005b600091823560e01c9081632b576f4e1461022257508063eda5db95146101bf578063edfa97081461008d5763f67771750361001057346100895760203660031901126100895760209181906001600160a01b0361007a610259565b16815280845220549051908152f35b5080fd5b5034610089576060366003190112610089576100a7610259565b6024356001600160a01b0381811692918390036101bb57604435916100d182600154163314610274565b16928385528460205280852054801561017e579160a093916101498287957f2c6d04fbea2e3cec4b81296a2a452eed701238eee2f6a3af3369142636c586c5988a5289602052898481205581610166575b6101448a8080806101338787610364565b8c5af161013e6102c0565b50610321565b610364565b92815194855260208501528301526060820152426080820152a180f35b6101798a808080868b5af161013e6102c0565b610122565b815162461bcd60e51b81526020600482015260166024820152754e6f2070656e64696e67207769746864726177616c7360501b6044820152606490fd5b8480fd5b50346100895780600319360112610089576101d8610259565b6001546001600160a01b0391906101f29083163314610274565b168252816020528120805490602435820180921161020e575580f35b634e487b7160e01b83526011600452602483fd5b91905034610255576020366003190112610255576020926001600160a01b03610249610259565b16815280845220548152f35b8280fd5b600435906001600160a01b038216820361026f57565b600080fd5b1561027b57565b60405162461bcd60e51b815260206004820152601a60248201527f4f6e6c7920696e746572616374696f6e7320636f6e74726163740000000000006044820152606490fd5b3d1561031c5767ffffffffffffffff903d8281116103065760405192601f8201601f19908116603f01168401908111848210176103065760405282523d6000602084013e565b634e487b7160e01b600052604160045260246000fd5b606090565b1561032857565b60405162461bcd60e51b81526020600482015260146024820152732330b4b632b2103a379039b2b7321022ba3432b960611b6044820152606490fd5b9190820391821161037157565b634e487b7160e01b600052601160045260246000fdfea2646970667358221220de48b12157fd3c55840a98561397914b3792db9eef351f0fa601dcc7e271d7aa64736f6c63430008150033",
    "linkReferences": {}
  },
  "methodIdentifiers": {
    "CALLBACK_SUCCESS()": "8237e538",
    "ETH_ID()": "e625a8ea",
    "addNewAssetVault(address)": "e253cc87",
    "approveMMRegistration(bool,address,uint256)": "7078fd58",
    "feePercent()": "7fd6f15c",
    "flashFee(address,uint256)": "d9d98ce4",
    "flashLoan(address,address,uint256,bytes)": "5cffe9de",
    "getAssetVaultAddress(address)": "81fa1c05",
    "getETHVaultAddress()": "0ca55586",
    "getETHWithdrawableAmount(address)": "1dffcf6f",
    "getPendingDepositAmount(uint256,address)": "99bf5964",
    "getPendingETHDepositAmount(uint256)": "deb6cecd",
    "getScaleFactor(uint32)": "d28ff48f",
    "getTokenAddress(uint32)": "543d7a19",
    "getTokenId(address)": "f1537686",
    "getWithdrawableAmount(address,address)": "46c58227",
    "isAddressRegistered(uint256)": "43d105a7",
    "makeDeposit(address,uint256,uint256)": "2440fdc2",
    "makeETHWithdrawal(address,address,uint256,uint8,bytes32,bytes32)": "0e05cba6",
    "makeWithdrawal(address,address,address,uint256,uint8,bytes32,bytes32)": "eba3af29",
    "maxFlashLoan(address)": "613255ab",
    "registerNewMarkets(uint32[],uint32[],uint32[])": "fa6503b6",
    "registerPerpMarketMaker(uint32,uint256,uint64)": "edc27769",
    "registerSpotMarketMaker(uint32,uint32,uint256,uint64)": "af959edd",
    "registerToken(address,uint32,uint8)": "05560c79",
    "relayAccumulatedHashes(uint64,(uint32,uint256,uint256)[])": "ff5a1f32",
    "s_accumulatedHashesRelayed(uint64)": "1367fa84",
    "s_address2PubKey(address)": "b227d757",
    "s_approvedPerpMMs(address,uint256)": "24e7cfa5",
    "s_approvedSpotMMs(address,uint256)": "7e3c638a",
    "s_depositCencelations(uint256)": "65a6fada",
    "s_pendingDeposits(uint256,uint32)": "57be4544",
    "s_pendingPerpMMCount()": "7c504b35",
    "s_pendingRefunds(address,address)": "624c5e57",
    "s_pendingSpotMMCount()": "cd4ca7fe",
    "s_perpRegistrations(uint256)": "2f681722",
    "s_spotMarkets(uint32,uint32)": "42dcde74",
    "s_spotRegistrations(uint256)": "f3912a7b",
    "s_tokenAddress2Id(address)": "128bd6bf",
    "s_tokenId2Address(uint32)": "af694ca7",
    "s_tokenId2ScaleFactor(uint32)": "5f74a2da",
    "s_txBatchId2StateRoot(uint64)": "20fd1f1b",
    "s_txBatchId2Timestamp(uint64)": "091d46a9",
    "startCancelDeposit(address,uint256)": "b1a75c72",
    "startCancelETHDeposit(uint256)": "e7273eeb",
    "updatePendingRegistrations((uint256,uint256)[],uint64)": "90b78531",
    "updateStateAfterTxBatch(uint256[])": "d236c247"
  },
  "id": 35
}