{
  "_format": "hh-sol-artifact-1",
  "contractName": "Invisible",
  "sourceName": "src/Invisible.sol",
  "abi": [
    {
      "inputs": [
        {
          "internalType": "address",
          "name": "target",
          "type": "address"
        }
      ],
      "name": "AddressEmptyCode",
      "type": "error"
    },
    {
      "inputs": [
        {
          "internalType": "address",
          "name": "implementation",
          "type": "address"
        }
      ],
      "name": "ERC1967InvalidImplementation",
      "type": "error"
    },
    {
      "inputs": [],
      "name": "ERC1967NonPayable",
      "type": "error"
    },
    {
      "inputs": [],
      "name": "FailedInnerCall",
      "type": "error"
    },
    {
      "inputs": [],
      "name": "InvalidInitialization",
      "type": "error"
    },
    {
      "inputs": [],
      "name": "NotInitializing",
      "type": "error"
    },
    {
      "inputs": [
        {
          "internalType": "address",
          "name": "owner",
          "type": "address"
        }
      ],
      "name": "OwnableInvalidOwner",
      "type": "error"
    },
    {
      "inputs": [
        {
          "internalType": "address",
          "name": "account",
          "type": "address"
        }
      ],
      "name": "OwnableUnauthorizedAccount",
      "type": "error"
    },
    {
      "inputs": [],
      "name": "ReentrancyGuardReentrantCall",
      "type": "error"
    },
    {
      "inputs": [],
      "name": "UUPSUnauthorizedCallContext",
      "type": "error"
    },
    {
      "inputs": [
        {
          "internalType": "bytes32",
          "name": "slot",
          "type": "bytes32"
        }
      ],
      "name": "UUPSUnsupportedProxiableUUID",
      "type": "error"
    },
    {
      "anonymous": false,
      "inputs": [
        {
          "indexed": false,
          "internalType": "address",
          "name": "depositor",
          "type": "address"
        },
        {
          "indexed": false,
          "internalType": "uint256",
          "name": "mmPositionAddress",
          "type": "uint256"
        },
        {
          "indexed": false,
          "internalType": "uint64",
          "name": "usdcAmount",
          "type": "uint64"
        },
        {
          "indexed": true,
          "internalType": "uint32",
          "name": "mmActionId",
          "type": "uint32"
        }
      ],
      "name": "AddLiquidity",
      "type": "event"
    },
    {
      "anonymous": false,
      "inputs": [
        {
          "indexed": false,
          "internalType": "uint256",
          "name": "positionAddress",
          "type": "uint256"
        },
        {
          "indexed": false,
          "internalType": "address",
          "name": "mmOwner",
          "type": "address"
        },
        {
          "indexed": false,
          "internalType": "uint64",
          "name": "initialValueSum",
          "type": "uint64"
        },
        {
          "indexed": false,
          "internalType": "uint64",
          "name": "vlpAmountSum",
          "type": "uint64"
        },
        {
          "indexed": true,
          "internalType": "uint32",
          "name": "mmActionId",
          "type": "uint32"
        }
      ],
      "name": "ClosePositionEvent",
      "type": "event"
    },
    {
      "anonymous": false,
      "inputs": [
        {
          "indexed": false,
          "internalType": "uint256",
          "name": "pubKey",
          "type": "uint256"
        },
        {
          "indexed": false,
          "internalType": "address",
          "name": "tokenAddress",
          "type": "address"
        },
        {
          "indexed": false,
          "internalType": "uint256",
          "name": "timestamp",
          "type": "uint256"
        }
      ],
      "name": "DepositCancelEvent",
      "type": "event"
    },
    {
      "anonymous": false,
      "inputs": [
        {
          "indexed": false,
          "internalType": "uint64",
          "name": "depositId",
          "type": "uint64"
        },
        {
          "indexed": false,
          "internalType": "uint256",
          "name": "pubKey",
          "type": "uint256"
        },
        {
          "indexed": false,
          "internalType": "uint32",
          "name": "tokenId",
          "type": "uint32"
        },
        {
          "indexed": false,
          "internalType": "uint64",
          "name": "depositAmountScaled",
          "type": "uint64"
        },
        {
          "indexed": false,
          "internalType": "uint256",
          "name": "timestamp",
          "type": "uint256"
        }
      ],
      "name": "DepositEvent",
      "type": "event"
    },
    {
      "anonymous": false,
      "inputs": [
        {
          "indexed": false,
          "internalType": "uint64",
          "name": "version",
          "type": "uint64"
        }
      ],
      "name": "Initialized",
      "type": "event"
    },
    {
      "anonymous": false,
      "inputs": [
        {
          "indexed": false,
          "internalType": "address",
          "name": "tokenAddress",
          "type": "address"
        },
        {
          "indexed": false,
          "internalType": "uint32",
          "name": "tokenId",
          "type": "uint32"
        },
        {
          "indexed": false,
          "internalType": "uint8",
          "name": "scaleFactor",
          "type": "uint8"
        }
      ],
      "name": "NewTokenRegisteredEvent",
      "type": "event"
    },
    {
      "anonymous": false,
      "inputs": [
        {
          "indexed": true,
          "internalType": "address",
          "name": "previousOwner",
          "type": "address"
        },
        {
          "indexed": true,
          "internalType": "address",
          "name": "newOwner",
          "type": "address"
        }
      ],
      "name": "OwnershipTransferred",
      "type": "event"
    },
    {
      "anonymous": false,
      "inputs": [
        {
          "indexed": false,
          "internalType": "address",
          "name": "depositor",
          "type": "address"
        },
        {
          "indexed": false,
          "internalType": "uint256",
          "name": "mmPositionAddress",
          "type": "uint256"
        },
        {
          "indexed": false,
          "internalType": "uint64",
          "name": "initialValue",
          "type": "uint64"
        },
        {
          "indexed": false,
          "internalType": "uint64",
          "name": "vlpAmount",
          "type": "uint64"
        },
        {
          "indexed": true,
          "internalType": "uint32",
          "name": "mmActionId",
          "type": "uint32"
        }
      ],
      "name": "RemoveLiquidity",
      "type": "event"
    },
    {
      "anonymous": false,
      "inputs": [
        {
          "indexed": false,
          "internalType": "uint256",
          "name": "timestamp",
          "type": "uint256"
        },
        {
          "indexed": false,
          "internalType": "uint64",
          "name": "txBatchId",
          "type": "uint64"
        }
      ],
      "name": "StoredNewWithdrawalsEvent",
      "type": "event"
    },
    {
      "anonymous": false,
      "inputs": [
        {
          "indexed": false,
          "internalType": "uint256",
          "name": "timestamp",
          "type": "uint256"
        },
        {
          "indexed": false,
          "internalType": "uint64",
          "name": "txBatchId",
          "type": "uint64"
        }
      ],
      "name": "UpdatedPendingDepositsEvent",
      "type": "event"
    },
    {
      "anonymous": false,
      "inputs": [
        {
          "indexed": true,
          "internalType": "address",
          "name": "implementation",
          "type": "address"
        }
      ],
      "name": "Upgraded",
      "type": "event"
    },
    {
      "anonymous": false,
      "inputs": [
        {
          "indexed": false,
          "internalType": "address",
          "name": "tokenAddress",
          "type": "address"
        }
      ],
      "name": "VaultRegisteredEvent",
      "type": "event"
    },
    {
      "anonymous": false,
      "inputs": [
        {
          "indexed": false,
          "internalType": "address",
          "name": "withdrawer",
          "type": "address"
        },
        {
          "indexed": false,
          "internalType": "address",
          "name": "tokenAddress",
          "type": "address"
        },
        {
          "indexed": false,
          "internalType": "uint256",
          "name": "withdrawalAmount",
          "type": "uint256"
        },
        {
          "indexed": false,
          "internalType": "uint256",
          "name": "timestamp",
          "type": "uint256"
        }
      ],
      "name": "WithdrawalEvent",
      "type": "event"
    },
    {
      "anonymous": false,
      "inputs": [
        {
          "indexed": false,
          "internalType": "address",
          "name": "mmOwner",
          "type": "address"
        },
        {
          "indexed": false,
          "internalType": "uint32",
          "name": "syntheticAsset",
          "type": "uint32"
        },
        {
          "indexed": false,
          "internalType": "uint256",
          "name": "positionAddress",
          "type": "uint256"
        },
        {
          "indexed": false,
          "internalType": "uint64",
          "name": "maxVlpSupply",
          "type": "uint64"
        },
        {
          "indexed": false,
          "internalType": "uint32",
          "name": "vlpTokenId",
          "type": "uint32"
        },
        {
          "indexed": true,
          "internalType": "uint32",
          "name": "mmActionId",
          "type": "uint32"
        }
      ],
      "name": "newPerpMMRegistration",
      "type": "event"
    },
    {
      "inputs": [],
      "name": "CALLBACK_SUCCESS",
      "outputs": [
        {
          "internalType": "bytes32",
          "name": "",
          "type": "bytes32"
        }
      ],
      "stateMutability": "view",
      "type": "function"
    },
    {
      "inputs": [],
      "name": "UPGRADE_INTERFACE_VERSION",
      "outputs": [
        {
          "internalType": "string",
          "name": "",
          "type": "string"
        }
      ],
      "stateMutability": "view",
      "type": "function"
    },
    {
      "inputs": [
        {
          "internalType": "address",
          "name": "mmOwner",
          "type": "address"
        },
        {
          "internalType": "uint256",
          "name": "tabPosAddress",
          "type": "uint256"
        }
      ],
      "name": "approveMMRegistration",
      "outputs": [],
      "stateMutability": "nonpayable",
      "type": "function"
    },
    {
      "inputs": [
        {
          "internalType": "address",
          "name": "token",
          "type": "address"
        }
      ],
      "name": "claimFailedWithdrawal",
      "outputs": [],
      "stateMutability": "nonpayable",
      "type": "function"
    },
    {
      "inputs": [
        {
          "internalType": "uint256",
          "name": "mmPositionAddress",
          "type": "uint256"
        }
      ],
      "name": "closePerpMarketMaker",
      "outputs": [],
      "stateMutability": "nonpayable",
      "type": "function"
    },
    {
      "inputs": [
        {
          "internalType": "address",
          "name": "tokenAddress",
          "type": "address"
        },
        {
          "internalType": "address payable",
          "name": "recipient",
          "type": "address"
        },
        {
          "internalType": "uint256",
          "name": "escapeAmount",
          "type": "uint256"
        }
      ],
      "name": "executeEscape",
      "outputs": [],
      "stateMutability": "nonpayable",
      "type": "function"
    },
    {
      "inputs": [],
      "name": "feePercent",
      "outputs": [
        {
          "internalType": "uint256",
          "name": "",
          "type": "uint256"
        }
      ],
      "stateMutability": "view",
      "type": "function"
    },
    {
      "inputs": [
        {
          "internalType": "address",
          "name": "token",
          "type": "address"
        },
        {
          "internalType": "uint256",
          "name": "amount",
          "type": "uint256"
        }
      ],
      "name": "flashFee",
      "outputs": [
        {
          "internalType": "uint256",
          "name": "",
          "type": "uint256"
        }
      ],
      "stateMutability": "pure",
      "type": "function"
    },
    {
      "inputs": [
        {
          "internalType": "contract IERC3156FlashBorrower",
          "name": "receiver",
          "type": "address"
        },
        {
          "internalType": "address",
          "name": "token",
          "type": "address"
        },
        {
          "internalType": "uint256",
          "name": "amount",
          "type": "uint256"
        },
        {
          "internalType": "bytes",
          "name": "data",
          "type": "bytes"
        }
      ],
      "name": "flashLoan",
      "outputs": [
        {
          "internalType": "bool",
          "name": "",
          "type": "bool"
        }
      ],
      "stateMutability": "nonpayable",
      "type": "function"
    },
    {
      "inputs": [
        {
          "internalType": "uint256",
          "name": "starkKey",
          "type": "uint256"
        },
        {
          "internalType": "address",
          "name": "tokenAddress",
          "type": "address"
        }
      ],
      "name": "getPendingDepositAmount",
      "outputs": [
        {
          "internalType": "uint256",
          "name": "",
          "type": "uint256"
        }
      ],
      "stateMutability": "view",
      "type": "function"
    },
    {
      "inputs": [
        {
          "internalType": "uint256",
          "name": "starkKey",
          "type": "uint256"
        }
      ],
      "name": "getPendingETHDepositAmount",
      "outputs": [
        {
          "internalType": "uint256",
          "name": "",
          "type": "uint256"
        }
      ],
      "stateMutability": "view",
      "type": "function"
    },
    {
      "inputs": [
        {
          "internalType": "uint32",
          "name": "tokenId",
          "type": "uint32"
        }
      ],
      "name": "getScaleFactor",
      "outputs": [
        {
          "internalType": "uint8",
          "name": "",
          "type": "uint8"
        }
      ],
      "stateMutability": "view",
      "type": "function"
    },
    {
      "inputs": [
        {
          "internalType": "uint32",
          "name": "tokenId",
          "type": "uint32"
        }
      ],
      "name": "getTokenAddress",
      "outputs": [
        {
          "internalType": "address",
          "name": "",
          "type": "address"
        }
      ],
      "stateMutability": "view",
      "type": "function"
    },
    {
      "inputs": [
        {
          "internalType": "address",
          "name": "tokenAddress",
          "type": "address"
        }
      ],
      "name": "getTokenId",
      "outputs": [
        {
          "internalType": "uint32",
          "name": "",
          "type": "uint32"
        }
      ],
      "stateMutability": "view",
      "type": "function"
    },
    {
      "inputs": [
        {
          "internalType": "address",
          "name": "tokenAddress",
          "type": "address"
        }
      ],
      "name": "getTokenPrice",
      "outputs": [
        {
          "internalType": "uint8",
          "name": "",
          "type": "uint8"
        },
        {
          "internalType": "uint256",
          "name": "",
          "type": "uint256"
        }
      ],
      "stateMutability": "view",
      "type": "function"
    },
    {
      "inputs": [
        {
          "internalType": "address",
          "name": "initialOwner",
          "type": "address"
        }
      ],
      "name": "initialize",
      "outputs": [],
      "stateMutability": "nonpayable",
      "type": "function"
    },
    {
      "inputs": [
        {
          "internalType": "uint256",
          "name": "mmPositionAddress",
          "type": "uint256"
        }
      ],
      "name": "initiateMMClose",
      "outputs": [],
      "stateMutability": "nonpayable",
      "type": "function"
    },
    {
      "inputs": [
        {
          "internalType": "uint256",
          "name": "mmAddress",
          "type": "uint256"
        }
      ],
      "name": "isAddressRegistered",
      "outputs": [
        {
          "internalType": "bool",
          "name": "",
          "type": "bool"
        }
      ],
      "stateMutability": "view",
      "type": "function"
    },
    {
      "inputs": [
        {
          "internalType": "uint32",
          "name": "syntheticAsset",
          "type": "uint32"
        }
      ],
      "name": "isMarketRegistered",
      "outputs": [
        {
          "internalType": "bool",
          "name": "",
          "type": "bool"
        }
      ],
      "stateMutability": "view",
      "type": "function"
    },
    {
      "inputs": [
        {
          "internalType": "uint32",
          "name": "tokenId",
          "type": "uint32"
        }
      ],
      "name": "isTokenRegistered",
      "outputs": [
        {
          "internalType": "bool",
          "name": "",
          "type": "bool"
        }
      ],
      "stateMutability": "view",
      "type": "function"
    },
    {
      "inputs": [
        {
          "internalType": "address",
          "name": "tokenAddress",
          "type": "address"
        }
      ],
      "name": "isVaultRegistered",
      "outputs": [
        {
          "internalType": "bool",
          "name": "",
          "type": "bool"
        }
      ],
      "stateMutability": "view",
      "type": "function"
    },
    {
      "inputs": [
        {
          "internalType": "address",
          "name": "tokenAddress",
          "type": "address"
        },
        {
          "internalType": "uint256",
          "name": "amount",
          "type": "uint256"
        },
        {
          "internalType": "uint256",
          "name": "starkKey",
          "type": "uint256"
        }
      ],
      "name": "makeDeposit",
      "outputs": [
        {
          "internalType": "uint64",
          "name": "newAmountDeposited",
          "type": "uint64"
        }
      ],
      "stateMutability": "payable",
      "type": "function"
    },
    {
      "inputs": [
        {
          "internalType": "address",
          "name": "token",
          "type": "address"
        }
      ],
      "name": "maxFlashLoan",
      "outputs": [
        {
          "internalType": "uint256",
          "name": "",
          "type": "uint256"
        }
      ],
      "stateMutability": "view",
      "type": "function"
    },
    {
      "inputs": [],
      "name": "owner",
      "outputs": [
        {
          "internalType": "address",
          "name": "",
          "type": "address"
        }
      ],
      "stateMutability": "view",
      "type": "function"
    },
    {
      "inputs": [
        {
          "internalType": "uint32",
          "name": "syntheticToken",
          "type": "uint32"
        },
        {
          "internalType": "uint256",
          "name": "mmPositionAddress",
          "type": "uint256"
        },
        {
          "internalType": "uint256",
          "name": "usdcAmount",
          "type": "uint256"
        }
      ],
      "name": "provideLiquidity",
      "outputs": [],
      "stateMutability": "nonpayable",
      "type": "function"
    },
    {
      "inputs": [],
      "name": "proxiableUUID",
      "outputs": [
        {
          "internalType": "bytes32",
          "name": "",
          "type": "bytes32"
        }
      ],
      "stateMutability": "view",
      "type": "function"
    },
    {
      "inputs": [
        {
          "internalType": "uint32[]",
          "name": "syntheticAssets",
          "type": "uint32[]"
        }
      ],
      "name": "registerNewMarkets",
      "outputs": [],
      "stateMutability": "nonpayable",
      "type": "function"
    },
    {
      "inputs": [
        {
          "internalType": "uint32",
          "name": "syntheticAsset",
          "type": "uint32"
        },
        {
          "internalType": "uint256",
          "name": "positionAddress",
          "type": "uint256"
        },
        {
          "internalType": "uint64",
          "name": "maxVlpSupply",
          "type": "uint64"
        }
      ],
      "name": "registerPerpMarketMaker",
      "outputs": [],
      "stateMutability": "nonpayable",
      "type": "function"
    },
    {
      "inputs": [
        {
          "internalType": "address",
          "name": "tokenAddress",
          "type": "address"
        },
        {
          "internalType": "uint32",
          "name": "tokenId",
          "type": "uint32"
        },
        {
          "internalType": "uint8",
          "name": "offchainDecimals",
          "type": "uint8"
        }
      ],
      "name": "registerToken",
      "outputs": [],
      "stateMutability": "nonpayable",
      "type": "function"
    },
    {
      "inputs": [
        {
          "internalType": "uint32",
          "name": "syntheticToken",
          "type": "uint32"
        },
        {
          "internalType": "uint256",
          "name": "mmPositionAddress",
          "type": "uint256"
        }
      ],
      "name": "removeLiquidity",
      "outputs": [],
      "stateMutability": "nonpayable",
      "type": "function"
    },
    {
      "inputs": [],
      "name": "renounceOwnership",
      "outputs": [],
      "stateMutability": "nonpayable",
      "type": "function"
    },
    {
      "inputs": [
        {
          "internalType": "address",
          "name": "",
          "type": "address"
        },
        {
          "internalType": "uint256",
          "name": "",
          "type": "uint256"
        }
      ],
      "name": "s_activeLiqudity",
      "outputs": [
        {
          "internalType": "uint64",
          "name": "initialValue",
          "type": "uint64"
        },
        {
          "internalType": "uint64",
          "name": "vlpAmount",
          "type": "uint64"
        }
      ],
      "stateMutability": "view",
      "type": "function"
    },
    {
      "inputs": [
        {
          "internalType": "uint256",
          "name": "",
          "type": "uint256"
        }
      ],
      "name": "s_aggregateVlpIssued",
      "outputs": [
        {
          "internalType": "uint64",
          "name": "",
          "type": "uint64"
        }
      ],
      "stateMutability": "view",
      "type": "function"
    },
    {
      "inputs": [
        {
          "internalType": "uint256",
          "name": "",
          "type": "uint256"
        }
      ],
      "name": "s_closedPositionLiqudity",
      "outputs": [
        {
          "internalType": "uint64",
          "name": "vlpAmountSum",
          "type": "uint64"
        },
        {
          "internalType": "uint64",
          "name": "returnCollateral",
          "type": "uint64"
        }
      ],
      "stateMutability": "view",
      "type": "function"
    },
    {
      "inputs": [
        {
          "internalType": "address",
          "name": "",
          "type": "address"
        },
        {
          "internalType": "uint256",
          "name": "",
          "type": "uint256"
        }
      ],
      "name": "s_pendingAddLiqudityRequests",
      "outputs": [
        {
          "internalType": "uint64",
          "name": "",
          "type": "uint64"
        }
      ],
      "stateMutability": "view",
      "type": "function"
    },
    {
      "inputs": [
        {
          "internalType": "uint256",
          "name": "",
          "type": "uint256"
        },
        {
          "internalType": "uint32",
          "name": "",
          "type": "uint32"
        }
      ],
      "name": "s_pendingDeposits",
      "outputs": [
        {
          "internalType": "uint64",
          "name": "",
          "type": "uint64"
        }
      ],
      "stateMutability": "view",
      "type": "function"
    },
    {
      "inputs": [
        {
          "internalType": "bytes32",
          "name": "",
          "type": "bytes32"
        }
      ],
      "name": "s_pendingRemoveLiqudityRequests",
      "outputs": [
        {
          "internalType": "uint256",
          "name": "",
          "type": "uint256"
        }
      ],
      "stateMutability": "view",
      "type": "function"
    },
    {
      "inputs": [
        {
          "internalType": "address",
          "name": "",
          "type": "address"
        }
      ],
      "name": "s_pendingWithdrawals",
      "outputs": [
        {
          "internalType": "uint256",
          "name": "",
          "type": "uint256"
        }
      ],
      "stateMutability": "view",
      "type": "function"
    },
    {
      "inputs": [
        {
          "internalType": "uint256",
          "name": "",
          "type": "uint256"
        }
      ],
      "name": "s_perpRegistrations",
      "outputs": [
        {
          "internalType": "address",
          "name": "mmOwner",
          "type": "address"
        },
        {
          "internalType": "uint32",
          "name": "syntheticAsset",
          "type": "uint32"
        },
        {
          "internalType": "uint256",
          "name": "positionAddress",
          "type": "uint256"
        },
        {
          "internalType": "uint64",
          "name": "maxVlpSupply",
          "type": "uint64"
        },
        {
          "internalType": "uint32",
          "name": "vlpTokenId",
          "type": "uint32"
        },
        {
          "internalType": "uint64",
          "name": "vlpAmount",
          "type": "uint64"
        }
      ],
      "stateMutability": "view",
      "type": "function"
    },
    {
      "inputs": [
        {
          "internalType": "uint256",
          "name": "",
          "type": "uint256"
        }
      ],
      "name": "s_providedUsdcLiquidity",
      "outputs": [
        {
          "internalType": "uint64",
          "name": "",
          "type": "uint64"
        }
      ],
      "stateMutability": "view",
      "type": "function"
    },
    {
      "inputs": [
        {
          "internalType": "uint64",
          "name": "",
          "type": "uint64"
        }
      ],
      "name": "s_txBatchId2StateRoot",
      "outputs": [
        {
          "internalType": "uint256",
          "name": "",
          "type": "uint256"
        }
      ],
      "stateMutability": "view",
      "type": "function"
    },
    {
      "inputs": [
        {
          "internalType": "uint64",
          "name": "",
          "type": "uint64"
        }
      ],
      "name": "s_txBatchId2Timestamp",
      "outputs": [
        {
          "internalType": "uint256",
          "name": "",
          "type": "uint256"
        }
      ],
      "stateMutability": "view",
      "type": "function"
    },
    {
      "inputs": [
        {
          "internalType": "uint256",
          "name": "amount",
          "type": "uint256"
        },
        {
          "internalType": "uint32",
          "name": "tokenId",
          "type": "uint32"
        }
      ],
      "name": "scaleDown",
      "outputs": [
        {
          "internalType": "uint64",
          "name": "amountScaled",
          "type": "uint64"
        }
      ],
      "stateMutability": "view",
      "type": "function"
    },
    {
      "inputs": [
        {
          "internalType": "uint64",
          "name": "amount",
          "type": "uint64"
        },
        {
          "internalType": "uint32",
          "name": "tokenId",
          "type": "uint32"
        }
      ],
      "name": "scaleUp",
      "outputs": [
        {
          "internalType": "uint256",
          "name": "amountScaled",
          "type": "uint256"
        }
      ],
      "stateMutability": "view",
      "type": "function"
    },
    {
      "inputs": [
        {
          "internalType": "address[]",
          "name": "tokenAddress",
          "type": "address[]"
        },
        {
          "internalType": "address[]",
          "name": "aggregatorAddresses",
          "type": "address[]"
        }
      ],
      "name": "setClAggregators",
      "outputs": [],
      "stateMutability": "nonpayable",
      "type": "function"
    },
    {
      "inputs": [
        {
          "internalType": "address",
          "name": "newVerirfier",
          "type": "address"
        }
      ],
      "name": "setEscapeVerifier",
      "outputs": [],
      "stateMutability": "nonpayable",
      "type": "function"
    },
    {
      "inputs": [
        {
          "internalType": "address",
          "name": "tokenAddress",
          "type": "address"
        },
        {
          "internalType": "uint256",
          "name": "starkKey",
          "type": "uint256"
        }
      ],
      "name": "startCancelDeposit",
      "outputs": [],
      "stateMutability": "nonpayable",
      "type": "function"
    },
    {
      "inputs": [
        {
          "internalType": "uint256",
          "name": "starkKey",
          "type": "uint256"
        }
      ],
      "name": "startCancelETHDeposit",
      "outputs": [],
      "stateMutability": "nonpayable",
      "type": "function"
    },
    {
      "inputs": [
        {
          "internalType": "address",
          "name": "newOwner",
          "type": "address"
        }
      ],
      "name": "transferOwnership",
      "outputs": [],
      "stateMutability": "nonpayable",
      "type": "function"
    },
    {
      "inputs": [
        {
          "internalType": "uint256",
          "name": "mmPositionAddress",
          "type": "uint256"
        }
      ],
      "name": "tryCancelAddLiquidity",
      "outputs": [],
      "stateMutability": "nonpayable",
      "type": "function"
    },
    {
      "inputs": [
        {
          "internalType": "uint256[]",
          "name": "programOutput",
          "type": "uint256[]"
        }
      ],
      "name": "updateStateAfterTxBatch",
      "outputs": [],
      "stateMutability": "nonpayable",
      "type": "function"
    },
    {
      "inputs": [
        {
          "internalType": "address",
          "name": "newImplementation",
          "type": "address"
        },
        {
          "internalType": "bytes",
          "name": "data",
          "type": "bytes"
        }
      ],
      "name": "upgradeToAndCall",
      "outputs": [],
      "stateMutability": "payable",
      "type": "function"
    },
    {
      "inputs": [],
      "name": "version",
      "outputs": [
        {
          "internalType": "uint256",
          "name": "",
          "type": "uint256"
        }
      ],
      "stateMutability": "view",
      "type": "function"
    },
    {
      "inputs": [],
      "name": "withdrawalLiquidity",
      "outputs": [],
      "stateMutability": "nonpayable",
      "type": "function"
    }
  ],
  "bytecode": "0x60a0806040523461002b5730608052615c4b90816200003182396080518181816134ab015261378d0152f35b600080fdfe610140604052600436101561001357600080fd5b600061010052610100513560e01c806305560c7914613f07578063063f2ada14613e45578063091d46a914613e07578063105a88e314613dc4578063149e7f4114613d8457806320fd1f1b14613d465780632440fdc214613ce357806325e8eecb14613c645780632f68172214613be55780633671a8f214613bc057806337caeedd14613a98578063401a1ff114613a5f57806343d105a714613a1a578063462de13f146139ea5780634e0621321461399b5780634f1ef2861461370e5780635250e1681461352557806352d1902d1461348e578063543d7a191461343f57806354fd4d501461341f5780635533bfbc146133e157806357be45441461338a5780635cffe9de14612fd65780636025557814612e1c578063613255ab14612df95780636d3ed74714612dcd578063715018a614612d4857806374a0b7ae14612bad5780637fd6f15c14612b8d5780638237e53814612b5057806385bbadab146129ea57806388526682146129b35780638da5cb5b1461296b57806399bf5964146128fb5780639d49e348146128c2578063ad3cb1cc14612820578063b1a75c72146127f3578063c488a05c14612798578063c4d66de814612556578063d02641a014612524578063d236c24714610999578063d28ff48f1461095b578063d9d98ce414610934578063deb6cecd146108d8578063e3564dd314610876578063e7273eeb14610852578063e9dfa0fe1461077a578063edc277691461048b578063efae44061461043d578063f1537686146103f9578063f2fde38b146103c9578063f340470b1461030c578063f6f01b87146102cc5763fce4624d1461027757600080fd5b346102c557610100513660031901126102c557610292614edf565b61029a614dd7565b60017f9b779b17422d0df92223018b32b4d1fa46e071723d6817e2486d003becc55f00556101005180f35b6101005180fd5b346102c55760203660031901126102c55763ffffffff6102ea614251565b1661010051526013602052602060ff6040610100512054166040519015158152f35b346102c55760403660031901126102c5576001600160401b036004358181116102c55761033d903690600401614382565b916024359081116102c557610356903690600401614382565b61035e614e1d565b610100515b848110610371576101005180f35b806103876103826001938888614db3565b614dc3565b610395610382838688614db3565b906001600160a01b03809116610100515260176020526040610100512091166001600160a01b031982541617905501610363565b346102c55760203660031901126102c5576103f26103e5614212565b6103ed614e1d565b614d15565b6101005180f35b346102c55760203660031901126102c5576001600160a01b0361041a614212565b1661010051526014602052602063ffffffff604061010051205416604051908152f35b346102c55760203660031901126102c557610100805160043590526007602090815290516040908190205481516001600160401b03808316825291831c9091169281019290925290f35b0390f35b346102c55760603660031901126102c5576104a4614251565b6001600160401b036024356044358281169081900361077557336101005152602090600a825260406101005120836101005152825260ff6040610100512054161561070b5763ffffffff809516908161010051526009835260ff604061010051205416156106c75760085493868516928761051e85614ce8565b1693620186a08510156102c5577ff3fad21df399baa618c576cd2c34e0a39241f96cde8ac1fbe066cb297636389c9760a0978a61055d61067894614ce8565b169063ffffffff19161760085560405190610577826142ab565b33825287808301858152826002604086019589875260608101968b885260808201948d86528f600c908401976101005189528d6101005152526001600160a01b03604061010051209351167fffffffffffffffff00000000000000000000000000000000000000000000000077ffffffff00000000000000000000000000000000000000008554935160a01b16921617178255516001820155019451166bffffffff00000000000000008554925160401b16916bffffffffffffffffffffffff191617178355511673ffffffffffffffff0000000000000000000000001973ffffffffffffffff00000000000000000000000083549260601b169116179055565b6008549788861c169767ffffffff000000006106938a614582565b871b169067ffffffff0000000019161760085560405194338652850152604084015260608301526080820152a26101005180f35b6064836040519062461bcd60e51b82526004820152601a60248201527f50657270206d61726b657420646f6573206e6f742065786973740000000000006044820152fd5b6084826040519062461bcd60e51b82526004820152602d60248201527f4f6e6c7920617070726f7665642070657270206d61726b6574206d616b65727360448201527f2063616e207265676973746572000000000000000000000000000000000000006064820152fd5b600080fd5b346102c5576020806003193601126102c5576004356001600160401b0381116102c557366023820112156102c5578060040135906107b7826143b2565b916107c56040519384614346565b8083526024602084019160051b830101913683116102c557602401905b828210610836575050506107f4614e1d565b610100515b81518110156103f2578063ffffffff61081460019385614cd4565b5116610100515260098452604061010051208260ff19825416179055016107f9565b813563ffffffff811681036107755781529084019084016107e2565b346102c55760203660031901126102c55761086b614edf565b61029a6004356152ad565b346102c55760403660031901126102c5576001600160a01b03610897614212565b61089f614e1d565b166101005152600a60205260406101005120602435610100515260205260406101005120600160ff198254161790556101005161010051f35b346102c55760203660031901126102c557600080526014602052602061092c63ffffffff604060002054166004356000526018835260406000208160005283526001600160401b0360406000205416614a86565b604051908152f35b346102c55760403660031901126102c55761094d614212565b50602061092c6024356151d0565b346102c55760203660031901126102c55763ffffffff610979614251565b1661010051526016602052602060ff604061010051205416604051908152f35b346102c55760203660031901126102c5576004356001600160401b0381116102c5576109c9903690600401614382565b6109d1614e1d565b6109d9614edf565b6109e16155f0565b50806004116102c5576109f26155f0565b5060405190610a00826142c6565b60408381013563ffffffff81811685528535602080870191909152808701358685015282841c60ff1660608088019190915292811c909116608086015290850135605081901c61ffff90811660a087015281841c811660c0870152603082901c811660e08701529181901c821661010086015280821661012086015260101c1661014084015251610a90816142ab565b61010051815261010051602082015261010051604082015261010051606082015261010051608082015260a06101005191015260031981011561250a5760405192610ada846142ab565b63ffffffff608082810135608881901c8316875260ff81831c16602080890191909152606082811c85166040808b0182905284901c8616918a01919091529082901c841692880192909252821660a0870152600302908116036112b55763ffffffff8080608084013560601c1660030216600101116112b55763ffffffff606085015116600502918263ffffffff8116036112b557610bab610b9a63ffffffff610bd6951663ffffffff80608087013560601c1660030216600101614cfd565b63ffffffff60808801511690614cfd565b91608063ffffffff610bc96003198501958260a08b01511690614cfd565b1692600319019101615643565b9063ffffffff610beb8160a08701511661565e565b168281116102c557610bff600382046143b2565b90610c0d6040519283614346565b60038104808352601f1990610c21906143b2565b01610100515b8181106124f3575050610100515b818110612455575050508163ffffffff610c588160a0610c5f979801511661565e565b1691615643565b610c7061ffff60a085015116615676565b918161ffff8416116102c557610c8c617fff8460011c166143b2565b92610c9a6040519485614346565b600181901c617fff16808552601f1990610cb3906143b2565b01610100515b81811061242c575050610100515b61ffff821681106123aa57505090610cec918161ffff610c588160a089015116615676565b90610cfe61ffff60c086015116615676565b8261ffff8216116102c557610d2a610d1c617fff8360011c166143b2565b60405160c05260c051614346565b617fff8160011c1660c05152601f19610d49617fff8360011c166143b2565b01610100515b81811061237f575050610100515b61ffff821681106122f057505090610d82918161ffff610c588160c089015116615676565b61ffff610d948160e08701511661568d565b16908082116102c55761010051928392839081805b8281106122485750610dc063ffffffff821661591c565b61012052610dd363ffffffff881661591c565b96610de363ffffffff881661591c565b96610df363ffffffff861661591c565b60a05261010051925b8484106120c75750505050505090610e21918161ffff610c588160e08b01511661568d565b610e49610e4461ffff6101008996959601511661ffff6101408a015116906156ba565b6156a3565b928161ffff8516116102c557610e65613fff8560021c166143b2565b93610e736040519586614346565b600281901c613fff16808652610e88906143b2565b610100515b601f198201811061208c575050610100515b61ffff82168110611fc357505090610ed2918161ffff610c58610e448b83610140816101008401511692015116906156ba565b9390600661ffff6101208901511602948561ffff8116036112b55761ffff8616116102c557610f07600661ffff8716046143b2565b94610f156040519687614346565b600661ffff821604808752610f29906143b2565b610100515b601f1982018110611f6d575050610100515b61ffff82168110611e34575050506001600160401b03865116956001600160401b03601c5416809703611df0576020810151876101005152601d602052604061010051205403611dac5763ffffffff608082015116421115611d6857610100515b86518110156110c757610fb48188614cd4565b5190602082519201519182610100515260186020526040610100512063ffffffff8260401c1661010051526020526001600160401b0381166001600160401b036040610100512054161061105d57600192610100515260186020526040610100512063ffffffff8260401c16610100515260205260406101005120906001600160401b036110488184549316828416614569565b16906001600160401b03191617905501610fa1565b608460405162461bcd60e51b815260206004820152602860248201527f416e20696e76616c6964206465706f736974207761732065786563757465642060448201527f6f6666636861696e0000000000000000000000000000000000000000000000006064820152fd5b50604080514281526001600160401b03891660208201527fe73055b4c53403597e4db3f0eb4dd4ca358a3d2cdf10ce573b8ec0d7a057ea0b9190a161110a615982565b601c546101005160808190526012546001600160401b0390811660e052909691169486949091855b60c051518110156113eb576111498160c051614cd4565b516001600160a01b036020825192015116906001600160401b038116156113e15763ffffffff8160601c1660e051036113e15763ffffffff891663ffffffff8260401c1603611270575b906111b4826001600160401b0363ffffffff6001969560401c169116614a86565b906001600160a01b0360805116801560001461121d57506111d68c8383615aba565b156111e5575b50505b01611132565b6101005152601b602052604061010051206101005161010051526020526112146040610100512091825461455c565b90558a806111dc565b9061122c8d848360805161576a565b1561123a575b5050506111df565b6101005152601b602052604061010051209061010051526020526112666040610100512091825461455c565b90558a8080611232565b995060408a901c63ffffffff16975090631b0bc2a888036112cf576101005160805261520891823a8102043a036112b5576111b46001933a029b5b9192935050611193565b634e487b7160e01b61010051526011600452602461010051fd5b63ffffffff8a60401c16610100515260156020526001600160a01b036040610100512054166080526201388091823a8102043a036112b557611312608051614c42565b909361131c614b35565b9190926040519063313ce56760e01b82526020826004816080515afa9182156113d35761010051926113a2575b5060ff808616601201116112b55761139061138a61139c9561138260019b61137d6113969760ff6111b49c16601201614ecb565b614ecb565b953a02614a1d565b93614a0c565b90614a1d565b90614aaa565b9b6112ab565b6113c591925060203d6020116113cc575b6113bd8183614346565b810190614b1c565b9038611349565b503d6113b3565b6040513d61010051823e3d90fd5b50506001906111df565b50604080514281526001600160401b03891660208201527f32bf24d8be330e07624f644b504559770580e270aaa9f5228fb5aea491b689849190a1610100515b6101205151811015611505578061144760019261012051614cd4565b5160408101519051806101005152600c60205260406101005120600281019182549163ffffffff8560881c1663ffffffff8460401c161492836114ea575b50826114dd575b505061149b575b50500161142b565b805473ffffffffffffffff000000000000000000000000191660589290921b73ffffffffffffffff000000000000000000000000169190911790558780611493565b8601541490508a8061148c565b9092506001600160401b03808660481c16911614918c611485565b508493610100515b85518110156116fc578061152360019288614cd4565b5160408101516001600160401b03808260481c169160081c16906001600160a01b03602084015116925190836101005152610100516020526040610100512082610100515260205260406101005120938454946001600160401b0361158a86828916614569565b166001600160401b0319809716179055826101005152600d6020526001600160401b036040610100512054166116ca57806101005152600260205260406101005120836101005152602052604061010051208054866001600160401b036115f3868285166148ce565b169116179055610100515260026020526040610100512082610100515260205261166560406101005120611634856001600160401b03835460401c166148ce565b6fffffffffffffffff0000000000000000196fffffffffffffffff000000000000000083549260401b169116179055565b81610100515260036020526040610100512090846001600160401b0361168f8454938285166148ce565b1691161790556101005152600460205260406101005120916001600160401b036116bd8454938285166148ce565b1691161790555b0161150d565b935090506116d89150614a30565b90610100515260066020526116f56040610100512091825461455c565b90556116c4565b5083600154805b611c585750610100515b84518110156118ac578061172360019287614cd4565b5161187c61187760408301516001600160401b038160881c16906001600160401b03808260481c169160081c16906001600160a01b03928360208801511696519187610100515260026020526040610100512083610100515260205260406101005120906117b9825492611634836001600160401b03806117a689828a16614569565b1681198098161780855560401c16614569565b8361010051526003602052604061010051208054836001600160401b036117e287828516614569565b169116179055836101005152600460205260406101005120916001600160401b03611811845493828516614569565b169116179055808311156118a1576001600160401b0361183360059285614569565b1604925b61184084614a30565b916101005152600c602052604061010051205416610100515260066020526118706040610100512091825461455c565b9055614569565b614a30565b90610100515260066020526118996040610100512091825461455c565b90550161170d565b506101005192611837565b5082610100515b60a051518110156119fe57806119ed6118d060019360a051614cd4565b516001600160401b03604082015191818360881c16611980838560081c169251928361010051526003602052604061010051209285199384815416905560046020526040610100512084815416905561010051508082116000146119f3578561193b60059284614569565b1604905b61194882614a30565b856101005152600c6020526001600160a01b03604061010051205416610100515260066020526118706040610100512091825461455c565b91836040519561198f8761427a565b60481c1685528360208601931683526101005152600760205282604061010051209451169084541617835551166fffffffffffffffff0000000000000000196fffffffffffffffff000000000000000083549260401b169116179055565b016118b3565b50610100519061193f565b50906001600160a01b036021541690813b156102c55760405180927f52fa4c5300000000000000000000000000000000000000000000000000000000825260248201602060048401528351809152602060448401940190610100515b818110611c1c5750505081806101005194039161010051905af180156113d357611c0d575b506001600160a01b036021541690813b156102c55760405180927f1ac8bd1800000000000000000000000000000000000000000000000000000000825260248201602060048401528351809152602060448401940190610100515b818110611baa5750505081806101005194039161010051905af180156113d357611b93575b50601c549060406001600160401b03611b198185166148b6565b1691826001600160401b0319851617601c550151916101005116176101005152601d60205260406101005120556001600160401b03601c54166101005152601e60205242604061010051205560017f9b779b17422d0df92223018b32b4d1fa46e071723d6817e2486d003becc55f00556101005161010051f35b611b9c90614333565b610100516102c55781611aff565b919460019193945060e060209160c08851805183526001600160a01b0385820151168584015260408101516040840152606081015160608401526080810151608084015260a081015160a0840152015160c0820152019501910191859392611ada565b611c1690614333565b82611a7f565b91946001919394506080602091606088518051835284810151858401526040810151604084015201516060820152019501910191859392611a5a565b806000198101116112b557611c70600019820161443a565b5060405190611c7e8261427a565b6001600160a01b039060018282541691828552015490602084019182526101005152610100516020526040610100512090516101005152602052611cd16001600160401b03604061010051205416614a30565b91511661010051526006602052611cf06040610100512091825461455c565b90556001548015611d4e57611d08600019820161443a565b611d32576101005181556001610100519101556000190160015580156112b5576000190180611703565b634e487b7160e01b610100515261010051600452602461010051fd5b634e487b7160e01b61010051526031600452602461010051fd5b606460405162461bcd60e51b815260206004820152601c60248201527f496e76616c69642065787069726174696f6e2074696d657374616d70000000006044820152fd5b606460405162461bcd60e51b815260206004820152601260248201527f496e76616c696420737461746520726f6f7400000000000000000000000000006044820152fd5b606460405162461bcd60e51b815260206004820152601160248201527f696e76616c6964207478426174636849640000000000000000000000000000006044820152fd5b611e438161ffff841685614db3565b356001820182116112b5576001600160a01b03611e686001840161ffff861687614db3565b3516906002830183116112b557611e876002840161ffff861687614db3565b35916003840184116112b557611ea56003850161ffff871688614db3565b356004850185116112b557611ec26004860161ffff881689614db3565b356005860186116112b557611edf6005870161ffff89168a614db3565b35916006870187116112b557611f4695611f016006890161ffff8b168c614db3565b359460405196611f1088614318565b8752602087015260408601526060850152608084015260a083015260c08201526007830490611f3f828b614cd4565b5288614cd4565b506006810180911115610f4057634e487b7160e01b61010051526011600452602461010051fd5b602090604051611f7c81614318565b61010051815261010051838201526101005160408201526101005160608201526101005160808201526101005160a08201526101005160c082015282828b01015201610f2e565b611fd28161ffff841685614db3565b356001820182116112b557611fef6001830161ffff851686614db3565b35906002830183116112b55761200d6002840161ffff861687614db3565b35916003840184116112b5576120659261202f6003860161ffff881689614db3565b35916040519361203e856142fd565b84526020840152604083015260608201528260021c9061205e828a614cd4565b5287614cd4565b506004810180911115610e9f57634e487b7160e01b61010051526011600452602461010051fd5b60209060405161209b816142fd565b610100518152610100518382015261010051604082015261010051606082015282828a01015201610e8d565b6120d2848689614db3565b35600185018086116112b5576120e990878a614db3565b356002860186116112b5578a60ff8d926121088c8b60028c0191614db3565b359060405195612117876142e2565b8652602086015280604086015216801560001461217f575050509061216661216c9261214e610120515163ffffffff8516906156d0565b9061215c8261012051614cd4565b5261012051614cd4565b5061596c565b925b600381018091116112b55792610dfc565b93969593919291600181036121c257505081612166916121b56121ae6121bc96955163ffffffff8716906156d0565b8093614cd4565b528c614cd4565b9161216e565b939593909250600281036121fd575081612166916121f06121ae6121f79697955163ffffffff8716906156d0565b528b614cd4565b9061216e565b60039192501461220e575b5061216e565b95612166612241929761222b60a0515163ffffffff8516906156d0565b906122388260a051614cd4565b5260a051614cd4565b948c612208565b906002820182116112b55760ff612263600284018588614db3565b35168061229c575061227490614ce8565b905b6003810180911115610da957634e487b7160e01b61010051526011600452602461010051fd5b91979091600181036122b957506122b290614ce8565b965b612276565b90979690600281036122d557506122cf90614ce8565b95612276565b909690600219016122b457926122ea90614ce8565b92612276565b6122ff8161ffff841685614db3565b356001820182116112b557612358906001600160a01b036123286001850161ffff871688614db3565b3516604051916123378361427a565b825260208201528260011c9061234f8260c051614cd4565b5260c051614cd4565b506002810180911115610d5d57634e487b7160e01b61010051526011600452602461010051fd5b60209060405161238e8161427a565b6101005181526101005183820152828260c05101015201610d4f565b6123b98161ffff841685614db3565b356001820182116112b557612405906123da6001840161ffff861687614db3565b35604051916123e88361427a565b825260208201528260011c906123fe8289614cd4565b5286614cd4565b506002810180911115610cc757634e487b7160e01b61010051526011600452602461010051fd5b60209060405161243b8161427a565b610100518152610100518382015282828901015201610cb9565b63ffffffff612465828487614db3565b3516600182018083116112b55761247d908487614db3565b35906002830183116112b5576124cc9161249b600285018689614db3565b3590604051926124aa846142e2565b83526020830152604082015260038304906124c58287614cd4565b5284614cd4565b506003810180911115610c3557634e487b7160e01b61010051526011600452602461010051fd5b6020906124fe6158fd565b82828701015201610c27565b634e487b7160e01b61010051526032600452602461010051fd5b346102c55760203660031901126102c5576040612547612542614212565b614c42565b60ff8351921682526020820152f35b346102c5576020806003193601126102c557612570614212565b907ff0c57e16840df040f15088dc2f81fe391c3923bec73e23a9662efc9c229c6a0091825460ff8160401c1615906001600160401b03811692831580612791575b60018095149081612787575b15908161277e575b506127545767ffffffffffffffff19828116851787559183612735575b506125eb6158a4565b6125f36158a4565b6125fc81614d15565b6126046158a4565b6001600160a01b036001600160a01b0319911681600f541617600f556101005161010051526014855260406101005120631b0bc2a8908163ffffffff1982541617905561010051526015855260406101005120908154169055601684526040610100512060ff1990600a828254161790556013855260406101005120848282541617905561010051610100515260108552836040610100512091825416179055628ab75d816012541617601255601c5416601c55601d83527f056b03fb25a6b461493d8d902f42874dde8b8422fd27f7869e70e61132bdcd2f6040610100512055816022556126f4576101005180f35b7fc7f505b2f371ae2175ee4913f4499e1f2633a7b5936321eed1cdaeb6115181d29268ff0000000000000000198154169055604051908152a18080806103f2565b68ffffffffffffffffff191668010000000000000001178655866125e2565b60046040517ff92ee8a9000000000000000000000000000000000000000000000000000000008152fd5b905015876125c5565b303b1591506125bd565b50826125b1565b346102c55760403660031901126102c5576001600160a01b036127b9614212565b1661010051526101005160205260406101005120602435610100515260205260206001600160401b03604061010051205416604051908152f35b346102c55760403660031901126102c55761029a61280f614212565b612817614edf565b6024359061549a565b346102c557610100513660031901126102c55760405161283f8161427a565b600581526020907f352e302e30000000000000000000000000000000000000000000000000000000602082015260405180926020825282519081602084015261010051935b8285106128a95750506040925061010051838284010152601f80199101168101030190f35b8481018201518686016040015293810193859350612884565b346102c55760203660031901126102c5576004356101005152600460205260206001600160401b03604061010051205416604051908152f35b346102c55760403660031901126102c5576001600160a01b0361291c614228565b1661010051526014602052602061092c63ffffffff6040610100512054166004356101005152601883526040610100512081610100515283526001600160401b03604061010051205416614a86565b346102c557610100513660031901126102c55760206001600160a01b037f9016d09d72d40fdae2fd8ceac6b6234c7706214fd39c1cd1e609a0528c1993005416604051908152f35b346102c55760403660031901126102c55760206129d96129d161423e565b600435614aca565b6001600160401b0360405191168152f35b346102c5576020806003193601126102c557612a04614212565b612a0c614edf565b336101005152601b82526001600160a01b036040610100512091169081610100515282526040610100512054908115612b0c57336101005152601b83526040610100512081610100515283526101005160406101005120558015600014612a8f57506101005161029a925090819081908190335af1612a89614886565b5061483b565b60405163a9059cbb60e01b81523360048201526024810192909252829082908180604481015b039161010051905af19081156113d357612ada926101005192612adf575b505061483b565b61029a565b612afe9250803d10612b05575b612af68183614346565b810190614823565b8280612ad3565b503d612aec565b6064836040519062461bcd60e51b82526004820152601d60248201527f4e6f206661696c6564207769746864726177616c20746f20636c61696d0000006044820152fd5b346102c557610100513660031901126102c55760206040517f439148f0bbc682ca079e46d6e2c2f0c1e3b820f1a291b069d8882abf8cf18dd98152f35b346102c557610100513660031901126102c5576020604051610100518152f35b346102c5576020806003193601126102c557600435806101005152600d82526001600160401b038060406101005120541615612d045780601c5416826101005152600d8452816040610100512054161015612c9a57816080917ff0be4d45a4b0c97a58e137eb4e5f3ee1946352b0634474b7f181b1d9e00b4c4a93610100515260038552806040610100512054169060048652604061010051205416906008549563ffffffff87821c169667ffffffff00000000612c6a89614582565b831b169067ffffffff00000000191617600855604051938452339084015260408301526060820152a26101005180f35b6084836040519062461bcd60e51b82526004820152602d60248201527f5761697420666f7220746865206e65787420626174636820746f20636c6f736560448201527f2074686520706f736974696f6e000000000000000000000000000000000000006064820152fd5b6064836040519062461bcd60e51b82526004820152601460248201527f496e69746961746520636c6f73652066697273740000000000000000000000006044820152fd5b346102c557610100513660031901126102c557612d63614e1d565b7f9016d09d72d40fdae2fd8ceac6b6234c7706214fd39c1cd1e609a0528c19930080546001600160a01b0319811690915561010051906001600160a01b03167f8be0079c531659141344cd1fd0a4f28419497f9722a3daafe3b4186f6b6457e08280a36101005180f35b346102c55760403660031901126102c557602061092c612deb614264565b612df361423e565b90614a86565b346102c55760203660031901126102c557602061092c612e17614212565b6148e9565b346102c55760603660031901126102c557612e35614251565b7faa43054738c0ccc1d25109def7436a8b764fbd8a5415e121d2a16c2f84d5a4b76060602435612f4e6044359163ffffffff809616610100515260209260098452612e8960ff60406101005120541661448a565b612eb7612eb283600052600c6020526001600160401b0360026040600020015460601c16151590565b6143c9565b816101005152600d84526001600160401b03928391612edf83604061010051205416156144d5565b638fdd705b80610100515260158752612f08826001600160a01b036040610100512054166151de565b80610100515260138752612f2560ff604061010051205416614976565b61010051526016865261139660ff604061010051205416612f4960128211156149c1565b614a0c565b16913361010051526101005184526040610100512082610100515284526040610100512090815490612f82858284166148ce565b16906001600160401b0319161790556008549586841c169567ffffffff00000000612fac88614582565b851b169067ffffffff00000000191617600855604051923384528301526040820152a26101005180f35b346102c55760803660031901126102c5576004356001600160a01b03908181168091036102c557613005614228565b9160443590606435906001600160401b03948583116102c557366023840112156102c55782600401359586116102c55736602487850101116102c5578361304b826148e9565b106133205760405163a9059cbb60e01b81526001600160a01b03861660048201526024810185905260209691909216939186818060448101038161010051895af19081156113d3576101005191613303575b50156132bf5785602460c46130b1856151d0565b958460405195869485937f23e30c8b0000000000000000000000000000000000000000000000000000000085523360048601528b828601528960448601528a606486015260a060848601528260a4860152018484013761010051838284010152601f8019910116810103018161010051895af180156113d3576101005190613272575b7f439148f0bbc682ca079e46d6e2c2f0c1e3b820f1a291b069d8882abf8cf18dd991500361322e579161316c6131a49492869461455c565b6040516323b872dd60e01b81526001600160a01b03909316600484015230602484015260448301529092839190829081906064820190565b039161010051905af19081156113d3576101005191613211575b50156131cd5760405160018152f35b6064906040519062461bcd60e51b82526004820152601960248201527f466c6173684c656e6465723a205265706179206661696c6564000000000000006044820152fd5b6132289150823d8411612b0557612af68183614346565b826131be565b6064856040519062461bcd60e51b82526004820152601c60248201527f466c6173684c656e6465723a2043616c6c6261636b206661696c6564000000006044820152fd5b508581813d83116132b8575b6132888183614346565b810103126102c5577f439148f0bbc682ca079e46d6e2c2f0c1e3b820f1a291b069d8882abf8cf18dd99051613134565b503d61327e565b6064866040519062461bcd60e51b82526004820152601c60248201527f466c6173684c656e6465723a205472616e73666572206661696c6564000000006044820152fd5b61331a9150873d8911612b0557612af68183614346565b8761309d565b608460405162461bcd60e51b815260206004820152602e60248201527f466c6173684c656e6465723a20496e73756666696369656e742066756e64732060448201527f666f7220666c617368206c6f616e0000000000000000000000000000000000006064820152fd5b346102c55760403660031901126102c5576133a361423e565b6004356101005152601860205263ffffffff604061010051209116610100515260205260206001600160401b03604061010051205416604051908152f35b346102c55760203660031901126102c5576001600160a01b03613402614212565b166101005152600660205260206040610100512054604051908152f35b346102c557610100513660031901126102c5576020602254604051908152f35b346102c55760203660031901126102c557602061347d61345d614251565b63ffffffff1660005260156020526001600160a01b036040600020541690565b6001600160a01b0360405191168152f35b346102c557610100513660031901126102c5576001600160a01b037f00000000000000000000000000000000000000000000000000000000000000001630036134fb5760206040517f360894a13ba1a3210667c828492db98dca3e2076cc3735a920a3ca505d382bbc8152f35b60046040517fe07c8dba000000000000000000000000000000000000000000000000000000008152fd5b346102c55760603660031901126102c55761353e614212565b6001600160a01b0390602435828116908181036102c5578360443593613562614edf565b16908161010051526020946010865261358460ff6040610100512054166147d8565b600e541633036136a4578315613660578491908161362b575050610100519283928392508291905af16135b5614886565b50156135e7575060017f9b779b17422d0df92223018b32b4d1fa46e071723d6817e2486d003becc55f00556101005180f35b6064906040519062461bcd60e51b82526004820152601460248201527f4661696c656420746f2073656e642045746865720000000000000000000000006044820152fd5b60405163a9059cbb60e01b81526001600160a01b03909116600482015260248101949094529091508290818060448101612ab5565b6064856040519062461bcd60e51b82526004820152601660248201527f4e6f2070656e64696e67207769746864726177616c73000000000000000000006044820152fd5b6084856040519062461bcd60e51b82526004820152602a60248201527f4f6e6c792065736361706556657269666965722063616e2063616c6c2074686960448201527f732066756e6374696f6e000000000000000000000000000000000000000000006064820152fd5b60403660031901126102c557613722614212565b6024908135906001600160401b0382116102c557366023830112156102c55781600401359161375083614367565b61375d6040519182614346565b83815260209384820192368783830101116102c557868291018437846101005191830101526001600160a01b03807f00000000000000000000000000000000000000000000000000000000000000001680301490811561396d575b506134fb576137c5614e1d565b831693604051907f52d1902d0000000000000000000000000000000000000000000000000000000082528082600481895afa918291610100519361393d575b505061382157858560405190634c9c8ce360e01b82526004820152fd5b857f360894a13ba1a3210667c828492db98dca3e2076cc3735a920a3ca505d382bbc9182810361390f5750843b156138f95750846001600160a01b0319825416179055604051937fbc7cd75a20ee27fd9adebab32041f755214dbc6bffa90cc0225b39da2e5c2d3b6101005161010051a28051156138c3576138bb9350610100519161010051915190845af46138b5614886565b91615b82565b506101005180f35b505050346138d157506103f2565b807fb398979f0000000000000000000000000000000000000000000000000000000060049252fd5b8560405190634c9c8ce360e01b82526004820152fd5b604051907faa1d49a40000000000000000000000000000000000000000000000000000000082526004820152fd5b9080929350813d8311613966575b6139558183614346565b810103126102c55751908780613804565b503d61394b565b9050817f360894a13ba1a3210667c828492db98dca3e2076cc3735a920a3ca505d382bbc54161415876137b8565b346102c55760203660031901126102c5576001600160a01b036139bc614212565b6139c4614e1d565b166001600160a01b031981816021541617602155600e541617600e556101005161010051f35b346102c55760203660031901126102c5576004356101005152600560205260206040610100512054604051908152f35b346102c55760203660031901126102c5576020613a55600435600052600c6020526001600160401b0360026040600020015460601c16151590565b6040519015158152f35b346102c55760203660031901126102c5576004356101005152600360205260206001600160401b03604061010051205416604051908152f35b346102c55760203660031901126102c557600435806101005152600c6020526040610100512060405190613acb826142ab565b80549160a060026001600160a01b0385169384845263ffffffff8096841c166020850152600181015460408501520154936001600160401b0394859182821660608601528160401c16608085015260601c169101523303613b5657601c5416906101005152600d60205260406101005120906001600160401b03198254161790556101005161010051f35b608460405162461bcd60e51b815260206004820152602560248201527f4f6e6c7920746865206f776e65722063616e20636c6f73652074686520706f7360448201527f6974696f6e0000000000000000000000000000000000000000000000000000006064820152fd5b346102c55760403660031901126102c5576103f2613bdc614251565b60243590614597565b346102c55760203660031901126102c5576004356101005152600c60205260c06040610100512080549063ffffffff60026001830154920154906001600160401b039281604051956001600160a01b038116875260a01c166020860152604085015282821660608501528160401c16608084015260601c1660a0820152f35b346102c55760403660031901126102c5576001600160a01b03613c85614212565b166101005152600260205260406101005120602435610100515260205260406101005120546001600160401b03610487604051928284938260401c169116839060209093929360408301946001600160401b03809216845216910152565b60603660031901126102c5576020613d11613cfc614212565b613d04614edf565b6044359060243590614f84565b60017f9b779b17422d0df92223018b32b4d1fa46e071723d6817e2486d003becc55f00556001600160401b0360405191168152f35b346102c55760203660031901126102c5576001600160401b03613d67614264565b166101005152601d60205260206040610100512054604051908152f35b346102c55760203660031901126102c55763ffffffff613da2614251565b1661010051526009602052602060ff6040610100512054166040519015158152f35b346102c55760203660031901126102c5576001600160a01b03613de5614212565b1661010051526010602052602060ff6040610100512054166040519015158152f35b346102c55760203660031901126102c5576001600160401b03613e28614264565b166101005152601e60205260206040610100512054604051908152f35b346102c55760203660031901126102c557600435613e82612eb282600052600c6020526001600160401b0360026040600020015460601c16151590565b604051613e8e8161427a565b3381526020810191825260015468010000000000000000811015613eed57806001613ebc920160015561443a565b929092611d32576001600160a01b0360019251166001600160a01b0319845416178355519101556101005161010051f35b634e487b7160e01b61010051526041600452602461010051fd5b346102c55760603660031901126102c557613f20614212565b613f2861423e565b60443560ff811681036102c557613f3d614e1d565b6001600160a01b038093169081156141ce5763ffffffff80931693841561418a57613f9a90836101005152613f816020956014875260406101005120541615614e80565b8561010051526015855260406101005120541615614e80565b620186a08411156102c55760405163313ce56760e01b81528381600481865afa9182156113d35760ff92613fd892610100519161416d575b50614ecb565b1692601284116141295760607fa0fa9e6f8b5151671d99d8a21fbee478f03ed8c5078386b9716ed66db871ccec9183610100515260148552604061010051208163ffffffff198254161790558061010051526015855260406101005120846001600160a01b031982541617905560168552604061010051209560ff19968188825416179055601386526040610100512060018882541617905560405191858352868301526040820152a18061010051526010825260ff6040610100512054166140e5577f2db5c923577787b86e45d0fc2e5d9e9a655c9b0d7802164b4e967544fe407864928161010051526010835260016040610100512091825416179055604051908152a16101005180f35b6064826040519062461bcd60e51b82526004820152601860248201527f5661756c7420616c7265616479207265676973746572656400000000000000006044820152fd5b6064836040519062461bcd60e51b82526004820152601660248201527f5363616c6520666163746f7220746f6f206c61726765000000000000000000006044820152fd5b6141849150863d88116113cc576113bd8183614346565b87613fd2565b606460405162461bcd60e51b815260206004820152601860248201527f546f6b656e2049442053686f756c64206e6f74206265203000000000000000006044820152fd5b606460405162461bcd60e51b815260206004820152601d60248201527f546f6b656e20616464726573732053686f756c64206e6f7420626520300000006044820152fd5b600435906001600160a01b038216820361077557565b602435906001600160a01b038216820361077557565b6024359063ffffffff8216820361077557565b6004359063ffffffff8216820361077557565b600435906001600160401b038216820361077557565b604081019081106001600160401b0382111761429557604052565b634e487b7160e01b600052604160045260246000fd5b60c081019081106001600160401b0382111761429557604052565b61016081019081106001600160401b0382111761429557604052565b606081019081106001600160401b0382111761429557604052565b608081019081106001600160401b0382111761429557604052565b60e081019081106001600160401b0382111761429557604052565b6001600160401b03811161429557604052565b90601f801991011681019081106001600160401b0382111761429557604052565b6001600160401b03811161429557601f01601f191660200190565b9181601f84011215610775578235916001600160401b038311610775576020808501948460051b01011161077557565b6001600160401b0381116142955760051b60200190565b156143d057565b608460405162461bcd60e51b815260206004820152602160248201527f706f736974696f6e20616464726573732069736e27742072656769737465726560448201527f64000000000000000000000000000000000000000000000000000000000000006064820152fd5b60015481101561447457600160005260011b7fb10e2d527612073b26eecdfd717e6a320cf44b4afac2b0732d9fcbe2b7fa0cf60190600090565b634e487b7160e01b600052603260045260246000fd5b1561449157565b606460405162461bcd60e51b815260206004820152601760248201527f6d61726b65742069736e277420726567697374657265640000000000000000006044820152fd5b156144dc57565b606460405162461bcd60e51b815260206004820152600f60248201527f706f736974696f6e20636c6f73656400000000000000000000000000000000006044820152fd5b60201b906bffffffffffffffff0000000067ffffffff0000000083169216820361454657565b634e487b7160e01b600052601160045260246000fd5b9190820180921161454657565b6001600160401b03918216908216039190821161454657565b63ffffffff8091169081146145465760010190565b91909163ffffffff90816000911681526020906009825260406145bf60ff828420541661448a565b6145e8612eb287600052600c6020526001600160401b0360026040600020015460601c16151590565b858252600d83526001600160401b03614606818385205416156144d5565b3383526002845281832087845284528183208251906146248261427a565b549382851682528286830195851c1685528881526007865283812054838116614710575091807f596ee89944172f283ef762f313344c7e24443c63de4a42fafa46ff56254608b097989994928694608098975185517fffffffffffffffff0000000000000000000000000000000000000000000000008a8201923360601b845260c01b166034820152601c81526146ba8161427a565b5190208152600588528442912055600854998a881c169967ffffffff000000006146e38c614582565b891b169067ffffffff000000001916176008555116925116928151943386528501528301526060820152a2565b915097918495939650808095511691871c16028381169081036147c457818852600783528386892054169081156147b0578493879361163497966147ae9a9b94600794049761475e89614a30565b3387526006855261477388882091825461455c565b905551168185528383528585209087614790835492828416614569565b16906001600160401b03191617905583525220938454901c16614569565b565b602489634e487b7160e01b81526012600452fd5b602488634e487b7160e01b81526011600452fd5b156147df57565b606460405162461bcd60e51b815260206004820152601760248201527f5661756c74206973206e6f7420726567697374657265640000000000000000006044820152fd5b90816020910312610775575180151581036107755790565b1561484257565b606460405162461bcd60e51b815260206004820152600f60248201527f5472616e73666572206661696c656400000000000000000000000000000000006044820152fd5b3d156148b1573d9061489782614367565b916148a56040519384614346565b82523d6000602084013e565b606090565b9060016001600160401b038093160191821161454657565b9190916001600160401b038080941691160191821161454657565b60206001600160a01b03916024604051809481937f70a08231000000000000000000000000000000000000000000000000000000008352306004840152165afa90811561496a5760009161493b575090565b90506020813d602011614962575b8161495660209383614346565b81010312610775575190565b3d9150614949565b6040513d6000823e3d90fd5b1561497d57565b606460405162461bcd60e51b815260206004820152601460248201527f546f6b656e206e6f7420726567697374657265640000000000000000000000006044820152fd5b156149c857565b606460405162461bcd60e51b815260206004820152601460248201527f496e76616c6964207363616c6520666163746f720000000000000000000000006044820152fd5b60ff16604d811161454657600a0a90565b8181029291811591840414171561454657565b614a8390638fdd705b806000526013602052614a5360ff60406000205416614976565b60005260166020526001600160401b03614a7c60ff60406000205416612f4960128211156149c1565b9116614a1d565b90565b63ffffffff614a839216806000526013602052614a5360ff60406000205416614976565b8115614ab4570490565b634e487b7160e01b600052601260045260246000fd5b614b189063ffffffff6001600160401b039316806000526013602052614af760ff60406000205416614976565b600052601660205261139660ff60406000205416612f4960128211156149c1565b1690565b90816020910312610775575160ff811681036107755790565b60009081805260209160148352604092614b5963ffffffff85842054161515614976565b818052601781526001600160a01b038483205416918215614c325784519163313ce56760e01b83528083600481875afa928315614c28578293614c06575b5080600493948751948580926350d25bcd60e01b82525afa958615614bfb57508195614bc5575b5050509190565b909180939550813d8311614bf4575b614bde8183614346565b81010312614bf157505191388080614bbe565b80fd5b503d614bd4565b51913d9150823e3d90fd5b60049350614c218291823d84116113cc576113bd8183614346565b9350614b97565b86513d84823e3d90fd5b50505090506008906305f5e10090565b906001600160a01b038092169160009083825260209060148252604094614c7363ffffffff87862054161515614976565b8352601782528483205416918215614c325784519163313ce56760e01b83528083600481875afa928315614c28578293614c06575080600493948751948580926350d25bcd60e01b82525afa958615614bfb57508195614bc5575050509190565b80518210156144745760209160051b010190565b90600163ffffffff8093160191821161454657565b91909163ffffffff8080941691160191821161454657565b6001600160a01b03809116908115614d82577f9016d09d72d40fdae2fd8ceac6b6234c7706214fd39c1cd1e609a0528c199300805490836001600160a01b03198316179055167f8be0079c531659141344cd1fd0a4f28419497f9722a3daafe3b4186f6b6457e0600080a3565b60246040517f1e4fbdf700000000000000000000000000000000000000000000000000000000815260006004820152fd5b91908110156144745760051b0190565b356001600160a01b03811681036107755790565b336000526006602052604060002080548015614e19576000614e169255638fdd705b6000526015602052336001600160a01b03604060002054166156dd565b50565b5050565b6001600160a01b037f9016d09d72d40fdae2fd8ceac6b6234c7706214fd39c1cd1e609a0528c19930054163303614e5057565b60246040517f118cdaa7000000000000000000000000000000000000000000000000000000008152336004820152fd5b15614e8757565b606460405162461bcd60e51b815260206004820152601860248201527f546f6b656e20616c7265616479207265676973746572656400000000000000006044820152fd5b9060ff8091169116039060ff821161454657565b7f9b779b17422d0df92223018b32b4d1fa46e071723d6817e2486d003becc55f006002815414614f0f5760029055565b60046040517f3ee5aeb5000000000000000000000000000000000000000000000000000000008152fd5b15614f4057565b606460405162461bcd60e51b815260206004820152601160248201527f496e76616c696420737461726b204b65790000000000000000000000000000006044820152fd5b614faf7f08000000000000110000000000000000000000000000000000000000000000018410614f39565b614fba831515614f39565b34156150d9575050614a839061503e7f429602b012976e07ac9b27b6c1bac9791626550f52721f02a2523c88808ec7a060a0631b0bc2a86000908082526020956013875260409061501060ff8386205416614976565b8284526016885260ff828520541661502b60128211156149c1565b6150446001600160401b03988992614a0c565b34614aaa565b169781855260188152828520848652815287838620541697836150678b8b6148ce565b9684815260188452818120878252845220816001600160401b03199716878254161790556150988160125416614520565b9560195490826150b46150ae828516809b6148ce565b996148b6565b16911617601955835195168552840152820152846060820152426080820152a16148ce565b917f429602b012976e07ac9b27b6c1bac9791626550f52721f02a2523c88808ec7a060a08461510b85614a83976151de565b6001600160a01b036000911681526020936014855260409561513763ffffffff88852054168092614aca565b968284526018875280842082855287526001600160401b039283828620541697826151628b8b6148ce565b9683815260188352818120868252835220856001600160401b03199716878254161790556151938560125416614520565b9560195490866151a96150ae828516809b6148ce565b169116176019558483519616865285015283015285166060820152426080820152a16148ce565b156001171561454657600090565b6152386000926001600160a01b0360209316908185526010845261520860ff6040872054166147d8565b6040516323b872dd60e01b8152336004820152306024820152604481019190915293849283919082906064820190565b03925af1801561496a576147ae91600091615253575061483b565b61526c915060203d602011612b0557612af68183614346565b38612a89565b601a5481101561447457600390601a600052027f057c384a7d1c54f3a1b2e5e67b2617b8224fdfd1ea7234eea573a6ff665ff63e0190600090565b7f0800000000000011000000000000000000000000000000000000000000000001811015615456573315615412577f4f26c3876aa9f4b92579780beea1161a61f87ebf1ec6ee865b299e447ecba99c54600082815260186020908152604080832063ffffffff9485168085529252808320549093906001600160401b03161561540b57835161533b816142e2565b33815260208101868152858201938452601a54680100000000000000008110156153f75780600161536f9201601a55615272565b9290926153e45760609694927ffe5eeb45c725aa6c7460c0a9b5891c86aab2691e00ef4e9e24376ec43264561b989694926001600160a01b0360029351166001600160a01b03198354161782555160018201550191511663ffffffff19825416179055815192835260208301524290820152a1565b602486634e487b7160e01b815280600452fd5b602486634e487b7160e01b81526041600452fd5b5050505050565b606460405162461bcd60e51b815260206004820152601560248201527f6d73672e73656e6465722063616e2774206265203000000000000000000000006044820152fd5b606460405162461bcd60e51b815260206004820152601160248201527f496e76616c696420737461726b206b65790000000000000000000000000000006044820152fd5b7f0800000000000011000000000000000000000000000000000000000000000001821015615456573315615412576001600160a01b03809116600091818352601460205263ffffffff6040938185822054169286825260186020528582208483526020526001600160401b038683205416156155e75785519061551c826142e2565b3382526020820191888352878101958652601a54680100000000000000008110156155d3578060016155519201601a55615272565b9490946155c05750927ffe5eeb45c725aa6c7460c0a9b5891c86aab2691e00ef4e9e24376ec43264561b98969492600292606099979551166001600160a01b03198354161782555160018201550191511663ffffffff19825416179055815192835260208301524290820152a1565b80634e487b7160e01b6024925280600452fd5b602485634e487b7160e01b81526041600452fd5b50505050505050565b604051906155fd826142c6565b816101406000918281528260208201528260408201528260608201528260808201528260a08201528260c08201528260e082015282610100820152826101208201520152565b90939293848311610775578411610775578160051b01920390565b90600363ffffffff8093160291821691820361454657565b60011b906201fffe61fffe83169216820361454657565b90600361ffff8093160291821691820361454657565b60021b906203fffc61fffc83169216820361454657565b91909161ffff8080941691160191821161454657565b9190820391821161454657565b6001600160a01b03169182600052601060205260ff60406000205416156157625780156157625760405163a9059cbb60e01b81526001600160a01b03929092166004830152602482015290602090829060449082906000905af190811561496a57600091615749575090565b614a83915060203d602011612b0557612af68183614346565b505050600190565b906001600160a01b03809216906000948286526020946010865260ff60408820541615615898578161579b916156d0565b9384156158985781615815575b505060405163a9059cbb60e01b81526001600160a01b039091166004820152602481019290925290919081908390818681604481015b03925af192831561580957926157f357505090565b614a839250803d10612b0557612af68183614346565b604051903d90823e3d90fd5b600f5460405163a9059cbb60e01b815291166001600160a01b03166004820152602481019190915284818060448101038189875af190811561588d579161586b869593926157de9795938991615876575061483b565b9193948193506157a8565b61526c9150863d8811612b0557612af68183614346565b6040513d88823e3d90fd5b50505050505050600190565b60ff7ff0c57e16840df040f15088dc2f81fe391c3923bec73e23a9662efc9c229c6a005460401c16156158d357565b60046040517fd7e6bcf8000000000000000000000000000000000000000000000000000000008152fd5b6040519061590a826142e2565b60006040838281528260208201520152565b90615926826143b2565b6159336040519182614346565b8281528092615944601f19916143b2565b019060005b82811061595557505050565b6020906159606158fd565b82828501015201615949565b63ffffffff908116600019019190821161454657565b601a805415614e165760005b8154811015615a4657806159a3600192615272565b5082810154600052602090601882526001600160401b0360408060002063ffffffff60028501541694856000525260002054168015615a3e57826159e691614a86565b90631b0bc2a883036159fd575b5050505b0161598e565b6001600160a01b03615a2c615a359463ffffffff1660005260156020526001600160a01b036040600020541690565b915416906156dd565b503880806159f3565b5050506159f7565b5050601a546000601a5580615a585750565b6003908060030290600382040361454657601a6000527f057c384a7d1c54f3a1b2e5e67b2617b8224fdfd1ea7234eea573a6ff665ff63e908101905b818110615aa057505050565b806000849255600060018201556000600282015501615a94565b9082615ac5916156d0565b9182156157625780615af1575b5060008080936001600160a01b038294165af1615aed614886565b5090565b6000808080936001600160a01b03600f54165af1615b0d614886565b5015615b195738615ad2565b608460405162461bcd60e51b8152602060048201526024808201527f4661696c656420746f2073656e6420457468657220746f20676173436f6c6c6560448201527f63746f72000000000000000000000000000000000000000000000000000000006064820152fd5b90615bc15750805115615b9757805190602001fd5b60046040517f1425ea42000000000000000000000000000000000000000000000000000000008152fd5b81511580615c0c575b615bd2575090565b6024906001600160a01b03604051917f9996b315000000000000000000000000000000000000000000000000000000008352166004820152fd5b50803b15615bca56fea2646970667358221220e8363cab87273b878ff3ce732115dcf630288184baebd76b29cf47b795bad0f864736f6c63430008160033",
  "linkReferences": {},
  "deployedLinkReferences": {}
}